{
	"tachk1 (1).sol": {
		"superTachki": {
			"abi": [
				{
					"inputs": [
						{
							"internalType": "string",
							"name": "_brand",
							"type": "string"
						},
						{
							"internalType": "string",
							"name": "_color",
							"type": "string"
						},
						{
							"internalType": "uint256",
							"name": "_V",
							"type": "uint256"
						},
						{
							"internalType": "uint256",
							"name": "_maxSpeed",
							"type": "uint256"
						},
						{
							"internalType": "uint256",
							"name": "_fuelComsump",
							"type": "uint256"
						},
						{
							"internalType": "uint256",
							"name": "_timeToD",
							"type": "uint256"
						}
					],
					"name": "addTachka",
					"outputs": [],
					"stateMutability": "nonpayable",
					"type": "function"
				},
				{
					"inputs": [
						{
							"internalType": "uint256",
							"name": "index",
							"type": "uint256"
						}
					],
					"name": "delTachka",
					"outputs": [],
					"stateMutability": "nonpayable",
					"type": "function"
				},
				{
					"inputs": [],
					"name": "getTheBestTachkaInfo",
					"outputs": [
						{
							"components": [
								{
									"internalType": "string",
									"name": "brand",
									"type": "string"
								},
								{
									"internalType": "string",
									"name": "color",
									"type": "string"
								},
								{
									"internalType": "uint256",
									"name": "V",
									"type": "uint256"
								},
								{
									"internalType": "uint256",
									"name": "maxSpeed",
									"type": "uint256"
								},
								{
									"internalType": "uint256",
									"name": "fuelConsump",
									"type": "uint256"
								},
								{
									"internalType": "uint256",
									"name": "timeToD",
									"type": "uint256"
								}
							],
							"internalType": "struct superTachki.tachkiD",
							"name": "tachkaInfo",
							"type": "tuple"
						},
						{
							"internalType": "uint256",
							"name": "bestTachkaIndex",
							"type": "uint256"
						}
					],
					"stateMutability": "view",
					"type": "function"
				},
				{
					"inputs": [
						{
							"internalType": "uint256",
							"name": "",
							"type": "uint256"
						}
					],
					"name": "tachki",
					"outputs": [
						{
							"internalType": "string",
							"name": "brand",
							"type": "string"
						},
						{
							"internalType": "string",
							"name": "color",
							"type": "string"
						},
						{
							"internalType": "uint256",
							"name": "V",
							"type": "uint256"
						},
						{
							"internalType": "uint256",
							"name": "maxSpeed",
							"type": "uint256"
						},
						{
							"internalType": "uint256",
							"name": "fuelConsump",
							"type": "uint256"
						},
						{
							"internalType": "uint256",
							"name": "timeToD",
							"type": "uint256"
						}
					],
					"stateMutability": "view",
					"type": "function"
				}
			],
			"devdoc": {
				"kind": "dev",
				"methods": {},
				"version": 1
			},
			"evm": {
				"assembly": "    /* \"tachk1 (1).sol\":65:4023  contract superTachki {... */\n  mstore(0x40, 0x80)\n  callvalue\n  dup1\n  iszero\n  tag_1\n  jumpi\n  0x00\n  dup1\n  revert\ntag_1:\n  pop\n  dataSize(sub_0)\n  dup1\n  dataOffset(sub_0)\n  0x00\n  codecopy\n  0x00\n  return\nstop\n\nsub_0: assembly {\n        /* \"tachk1 (1).sol\":65:4023  contract superTachki {... */\n      mstore(0x40, 0x80)\n      callvalue\n      dup1\n      iszero\n      tag_1\n      jumpi\n      0x00\n      dup1\n      revert\n    tag_1:\n      pop\n      jumpi(tag_2, lt(calldatasize, 0x04))\n      shr(0xe0, calldataload(0x00))\n      dup1\n      0x3302b00e\n      eq\n      tag_3\n      jumpi\n      dup1\n      0x6815d520\n      eq\n      tag_4\n      jumpi\n      dup1\n      0x98019748\n      eq\n      tag_5\n      jumpi\n      dup1\n      0xd2056595\n      eq\n      tag_6\n      jumpi\n    tag_2:\n      0x00\n      dup1\n      revert\n        /* \"tachk1 (1).sol\":611:729  function delTachka(uint256 index) public {... */\n    tag_3:\n      tag_7\n      0x04\n      dup1\n      calldatasize\n      sub\n      dup2\n      add\n      swap1\n      tag_8\n      swap2\n      swap1\n      tag_9\n      jump\t// in\n    tag_8:\n      tag_10\n      jump\t// in\n    tag_7:\n      stop\n        /* \"tachk1 (1).sol\":292:605  function addTachka(... */\n    tag_4:\n      tag_11\n      0x04\n      dup1\n      calldatasize\n      sub\n      dup2\n      add\n      swap1\n      tag_12\n      swap2\n      swap1\n      tag_13\n      jump\t// in\n    tag_12:\n      tag_14\n      jump\t// in\n    tag_11:\n      stop\n        /* \"tachk1 (1).sol\":262:285  tachkiD[] public tachki */\n    tag_5:\n      tag_15\n      0x04\n      dup1\n      calldatasize\n      sub\n      dup2\n      add\n      swap1\n      tag_16\n      swap2\n      swap1\n      tag_9\n      jump\t// in\n    tag_16:\n      tag_17\n      jump\t// in\n    tag_15:\n      mload(0x40)\n      tag_18\n      swap7\n      swap6\n      swap5\n      swap4\n      swap3\n      swap2\n      swap1\n      tag_19\n      jump\t// in\n    tag_18:\n      mload(0x40)\n      dup1\n      swap2\n      sub\n      swap1\n      return\n        /* \"tachk1 (1).sol\":936:4021  function getTheBestTachkaInfo()... */\n    tag_6:\n      tag_20\n      tag_21\n      jump\t// in\n    tag_20:\n      mload(0x40)\n      tag_22\n      swap3\n      swap2\n      swap1\n      tag_23\n      jump\t// in\n    tag_22:\n      mload(0x40)\n      dup1\n      swap2\n      sub\n      swap1\n      return\n        /* \"tachk1 (1).sol\":611:729  function delTachka(uint256 index) public {... */\n    tag_10:\n        /* \"tachk1 (1).sol\":678:684  tachki */\n      0x00\n        /* \"tachk1 (1).sol\":678:691  tachki.length */\n      dup1\n      sload\n      swap1\n      pop\n        /* \"tachk1 (1).sol\":670:675  index */\n      dup2\n        /* \"tachk1 (1).sol\":670:691  index < tachki.length */\n      lt\n        /* \"tachk1 (1).sol\":662:692  require(index < tachki.length) */\n      tag_25\n      jumpi\n      0x00\n      dup1\n      revert\n    tag_25:\n        /* \"tachk1 (1).sol\":709:715  tachki */\n      0x00\n        /* \"tachk1 (1).sol\":716:721  index */\n      dup2\n        /* \"tachk1 (1).sol\":709:722  tachki[index] */\n      dup2\n      sload\n      dup2\n      lt\n      tag_26\n      jumpi\n      tag_27\n      tag_28\n      jump\t// in\n    tag_27:\n    tag_26:\n      swap1\n      0x00\n      mstore\n      keccak256(0x00, 0x20)\n      swap1\n      0x06\n      mul\n      add\n      0x00\n        /* \"tachk1 (1).sol\":702:722  delete tachki[index] */\n      dup1\n      dup3\n      add\n      0x00\n      tag_30\n      swap2\n      swap1\n      tag_31\n      jump\t// in\n    tag_30:\n      0x01\n      dup3\n      add\n      0x00\n      tag_32\n      swap2\n      swap1\n      tag_31\n      jump\t// in\n    tag_32:\n      0x02\n      dup3\n      add\n      0x00\n      swap1\n      sstore\n      0x03\n      dup3\n      add\n      0x00\n      swap1\n      sstore\n      0x04\n      dup3\n      add\n      0x00\n      swap1\n      sstore\n      0x05\n      dup3\n      add\n      0x00\n      swap1\n      sstore\n      pop\n      pop\n        /* \"tachk1 (1).sol\":611:729  function delTachka(uint256 index) public {... */\n      pop\n      jump\t// out\n        /* \"tachk1 (1).sol\":292:605  function addTachka(... */\n    tag_14:\n        /* \"tachk1 (1).sol\":499:505  tachki */\n      0x00\n        /* \"tachk1 (1).sol\":525:587  tachkiD(_brand, _color, _V, _maxSpeed, _fuelComsump, _timeToD) */\n      mload(0x40)\n      dup1\n      0xc0\n      add\n      0x40\n      mstore\n      dup1\n        /* \"tachk1 (1).sol\":533:539  _brand */\n      dup9\n        /* \"tachk1 (1).sol\":525:587  tachkiD(_brand, _color, _V, _maxSpeed, _fuelComsump, _timeToD) */\n      dup2\n      mstore\n      0x20\n      add\n        /* \"tachk1 (1).sol\":541:547  _color */\n      dup8\n        /* \"tachk1 (1).sol\":525:587  tachkiD(_brand, _color, _V, _maxSpeed, _fuelComsump, _timeToD) */\n      dup2\n      mstore\n      0x20\n      add\n        /* \"tachk1 (1).sol\":549:551  _V */\n      dup7\n        /* \"tachk1 (1).sol\":525:587  tachkiD(_brand, _color, _V, _maxSpeed, _fuelComsump, _timeToD) */\n      dup2\n      mstore\n      0x20\n      add\n        /* \"tachk1 (1).sol\":553:562  _maxSpeed */\n      dup6\n        /* \"tachk1 (1).sol\":525:587  tachkiD(_brand, _color, _V, _maxSpeed, _fuelComsump, _timeToD) */\n      dup2\n      mstore\n      0x20\n      add\n        /* \"tachk1 (1).sol\":564:576  _fuelComsump */\n      dup5\n        /* \"tachk1 (1).sol\":525:587  tachkiD(_brand, _color, _V, _maxSpeed, _fuelComsump, _timeToD) */\n      dup2\n      mstore\n      0x20\n      add\n        /* \"tachk1 (1).sol\":578:586  _timeToD */\n      dup4\n        /* \"tachk1 (1).sol\":525:587  tachkiD(_brand, _color, _V, _maxSpeed, _fuelComsump, _timeToD) */\n      dup2\n      mstore\n      pop\n        /* \"tachk1 (1).sol\":499:598  tachki.push(... */\n      swap1\n      dup1\n      0x01\n      dup2\n      sload\n      add\n      dup1\n      dup3\n      sstore\n      dup1\n      swap2\n      pop\n      pop\n      0x01\n      swap1\n      sub\n      swap1\n      0x00\n      mstore\n      keccak256(0x00, 0x20)\n      swap1\n      0x06\n      mul\n      add\n      0x00\n      swap1\n      swap2\n      swap1\n      swap2\n      swap1\n      swap2\n      pop\n      0x00\n      dup3\n      add\n      mload\n      dup2\n      0x00\n      add\n      swap1\n      dup2\n      tag_35\n      swap2\n      swap1\n      tag_36\n      jump\t// in\n    tag_35:\n      pop\n      0x20\n      dup3\n      add\n      mload\n      dup2\n      0x01\n      add\n      swap1\n      dup2\n      tag_37\n      swap2\n      swap1\n      tag_36\n      jump\t// in\n    tag_37:\n      pop\n      0x40\n      dup3\n      add\n      mload\n      dup2\n      0x02\n      add\n      sstore\n      0x60\n      dup3\n      add\n      mload\n      dup2\n      0x03\n      add\n      sstore\n      0x80\n      dup3\n      add\n      mload\n      dup2\n      0x04\n      add\n      sstore\n      0xa0\n      dup3\n      add\n      mload\n      dup2\n      0x05\n      add\n      sstore\n      pop\n      pop\n        /* \"tachk1 (1).sol\":292:605  function addTachka(... */\n      pop\n      pop\n      pop\n      pop\n      pop\n      pop\n      jump\t// out\n        /* \"tachk1 (1).sol\":262:285  tachkiD[] public tachki */\n    tag_17:\n      0x00\n      dup2\n      dup2\n      sload\n      dup2\n      lt\n      tag_38\n      jumpi\n      0x00\n      dup1\n      revert\n    tag_38:\n      swap1\n      0x00\n      mstore\n      keccak256(0x00, 0x20)\n      swap1\n      0x06\n      mul\n      add\n      0x00\n      swap2\n      pop\n      swap1\n      pop\n      dup1\n      0x00\n      add\n      dup1\n      sload\n      tag_40\n      swap1\n      tag_41\n      jump\t// in\n    tag_40:\n      dup1\n      0x1f\n      add\n      0x20\n      dup1\n      swap2\n      div\n      mul\n      0x20\n      add\n      mload(0x40)\n      swap1\n      dup2\n      add\n      0x40\n      mstore\n      dup1\n      swap3\n      swap2\n      swap1\n      dup2\n      dup2\n      mstore\n      0x20\n      add\n      dup3\n      dup1\n      sload\n      tag_42\n      swap1\n      tag_41\n      jump\t// in\n    tag_42:\n      dup1\n      iszero\n      tag_43\n      jumpi\n      dup1\n      0x1f\n      lt\n      tag_44\n      jumpi\n      0x0100\n      dup1\n      dup4\n      sload\n      div\n      mul\n      dup4\n      mstore\n      swap2\n      0x20\n      add\n      swap2\n      jump(tag_43)\n    tag_44:\n      dup3\n      add\n      swap2\n      swap1\n      0x00\n      mstore\n      keccak256(0x00, 0x20)\n      swap1\n    tag_45:\n      dup2\n      sload\n      dup2\n      mstore\n      swap1\n      0x01\n      add\n      swap1\n      0x20\n      add\n      dup1\n      dup4\n      gt\n      tag_45\n      jumpi\n      dup3\n      swap1\n      sub\n      0x1f\n      and\n      dup3\n      add\n      swap2\n    tag_43:\n      pop\n      pop\n      pop\n      pop\n      pop\n      swap1\n      dup1\n      0x01\n      add\n      dup1\n      sload\n      tag_46\n      swap1\n      tag_41\n      jump\t// in\n    tag_46:\n      dup1\n      0x1f\n      add\n      0x20\n      dup1\n      swap2\n      div\n      mul\n      0x20\n      add\n      mload(0x40)\n      swap1\n      dup2\n      add\n      0x40\n      mstore\n      dup1\n      swap3\n      swap2\n      swap1\n      dup2\n      dup2\n      mstore\n      0x20\n      add\n      dup3\n      dup1\n      sload\n      tag_47\n      swap1\n      tag_41\n      jump\t// in\n    tag_47:\n      dup1\n      iszero\n      tag_48\n      jumpi\n      dup1\n      0x1f\n      lt\n      tag_49\n      jumpi\n      0x0100\n      dup1\n      dup4\n      sload\n      div\n      mul\n      dup4\n      mstore\n      swap2\n      0x20\n      add\n      swap2\n      jump(tag_48)\n    tag_49:\n      dup3\n      add\n      swap2\n      swap1\n      0x00\n      mstore\n      keccak256(0x00, 0x20)\n      swap1\n    tag_50:\n      dup2\n      sload\n      dup2\n      mstore\n      swap1\n      0x01\n      add\n      swap1\n      0x20\n      add\n      dup1\n      dup4\n      gt\n      tag_50\n      jumpi\n      dup3\n      swap1\n      sub\n      0x1f\n      and\n      dup3\n      add\n      swap2\n    tag_48:\n      pop\n      pop\n      pop\n      pop\n      pop\n      swap1\n      dup1\n      0x02\n      add\n      sload\n      swap1\n      dup1\n      0x03\n      add\n      sload\n      swap1\n      dup1\n      0x04\n      add\n      sload\n      swap1\n      dup1\n      0x05\n      add\n      sload\n      swap1\n      pop\n      dup7\n      jump\t// out\n        /* \"tachk1 (1).sol\":936:4021  function getTheBestTachkaInfo()... */\n    tag_21:\n        /* \"tachk1 (1).sol\":1013:1038  tachkiD memory tachkaInfo */\n      tag_51\n      tag_52\n      jump\t// in\n    tag_51:\n        /* \"tachk1 (1).sol\":1040:1063  uint256 bestTachkaIndex */\n      0x00\n        /* \"tachk1 (1).sol\":1079:1099  uint256 bestDistance */\n      dup1\n        /* \"tachk1 (1).sol\":1102:1103  0 */\n      0x00\n        /* \"tachk1 (1).sol\":1079:1103  uint256 bestDistance = 0 */\n      swap1\n      pop\n        /* \"tachk1 (1).sol\":1113:1129  uint256 bestTime */\n      0x00\n        /* \"tachk1 (1).sol\":1132:1149  type(uint256).max */\n      0xffffffffffffffffffffffffffffffffffffffffffffffffffffffffffffffff\n        /* \"tachk1 (1).sol\":1113:1149  uint256 bestTime = type(uint256).max */\n      swap1\n      pop\n        /* \"tachk1 (1).sol\":1165:1174  uint256 i */\n      0x00\n        /* \"tachk1 (1).sol\":1160:3969  for (uint256 i = 0; i < tachki.length; i++) {... */\n    tag_54:\n        /* \"tachk1 (1).sol\":1184:1190  tachki */\n      0x00\n        /* \"tachk1 (1).sol\":1184:1197  tachki.length */\n      dup1\n      sload\n      swap1\n      pop\n        /* \"tachk1 (1).sol\":1180:1181  i */\n      dup2\n        /* \"tachk1 (1).sol\":1180:1197  i < tachki.length */\n      lt\n        /* \"tachk1 (1).sol\":1160:3969  for (uint256 i = 0; i < tachki.length; i++) {... */\n      iszero\n      tag_55\n      jumpi\n        /* \"tachk1 (1).sol\":1260:1262  31 */\n      0x1f\n        /* \"tachk1 (1).sol\":1236:1242  tachki */\n      0x00\n        /* \"tachk1 (1).sol\":1243:1244  i */\n      dup3\n        /* \"tachk1 (1).sol\":1236:1245  tachki[i] */\n      dup2\n      sload\n      dup2\n      lt\n      tag_57\n      jumpi\n      tag_58\n      tag_28\n      jump\t// in\n    tag_58:\n    tag_57:\n      swap1\n      0x00\n      mstore\n      keccak256(0x00, 0x20)\n      swap1\n      0x06\n      mul\n      add\n        /* \"tachk1 (1).sol\":1236:1257  tachki[i].fuelConsump */\n      0x04\n      add\n      sload\n        /* \"tachk1 (1).sol\":1222:1228  tachki */\n      0x00\n        /* \"tachk1 (1).sol\":1229:1230  i */\n      dup4\n        /* \"tachk1 (1).sol\":1222:1231  tachki[i] */\n      dup2\n      sload\n      dup2\n      lt\n      tag_60\n      jumpi\n      tag_61\n      tag_28\n      jump\t// in\n    tag_61:\n    tag_60:\n      swap1\n      0x00\n      mstore\n      keccak256(0x00, 0x20)\n      swap1\n      0x06\n      mul\n      add\n        /* \"tachk1 (1).sol\":1222:1233  tachki[i].V */\n      0x02\n      add\n      sload\n        /* \"tachk1 (1).sol\":1222:1257  tachki[i].V / tachki[i].fuelConsump */\n      tag_63\n      swap2\n      swap1\n      tag_64\n      jump\t// in\n    tag_63:\n        /* \"tachk1 (1).sol\":1222:1262  tachki[i].V / tachki[i].fuelConsump < 31 */\n      lt\n        /* \"tachk1 (1).sol\":1218:3959  if (tachki[i].V / tachki[i].fuelConsump < 31) {... */\n      iszero\n      tag_65\n      jumpi\n        /* \"tachk1 (1).sol\":1297:1314  type(uint256).max */\n      0xffffffffffffffffffffffffffffffffffffffffffffffffffffffffffffffff\n        /* \"tachk1 (1).sol\":1286:1294  bestTime */\n      dup3\n        /* \"tachk1 (1).sol\":1286:1314  bestTime < type(uint256).max */\n      lt\n        /* \"tachk1 (1).sol\":1282:1614  if (bestTime < type(uint256).max) {... */\n      iszero\n      tag_66\n      jumpi\n        /* \"tachk1 (1).sol\":1338:1354  uint256 distance */\n      0x00\n        /* \"tachk1 (1).sol\":1407:1413  tachki */\n      dup1\n        /* \"tachk1 (1).sol\":1414:1415  i */\n      dup3\n        /* \"tachk1 (1).sol\":1407:1416  tachki[i] */\n      dup2\n      sload\n      dup2\n      lt\n      tag_67\n      jumpi\n      tag_68\n      tag_28\n      jump\t// in\n    tag_68:\n    tag_67:\n      swap1\n      0x00\n      mstore\n      keccak256(0x00, 0x20)\n      swap1\n      0x06\n      mul\n      add\n        /* \"tachk1 (1).sol\":1407:1428  tachki[i].fuelConsump */\n      0x04\n      add\n      sload\n        /* \"tachk1 (1).sol\":1368:1374  tachki */\n      0x00\n        /* \"tachk1 (1).sol\":1375:1376  i */\n      dup4\n        /* \"tachk1 (1).sol\":1368:1377  tachki[i] */\n      dup2\n      sload\n      dup2\n      lt\n      tag_70\n      jumpi\n      tag_71\n      tag_28\n      jump\t// in\n    tag_71:\n    tag_70:\n      swap1\n      0x00\n      mstore\n      keccak256(0x00, 0x20)\n      swap1\n      0x06\n      mul\n      add\n        /* \"tachk1 (1).sol\":1368:1379  tachki[i].V */\n      0x02\n      add\n      sload\n        /* \"tachk1 (1).sol\":1358:1365  1000000 */\n      0x0f4240\n        /* \"tachk1 (1).sol\":1358:1379  1000000 * tachki[i].V */\n      tag_73\n      swap2\n      swap1\n      tag_74\n      jump\t// in\n    tag_73:\n        /* \"tachk1 (1).sol\":1357:1428  (1000000 * tachki[i].V) /... */\n      tag_75\n      swap2\n      swap1\n      tag_64\n      jump\t// in\n    tag_75:\n        /* \"tachk1 (1).sol\":1338:1428  uint256 distance = (1000000 * tachki[i].V) /... */\n      swap1\n      pop\n        /* \"tachk1 (1).sol\":1465:1477  bestDistance */\n      dup4\n        /* \"tachk1 (1).sol\":1454:1462  distance */\n      dup2\n        /* \"tachk1 (1).sol\":1454:1477  distance > bestDistance */\n      gt\n        /* \"tachk1 (1).sol\":1450:1596  if (distance > bestDistance) {... */\n      iszero\n      tag_76\n      jumpi\n        /* \"tachk1 (1).sol\":1520:1528  distance */\n      dup1\n        /* \"tachk1 (1).sol\":1505:1528  bestDistance = distance */\n      swap4\n      pop\n        /* \"tachk1 (1).sol\":1572:1573  i */\n      dup2\n        /* \"tachk1 (1).sol\":1554:1573  bestTachkaIndex = i */\n      swap5\n      pop\n        /* \"tachk1 (1).sol\":1450:1596  if (distance > bestDistance) {... */\n    tag_76:\n        /* \"tachk1 (1).sol\":1316:1614  {... */\n      pop\n        /* \"tachk1 (1).sol\":1282:1614  if (bestTime < type(uint256).max) {... */\n    tag_66:\n        /* \"tachk1 (1).sol\":1657:1660  100 */\n      0x64\n        /* \"tachk1 (1).sol\":1636:1642  tachki */\n      0x00\n        /* \"tachk1 (1).sol\":1643:1644  i */\n      dup3\n        /* \"tachk1 (1).sol\":1636:1645  tachki[i] */\n      dup2\n      sload\n      dup2\n      lt\n      tag_77\n      jumpi\n      tag_78\n      tag_28\n      jump\t// in\n    tag_78:\n    tag_77:\n      swap1\n      0x00\n      mstore\n      keccak256(0x00, 0x20)\n      swap1\n      0x06\n      mul\n      add\n        /* \"tachk1 (1).sol\":1636:1654  tachki[i].maxSpeed */\n      0x03\n      add\n      sload\n        /* \"tachk1 (1).sol\":1636:1660  tachki[i].maxSpeed < 100 */\n      lt\n        /* \"tachk1 (1).sol\":1632:2495  if (tachki[i].maxSpeed < 100) {... */\n      iszero\n      tag_80\n      jumpi\n        /* \"tachk1 (1).sol\":1684:1696  uint256 time */\n      0x00\n        /* \"tachk1 (1).sol\":1824:1825  2 */\n      0x02\n        /* \"tachk1 (1).sol\":1780:1786  tachki */\n      0x00\n        /* \"tachk1 (1).sol\":1787:1788  i */\n      dup4\n        /* \"tachk1 (1).sol\":1780:1789  tachki[i] */\n      dup2\n      sload\n      dup2\n      lt\n      tag_81\n      jumpi\n      tag_82\n      tag_28\n      jump\t// in\n    tag_82:\n    tag_81:\n      swap1\n      0x00\n      mstore\n      keccak256(0x00, 0x20)\n      swap1\n      0x06\n      mul\n      add\n        /* \"tachk1 (1).sol\":1780:1797  tachki[i].timeToD */\n      0x05\n      add\n      sload\n        /* \"tachk1 (1).sol\":1780:1825  tachki[i].timeToD /... */\n      tag_84\n      swap2\n      swap1\n      tag_64\n      jump\t// in\n    tag_84:\n        /* \"tachk1 (1).sol\":1735:1741  tachki */\n      0x00\n        /* \"tachk1 (1).sol\":1742:1743  i */\n      dup4\n        /* \"tachk1 (1).sol\":1735:1744  tachki[i] */\n      dup2\n      sload\n      dup2\n      lt\n      tag_85\n      jumpi\n      tag_86\n      tag_28\n      jump\t// in\n    tag_86:\n    tag_85:\n      swap1\n      0x00\n      mstore\n      keccak256(0x00, 0x20)\n      swap1\n      0x06\n      mul\n      add\n        /* \"tachk1 (1).sol\":1735:1753  tachki[i].maxSpeed */\n      0x03\n      add\n      sload\n        /* \"tachk1 (1).sol\":1699:1708  111600000 */\n      0x06a6e180\n        /* \"tachk1 (1).sol\":1699:1753  111600000 /... */\n      tag_88\n      swap2\n      swap1\n      tag_64\n      jump\t// in\n    tag_88:\n        /* \"tachk1 (1).sol\":1699:1825  111600000 /... */\n      tag_89\n      swap2\n      swap1\n      tag_90\n      jump\t// in\n    tag_89:\n        /* \"tachk1 (1).sol\":1684:1825  uint256 time = 111600000 /... */\n      swap1\n      pop\n        /* \"tachk1 (1).sol\":1858:1866  bestTime */\n      dup3\n        /* \"tachk1 (1).sol\":1851:1855  time */\n      dup2\n        /* \"tachk1 (1).sol\":1851:1866  time < bestTime */\n      lt\n        /* \"tachk1 (1).sol\":1847:1977  if (time < bestTime) {... */\n      iszero\n      tag_91\n      jumpi\n        /* \"tachk1 (1).sol\":1905:1909  time */\n      dup1\n        /* \"tachk1 (1).sol\":1894:1909  bestTime = time */\n      swap3\n      pop\n        /* \"tachk1 (1).sol\":1953:1954  i */\n      dup2\n        /* \"tachk1 (1).sol\":1935:1954  bestTachkaIndex = i */\n      swap5\n      pop\n        /* \"tachk1 (1).sol\":1847:1977  if (time < bestTime) {... */\n    tag_91:\n        /* \"tachk1 (1).sol\":1662:1995  {... */\n      pop\n        /* \"tachk1 (1).sol\":1632:2495  if (tachki[i].maxSpeed < 100) {... */\n      jump(tag_92)\n    tag_80:\n        /* \"tachk1 (1).sol\":2048:2051  100 */\n      0x64\n        /* \"tachk1 (1).sol\":2027:2033  tachki */\n      0x00\n        /* \"tachk1 (1).sol\":2034:2035  i */\n      dup3\n        /* \"tachk1 (1).sol\":2027:2036  tachki[i] */\n      dup2\n      sload\n      dup2\n      lt\n      tag_93\n      jumpi\n      tag_94\n      tag_28\n      jump\t// in\n    tag_94:\n    tag_93:\n      swap1\n      0x00\n      mstore\n      keccak256(0x00, 0x20)\n      swap1\n      0x06\n      mul\n      add\n        /* \"tachk1 (1).sol\":2027:2045  tachki[i].maxSpeed */\n      0x03\n      add\n      sload\n        /* \"tachk1 (1).sol\":2027:2051  tachki[i].maxSpeed > 100 */\n      gt\n        /* \"tachk1 (1).sol\":2023:2477  if (tachki[i].maxSpeed > 100) {... */\n      iszero\n      tag_96\n      jumpi\n        /* \"tachk1 (1).sol\":2079:2101  uint256 calculatedTime */\n      0x00\n        /* \"tachk1 (1).sol\":2264:2267  200 */\n      0xc8\n        /* \"tachk1 (1).sol\":2215:2221  tachki */\n      0x00\n        /* \"tachk1 (1).sol\":2222:2223  i */\n      dup4\n        /* \"tachk1 (1).sol\":2215:2224  tachki[i] */\n      dup2\n      sload\n      dup2\n      lt\n      tag_97\n      jumpi\n      tag_98\n      tag_28\n      jump\t// in\n    tag_98:\n    tag_97:\n      swap1\n      0x00\n      mstore\n      keccak256(0x00, 0x20)\n      swap1\n      0x06\n      mul\n      add\n        /* \"tachk1 (1).sol\":2215:2232  tachki[i].timeToD */\n      0x05\n      add\n      sload\n        /* \"tachk1 (1).sol\":2194:2200  tachki */\n      0x00\n        /* \"tachk1 (1).sol\":2201:2202  i */\n      dup5\n        /* \"tachk1 (1).sol\":2194:2203  tachki[i] */\n      dup2\n      sload\n      dup2\n      lt\n      tag_100\n      jumpi\n      tag_101\n      tag_28\n      jump\t// in\n    tag_101:\n    tag_100:\n      swap1\n      0x00\n      mstore\n      keccak256(0x00, 0x20)\n      swap1\n      0x06\n      mul\n      add\n        /* \"tachk1 (1).sol\":2194:2212  tachki[i].maxSpeed */\n      0x03\n      add\n      sload\n        /* \"tachk1 (1).sol\":2194:2232  tachki[i].maxSpeed * tachki[i].timeToD */\n      tag_103\n      swap2\n      swap1\n      tag_74\n      jump\t// in\n    tag_103:\n        /* \"tachk1 (1).sol\":2193:2267  (tachki[i].maxSpeed * tachki[i].timeToD) /... */\n      tag_104\n      swap2\n      swap1\n      tag_64\n      jump\t// in\n    tag_104:\n        /* \"tachk1 (1).sol\":2144:2150  tachki */\n      0x00\n        /* \"tachk1 (1).sol\":2151:2152  i */\n      dup4\n        /* \"tachk1 (1).sol\":2144:2153  tachki[i] */\n      dup2\n      sload\n      dup2\n      lt\n      tag_105\n      jumpi\n      tag_106\n      tag_28\n      jump\t// in\n    tag_106:\n    tag_105:\n      swap1\n      0x00\n      mstore\n      keccak256(0x00, 0x20)\n      swap1\n      0x06\n      mul\n      add\n        /* \"tachk1 (1).sol\":2144:2162  tachki[i].maxSpeed */\n      0x03\n      add\n      sload\n        /* \"tachk1 (1).sol\":2104:2113  111600000 */\n      0x06a6e180\n        /* \"tachk1 (1).sol\":2104:2162  111600000 /... */\n      tag_108\n      swap2\n      swap1\n      tag_64\n      jump\t// in\n    tag_108:\n        /* \"tachk1 (1).sol\":2104:2267  111600000 /... */\n      tag_109\n      swap2\n      swap1\n      tag_90\n      jump\t// in\n    tag_109:\n        /* \"tachk1 (1).sol\":2079:2267  uint256 calculatedTime = 111600000 /... */\n      swap1\n      pop\n        /* \"tachk1 (1).sol\":2314:2322  bestTime */\n      dup3\n        /* \"tachk1 (1).sol\":2297:2311  calculatedTime */\n      dup2\n        /* \"tachk1 (1).sol\":2297:2322  calculatedTime < bestTime */\n      lt\n        /* \"tachk1 (1).sol\":2293:2455  if (calculatedTime < bestTime) {... */\n      iszero\n      tag_110\n      jumpi\n        /* \"tachk1 (1).sol\":2365:2379  calculatedTime */\n      dup1\n        /* \"tachk1 (1).sol\":2354:2379  bestTime = calculatedTime */\n      swap3\n      pop\n        /* \"tachk1 (1).sol\":2427:2428  i */\n      dup2\n        /* \"tachk1 (1).sol\":2409:2428  bestTachkaIndex = i */\n      swap5\n      pop\n        /* \"tachk1 (1).sol\":2293:2455  if (calculatedTime < bestTime) {... */\n    tag_110:\n        /* \"tachk1 (1).sol\":2053:2477  {... */\n      pop\n        /* \"tachk1 (1).sol\":2023:2477  if (tachki[i].maxSpeed > 100) {... */\n    tag_96:\n        /* \"tachk1 (1).sol\":1632:2495  if (tachki[i].maxSpeed < 100) {... */\n    tag_92:\n        /* \"tachk1 (1).sol\":1218:3959  if (tachki[i].V / tachki[i].fuelConsump < 31) {... */\n      jump(tag_111)\n    tag_65:\n        /* \"tachk1 (1).sol\":2576:2578  31 */\n      0x1f\n        /* \"tachk1 (1).sol\":2551:2557  tachki */\n      0x00\n        /* \"tachk1 (1).sol\":2558:2559  i */\n      dup3\n        /* \"tachk1 (1).sol\":2551:2560  tachki[i] */\n      dup2\n      sload\n      dup2\n      lt\n      tag_112\n      jumpi\n      tag_113\n      tag_28\n      jump\t// in\n    tag_113:\n    tag_112:\n      swap1\n      0x00\n      mstore\n      keccak256(0x00, 0x20)\n      swap1\n      0x06\n      mul\n      add\n        /* \"tachk1 (1).sol\":2551:2572  tachki[i].fuelConsump */\n      0x04\n      add\n      sload\n        /* \"tachk1 (1).sol\":2537:2543  tachki */\n      0x00\n        /* \"tachk1 (1).sol\":2544:2545  i */\n      dup4\n        /* \"tachk1 (1).sol\":2537:2546  tachki[i] */\n      dup2\n      sload\n      dup2\n      lt\n      tag_115\n      jumpi\n      tag_116\n      tag_28\n      jump\t// in\n    tag_116:\n    tag_115:\n      swap1\n      0x00\n      mstore\n      keccak256(0x00, 0x20)\n      swap1\n      0x06\n      mul\n      add\n        /* \"tachk1 (1).sol\":2537:2548  tachki[i].V */\n      0x02\n      add\n      sload\n        /* \"tachk1 (1).sol\":2537:2572  tachki[i].V / tachki[i].fuelConsump */\n      tag_118\n      swap2\n      swap1\n      tag_64\n      jump\t// in\n    tag_118:\n        /* \"tachk1 (1).sol\":2537:2578  tachki[i].V / tachki[i].fuelConsump >= 31 */\n      lt\n        /* \"tachk1 (1).sol\":2533:3945  if (tachki[i].V / tachki[i].fuelConsump >= 31) {... */\n      tag_119\n      jumpi\n        /* \"tachk1 (1).sol\":2617:2634  type(uint256).max */\n      0xffffffffffffffffffffffffffffffffffffffffffffffffffffffffffffffff\n        /* \"tachk1 (1).sol\":2606:2614  bestTime */\n      dup3\n        /* \"tachk1 (1).sol\":2606:2634  bestTime < type(uint256).max */\n      lt\n        /* \"tachk1 (1).sol\":2602:2962  if (bestTime < type(uint256).max) {... */\n      iszero\n      tag_120\n      jumpi\n        /* \"tachk1 (1).sol\":2662:2678  uint256 distance */\n      0x00\n        /* \"tachk1 (1).sol\":2735:2741  tachki */\n      dup1\n        /* \"tachk1 (1).sol\":2742:2743  i */\n      dup3\n        /* \"tachk1 (1).sol\":2735:2744  tachki[i] */\n      dup2\n      sload\n      dup2\n      lt\n      tag_121\n      jumpi\n      tag_122\n      tag_28\n      jump\t// in\n    tag_122:\n    tag_121:\n      swap1\n      0x00\n      mstore\n      keccak256(0x00, 0x20)\n      swap1\n      0x06\n      mul\n      add\n        /* \"tachk1 (1).sol\":2735:2756  tachki[i].fuelConsump */\n      0x04\n      add\n      sload\n        /* \"tachk1 (1).sol\":2692:2698  tachki */\n      0x00\n        /* \"tachk1 (1).sol\":2699:2700  i */\n      dup4\n        /* \"tachk1 (1).sol\":2692:2701  tachki[i] */\n      dup2\n      sload\n      dup2\n      lt\n      tag_124\n      jumpi\n      tag_125\n      tag_28\n      jump\t// in\n    tag_125:\n    tag_124:\n      swap1\n      0x00\n      mstore\n      keccak256(0x00, 0x20)\n      swap1\n      0x06\n      mul\n      add\n        /* \"tachk1 (1).sol\":2692:2703  tachki[i].V */\n      0x02\n      add\n      sload\n        /* \"tachk1 (1).sol\":2682:2689  1000000 */\n      0x0f4240\n        /* \"tachk1 (1).sol\":2682:2703  1000000 * tachki[i].V */\n      tag_127\n      swap2\n      swap1\n      tag_74\n      jump\t// in\n    tag_127:\n        /* \"tachk1 (1).sol\":2681:2756  (1000000 * tachki[i].V) /... */\n      tag_128\n      swap2\n      swap1\n      tag_64\n      jump\t// in\n    tag_128:\n        /* \"tachk1 (1).sol\":2662:2756  uint256 distance = (1000000 * tachki[i].V) /... */\n      swap1\n      pop\n        /* \"tachk1 (1).sol\":2797:2809  bestDistance */\n      dup4\n        /* \"tachk1 (1).sol\":2786:2794  distance */\n      dup2\n        /* \"tachk1 (1).sol\":2786:2809  distance > bestDistance */\n      gt\n        /* \"tachk1 (1).sol\":2782:2940  if (distance > bestDistance) {... */\n      iszero\n      tag_129\n      jumpi\n        /* \"tachk1 (1).sol\":2856:2864  distance */\n      dup1\n        /* \"tachk1 (1).sol\":2841:2864  bestDistance = distance */\n      swap4\n      pop\n        /* \"tachk1 (1).sol\":2912:2913  i */\n      dup2\n        /* \"tachk1 (1).sol\":2894:2913  bestTachkaIndex = i */\n      swap5\n      pop\n        /* \"tachk1 (1).sol\":2782:2940  if (distance > bestDistance) {... */\n    tag_129:\n        /* \"tachk1 (1).sol\":2636:2962  {... */\n      pop\n        /* \"tachk1 (1).sol\":2602:2962  if (bestTime < type(uint256).max) {... */\n    tag_120:\n        /* \"tachk1 (1).sol\":3009:3012  100 */\n      0x64\n        /* \"tachk1 (1).sol\":2988:2994  tachki */\n      0x00\n        /* \"tachk1 (1).sol\":2995:2996  i */\n      dup3\n        /* \"tachk1 (1).sol\":2988:2997  tachki[i] */\n      dup2\n      sload\n      dup2\n      lt\n      tag_130\n      jumpi\n      tag_131\n      tag_28\n      jump\t// in\n    tag_131:\n    tag_130:\n      swap1\n      0x00\n      mstore\n      keccak256(0x00, 0x20)\n      swap1\n      0x06\n      mul\n      add\n        /* \"tachk1 (1).sol\":2988:3006  tachki[i].maxSpeed */\n      0x03\n      add\n      sload\n        /* \"tachk1 (1).sol\":2988:3012  tachki[i].maxSpeed < 100 */\n      lt\n        /* \"tachk1 (1).sol\":2984:3927  if (tachki[i].maxSpeed < 100) {... */\n      iszero\n      tag_133\n      jumpi\n        /* \"tachk1 (1).sol\":3040:3052  uint256 time */\n      0x00\n        /* \"tachk1 (1).sol\":3192:3193  2 */\n      0x02\n        /* \"tachk1 (1).sol\":3144:3150  tachki */\n      0x00\n        /* \"tachk1 (1).sol\":3151:3152  i */\n      dup4\n        /* \"tachk1 (1).sol\":3144:3153  tachki[i] */\n      dup2\n      sload\n      dup2\n      lt\n      tag_134\n      jumpi\n      tag_135\n      tag_28\n      jump\t// in\n    tag_135:\n    tag_134:\n      swap1\n      0x00\n      mstore\n      keccak256(0x00, 0x20)\n      swap1\n      0x06\n      mul\n      add\n        /* \"tachk1 (1).sol\":3144:3161  tachki[i].timeToD */\n      0x05\n      add\n      sload\n        /* \"tachk1 (1).sol\":3144:3193  tachki[i].timeToD /... */\n      tag_137\n      swap2\n      swap1\n      tag_64\n      jump\t// in\n    tag_137:\n        /* \"tachk1 (1).sol\":3095:3101  tachki */\n      0x00\n        /* \"tachk1 (1).sol\":3102:3103  i */\n      dup4\n        /* \"tachk1 (1).sol\":3095:3104  tachki[i] */\n      dup2\n      sload\n      dup2\n      lt\n      tag_138\n      jumpi\n      tag_139\n      tag_28\n      jump\t// in\n    tag_139:\n    tag_138:\n      swap1\n      0x00\n      mstore\n      keccak256(0x00, 0x20)\n      swap1\n      0x06\n      mul\n      add\n        /* \"tachk1 (1).sol\":3095:3113  tachki[i].maxSpeed */\n      0x03\n      add\n      sload\n        /* \"tachk1 (1).sol\":3055:3064  111600000 */\n      0x06a6e180\n        /* \"tachk1 (1).sol\":3055:3113  111600000 /... */\n      tag_141\n      swap2\n      swap1\n      tag_64\n      jump\t// in\n    tag_141:\n        /* \"tachk1 (1).sol\":3055:3193  111600000 /... */\n      tag_142\n      swap2\n      swap1\n      tag_90\n      jump\t// in\n    tag_142:\n        /* \"tachk1 (1).sol\":3040:3193  uint256 time = 111600000 /... */\n      swap1\n      pop\n        /* \"tachk1 (1).sol\":3230:3238  bestTime */\n      dup3\n        /* \"tachk1 (1).sol\":3223:3227  time */\n      dup2\n        /* \"tachk1 (1).sol\":3223:3238  time < bestTime */\n      lt\n        /* \"tachk1 (1).sol\":3219:3361  if (time < bestTime) {... */\n      iszero\n      tag_143\n      jumpi\n        /* \"tachk1 (1).sol\":3281:3285  time */\n      dup1\n        /* \"tachk1 (1).sol\":3270:3285  bestTime = time */\n      swap3\n      pop\n        /* \"tachk1 (1).sol\":3333:3334  i */\n      dup2\n        /* \"tachk1 (1).sol\":3315:3334  bestTachkaIndex = i */\n      swap5\n      pop\n        /* \"tachk1 (1).sol\":3219:3361  if (time < bestTime) {... */\n    tag_143:\n        /* \"tachk1 (1).sol\":3014:3383  {... */\n      pop\n        /* \"tachk1 (1).sol\":2984:3927  if (tachki[i].maxSpeed < 100) {... */\n      jump(tag_144)\n    tag_133:\n        /* \"tachk1 (1).sol\":3440:3443  100 */\n      0x64\n        /* \"tachk1 (1).sol\":3419:3425  tachki */\n      0x00\n        /* \"tachk1 (1).sol\":3426:3427  i */\n      dup3\n        /* \"tachk1 (1).sol\":3419:3428  tachki[i] */\n      dup2\n      sload\n      dup2\n      lt\n      tag_145\n      jumpi\n      tag_146\n      tag_28\n      jump\t// in\n    tag_146:\n    tag_145:\n      swap1\n      0x00\n      mstore\n      keccak256(0x00, 0x20)\n      swap1\n      0x06\n      mul\n      add\n        /* \"tachk1 (1).sol\":3419:3437  tachki[i].maxSpeed */\n      0x03\n      add\n      sload\n        /* \"tachk1 (1).sol\":3419:3443  tachki[i].maxSpeed > 100 */\n      gt\n        /* \"tachk1 (1).sol\":3415:3905  if (tachki[i].maxSpeed > 100) {... */\n      iszero\n      tag_148\n      jumpi\n        /* \"tachk1 (1).sol\":3475:3497  uint256 calculatedTime */\n      0x00\n        /* \"tachk1 (1).sol\":3672:3675  200 */\n      0xc8\n        /* \"tachk1 (1).sol\":3619:3625  tachki */\n      0x00\n        /* \"tachk1 (1).sol\":3626:3627  i */\n      dup4\n        /* \"tachk1 (1).sol\":3619:3628  tachki[i] */\n      dup2\n      sload\n      dup2\n      lt\n      tag_149\n      jumpi\n      tag_150\n      tag_28\n      jump\t// in\n    tag_150:\n    tag_149:\n      swap1\n      0x00\n      mstore\n      keccak256(0x00, 0x20)\n      swap1\n      0x06\n      mul\n      add\n        /* \"tachk1 (1).sol\":3619:3636  tachki[i].timeToD */\n      0x05\n      add\n      sload\n        /* \"tachk1 (1).sol\":3598:3604  tachki */\n      0x00\n        /* \"tachk1 (1).sol\":3605:3606  i */\n      dup5\n        /* \"tachk1 (1).sol\":3598:3607  tachki[i] */\n      dup2\n      sload\n      dup2\n      lt\n      tag_152\n      jumpi\n      tag_153\n      tag_28\n      jump\t// in\n    tag_153:\n    tag_152:\n      swap1\n      0x00\n      mstore\n      keccak256(0x00, 0x20)\n      swap1\n      0x06\n      mul\n      add\n        /* \"tachk1 (1).sol\":3598:3616  tachki[i].maxSpeed */\n      0x03\n      add\n      sload\n        /* \"tachk1 (1).sol\":3598:3636  tachki[i].maxSpeed * tachki[i].timeToD */\n      tag_155\n      swap2\n      swap1\n      tag_74\n      jump\t// in\n    tag_155:\n        /* \"tachk1 (1).sol\":3597:3675  (tachki[i].maxSpeed * tachki[i].timeToD) /... */\n      tag_156\n      swap2\n      swap1\n      tag_64\n      jump\t// in\n    tag_156:\n        /* \"tachk1 (1).sol\":3544:3550  tachki */\n      0x00\n        /* \"tachk1 (1).sol\":3551:3552  i */\n      dup4\n        /* \"tachk1 (1).sol\":3544:3553  tachki[i] */\n      dup2\n      sload\n      dup2\n      lt\n      tag_157\n      jumpi\n      tag_158\n      tag_28\n      jump\t// in\n    tag_158:\n    tag_157:\n      swap1\n      0x00\n      mstore\n      keccak256(0x00, 0x20)\n      swap1\n      0x06\n      mul\n      add\n        /* \"tachk1 (1).sol\":3544:3562  tachki[i].maxSpeed */\n      0x03\n      add\n      sload\n        /* \"tachk1 (1).sol\":3500:3509  111600000 */\n      0x06a6e180\n        /* \"tachk1 (1).sol\":3500:3562  111600000 /... */\n      tag_160\n      swap2\n      swap1\n      tag_64\n      jump\t// in\n    tag_160:\n        /* \"tachk1 (1).sol\":3500:3675  111600000 /... */\n      tag_161\n      swap2\n      swap1\n      tag_90\n      jump\t// in\n    tag_161:\n        /* \"tachk1 (1).sol\":3475:3675  uint256 calculatedTime = 111600000 /... */\n      swap1\n      pop\n        /* \"tachk1 (1).sol\":3726:3734  bestTime */\n      dup3\n        /* \"tachk1 (1).sol\":3709:3723  calculatedTime */\n      dup2\n        /* \"tachk1 (1).sol\":3709:3734  calculatedTime < bestTime */\n      lt\n        /* \"tachk1 (1).sol\":3705:3879  if (calculatedTime < bestTime) {... */\n      iszero\n      tag_162\n      jumpi\n        /* \"tachk1 (1).sol\":3781:3795  calculatedTime */\n      dup1\n        /* \"tachk1 (1).sol\":3770:3795  bestTime = calculatedTime */\n      swap3\n      pop\n        /* \"tachk1 (1).sol\":3847:3848  i */\n      dup2\n        /* \"tachk1 (1).sol\":3829:3848  bestTachkaIndex = i */\n      swap5\n      pop\n        /* \"tachk1 (1).sol\":3705:3879  if (calculatedTime < bestTime) {... */\n    tag_162:\n        /* \"tachk1 (1).sol\":3445:3905  {... */\n      pop\n        /* \"tachk1 (1).sol\":3415:3905  if (tachki[i].maxSpeed > 100) {... */\n    tag_148:\n        /* \"tachk1 (1).sol\":2984:3927  if (tachki[i].maxSpeed < 100) {... */\n    tag_144:\n        /* \"tachk1 (1).sol\":2533:3945  if (tachki[i].V / tachki[i].fuelConsump >= 31) {... */\n    tag_119:\n        /* \"tachk1 (1).sol\":1218:3959  if (tachki[i].V / tachki[i].fuelConsump < 31) {... */\n    tag_111:\n        /* \"tachk1 (1).sol\":1199:1202  i++ */\n      dup1\n      dup1\n      0x01\n      add\n      swap2\n      pop\n      pop\n        /* \"tachk1 (1).sol\":1160:3969  for (uint256 i = 0; i < tachki.length; i++) {... */\n      jump(tag_54)\n    tag_55:\n      pop\n        /* \"tachk1 (1).sol\":3991:3997  tachki */\n      0x00\n        /* \"tachk1 (1).sol\":3998:4013  bestTachkaIndex */\n      dup4\n        /* \"tachk1 (1).sol\":3991:4014  tachki[bestTachkaIndex] */\n      dup2\n      sload\n      dup2\n      lt\n      tag_163\n      jumpi\n      tag_164\n      tag_28\n      jump\t// in\n    tag_164:\n    tag_163:\n      swap1\n      0x00\n      mstore\n      keccak256(0x00, 0x20)\n      swap1\n      0x06\n      mul\n      add\n        /* \"tachk1 (1).sol\":3978:4014  tachkaInfo = tachki[bestTachkaIndex] */\n      mload(0x40)\n      dup1\n      0xc0\n      add\n      0x40\n      mstore\n      swap1\n      dup2\n      0x00\n      dup3\n      add\n      dup1\n      sload\n      tag_166\n      swap1\n      tag_41\n      jump\t// in\n    tag_166:\n      dup1\n      0x1f\n      add\n      0x20\n      dup1\n      swap2\n      div\n      mul\n      0x20\n      add\n      mload(0x40)\n      swap1\n      dup2\n      add\n      0x40\n      mstore\n      dup1\n      swap3\n      swap2\n      swap1\n      dup2\n      dup2\n      mstore\n      0x20\n      add\n      dup3\n      dup1\n      sload\n      tag_167\n      swap1\n      tag_41\n      jump\t// in\n    tag_167:\n      dup1\n      iszero\n      tag_168\n      jumpi\n      dup1\n      0x1f\n      lt\n      tag_169\n      jumpi\n      0x0100\n      dup1\n      dup4\n      sload\n      div\n      mul\n      dup4\n      mstore\n      swap2\n      0x20\n      add\n      swap2\n      jump(tag_168)\n    tag_169:\n      dup3\n      add\n      swap2\n      swap1\n      0x00\n      mstore\n      keccak256(0x00, 0x20)\n      swap1\n    tag_170:\n      dup2\n      sload\n      dup2\n      mstore\n      swap1\n      0x01\n      add\n      swap1\n      0x20\n      add\n      dup1\n      dup4\n      gt\n      tag_170\n      jumpi\n      dup3\n      swap1\n      sub\n      0x1f\n      and\n      dup3\n      add\n      swap2\n    tag_168:\n      pop\n      pop\n      pop\n      pop\n      pop\n      dup2\n      mstore\n      0x20\n      add\n      0x01\n      dup3\n      add\n      dup1\n      sload\n      tag_171\n      swap1\n      tag_41\n      jump\t// in\n    tag_171:\n      dup1\n      0x1f\n      add\n      0x20\n      dup1\n      swap2\n      div\n      mul\n      0x20\n      add\n      mload(0x40)\n      swap1\n      dup2\n      add\n      0x40\n      mstore\n      dup1\n      swap3\n      swap2\n      swap1\n      dup2\n      dup2\n      mstore\n      0x20\n      add\n      dup3\n      dup1\n      sload\n      tag_172\n      swap1\n      tag_41\n      jump\t// in\n    tag_172:\n      dup1\n      iszero\n      tag_173\n      jumpi\n      dup1\n      0x1f\n      lt\n      tag_174\n      jumpi\n      0x0100\n      dup1\n      dup4\n      sload\n      div\n      mul\n      dup4\n      mstore\n      swap2\n      0x20\n      add\n      swap2\n      jump(tag_173)\n    tag_174:\n      dup3\n      add\n      swap2\n      swap1\n      0x00\n      mstore\n      keccak256(0x00, 0x20)\n      swap1\n    tag_175:\n      dup2\n      sload\n      dup2\n      mstore\n      swap1\n      0x01\n      add\n      swap1\n      0x20\n      add\n      dup1\n      dup4\n      gt\n      tag_175\n      jumpi\n      dup3\n      swap1\n      sub\n      0x1f\n      and\n      dup3\n      add\n      swap2\n    tag_173:\n      pop\n      pop\n      pop\n      pop\n      pop\n      dup2\n      mstore\n      0x20\n      add\n      0x02\n      dup3\n      add\n      sload\n      dup2\n      mstore\n      0x20\n      add\n      0x03\n      dup3\n      add\n      sload\n      dup2\n      mstore\n      0x20\n      add\n      0x04\n      dup3\n      add\n      sload\n      dup2\n      mstore\n      0x20\n      add\n      0x05\n      dup3\n      add\n      sload\n      dup2\n      mstore\n      pop\n      pop\n      swap4\n      pop\n        /* \"tachk1 (1).sol\":1069:4021  {... */\n      pop\n      pop\n        /* \"tachk1 (1).sol\":936:4021  function getTheBestTachkaInfo()... */\n      swap1\n      swap2\n      jump\t// out\n    tag_31:\n      pop\n      dup1\n      sload\n      tag_176\n      swap1\n      tag_41\n      jump\t// in\n    tag_176:\n      0x00\n      dup3\n      sstore\n      dup1\n      0x1f\n      lt\n      tag_178\n      jumpi\n      pop\n      jump(tag_177)\n    tag_178:\n      0x1f\n      add\n      0x20\n      swap1\n      div\n      swap1\n      0x00\n      mstore\n      keccak256(0x00, 0x20)\n      swap1\n      dup2\n      add\n      swap1\n      tag_179\n      swap2\n      swap1\n      tag_180\n      jump\t// in\n    tag_179:\n    tag_177:\n      pop\n      jump\t// out\n    tag_52:\n      mload(0x40)\n      dup1\n      0xc0\n      add\n      0x40\n      mstore\n      dup1\n      0x60\n      dup2\n      mstore\n      0x20\n      add\n      0x60\n      dup2\n      mstore\n      0x20\n      add\n      0x00\n      dup2\n      mstore\n      0x20\n      add\n      0x00\n      dup2\n      mstore\n      0x20\n      add\n      0x00\n      dup2\n      mstore\n      0x20\n      add\n      0x00\n      dup2\n      mstore\n      pop\n      swap1\n      jump\t// out\n    tag_180:\n    tag_181:\n      dup1\n      dup3\n      gt\n      iszero\n      tag_182\n      jumpi\n      0x00\n      dup2\n      0x00\n      swap1\n      sstore\n      pop\n      0x01\n      add\n      jump(tag_181)\n    tag_182:\n      pop\n      swap1\n      jump\t// out\n        /* \"#utility.yul\":7:82   */\n    tag_183:\n        /* \"#utility.yul\":40:46   */\n      0x00\n        /* \"#utility.yul\":73:75   */\n      0x40\n        /* \"#utility.yul\":67:76   */\n      mload\n        /* \"#utility.yul\":57:76   */\n      swap1\n      pop\n        /* \"#utility.yul\":7:82   */\n      swap1\n      jump\t// out\n        /* \"#utility.yul\":88:205   */\n    tag_184:\n        /* \"#utility.yul\":197:198   */\n      0x00\n        /* \"#utility.yul\":194:195   */\n      dup1\n        /* \"#utility.yul\":187:199   */\n      revert\n        /* \"#utility.yul\":211:328   */\n    tag_185:\n        /* \"#utility.yul\":320:321   */\n      0x00\n        /* \"#utility.yul\":317:318   */\n      dup1\n        /* \"#utility.yul\":310:322   */\n      revert\n        /* \"#utility.yul\":334:411   */\n    tag_186:\n        /* \"#utility.yul\":371:378   */\n      0x00\n        /* \"#utility.yul\":400:405   */\n      dup2\n        /* \"#utility.yul\":389:405   */\n      swap1\n      pop\n        /* \"#utility.yul\":334:411   */\n      swap2\n      swap1\n      pop\n      jump\t// out\n        /* \"#utility.yul\":417:539   */\n    tag_187:\n        /* \"#utility.yul\":490:514   */\n      tag_232\n        /* \"#utility.yul\":508:513   */\n      dup2\n        /* \"#utility.yul\":490:514   */\n      tag_186\n      jump\t// in\n    tag_232:\n        /* \"#utility.yul\":483:488   */\n      dup2\n        /* \"#utility.yul\":480:515   */\n      eq\n        /* \"#utility.yul\":470:533   */\n      tag_233\n      jumpi\n        /* \"#utility.yul\":529:530   */\n      0x00\n        /* \"#utility.yul\":526:527   */\n      dup1\n        /* \"#utility.yul\":519:531   */\n      revert\n        /* \"#utility.yul\":470:533   */\n    tag_233:\n        /* \"#utility.yul\":417:539   */\n      pop\n      jump\t// out\n        /* \"#utility.yul\":545:684   */\n    tag_188:\n        /* \"#utility.yul\":591:596   */\n      0x00\n        /* \"#utility.yul\":629:635   */\n      dup2\n        /* \"#utility.yul\":616:636   */\n      calldataload\n        /* \"#utility.yul\":607:636   */\n      swap1\n      pop\n        /* \"#utility.yul\":645:678   */\n      tag_235\n        /* \"#utility.yul\":672:677   */\n      dup2\n        /* \"#utility.yul\":645:678   */\n      tag_187\n      jump\t// in\n    tag_235:\n        /* \"#utility.yul\":545:684   */\n      swap3\n      swap2\n      pop\n      pop\n      jump\t// out\n        /* \"#utility.yul\":690:1019   */\n    tag_9:\n        /* \"#utility.yul\":749:755   */\n      0x00\n        /* \"#utility.yul\":798:800   */\n      0x20\n        /* \"#utility.yul\":786:795   */\n      dup3\n        /* \"#utility.yul\":777:784   */\n      dup5\n        /* \"#utility.yul\":773:796   */\n      sub\n        /* \"#utility.yul\":769:801   */\n      slt\n        /* \"#utility.yul\":766:885   */\n      iszero\n      tag_237\n      jumpi\n        /* \"#utility.yul\":804:883   */\n      tag_238\n      tag_184\n      jump\t// in\n    tag_238:\n        /* \"#utility.yul\":766:885   */\n    tag_237:\n        /* \"#utility.yul\":924:925   */\n      0x00\n        /* \"#utility.yul\":949:1002   */\n      tag_239\n        /* \"#utility.yul\":994:1001   */\n      dup5\n        /* \"#utility.yul\":985:991   */\n      dup3\n        /* \"#utility.yul\":974:983   */\n      dup6\n        /* \"#utility.yul\":970:992   */\n      add\n        /* \"#utility.yul\":949:1002   */\n      tag_188\n      jump\t// in\n    tag_239:\n        /* \"#utility.yul\":939:1002   */\n      swap2\n      pop\n        /* \"#utility.yul\":895:1012   */\n      pop\n        /* \"#utility.yul\":690:1019   */\n      swap3\n      swap2\n      pop\n      pop\n      jump\t// out\n        /* \"#utility.yul\":1025:1142   */\n    tag_189:\n        /* \"#utility.yul\":1134:1135   */\n      0x00\n        /* \"#utility.yul\":1131:1132   */\n      dup1\n        /* \"#utility.yul\":1124:1136   */\n      revert\n        /* \"#utility.yul\":1148:1265   */\n    tag_190:\n        /* \"#utility.yul\":1257:1258   */\n      0x00\n        /* \"#utility.yul\":1254:1255   */\n      dup1\n        /* \"#utility.yul\":1247:1259   */\n      revert\n        /* \"#utility.yul\":1271:1373   */\n    tag_191:\n        /* \"#utility.yul\":1312:1318   */\n      0x00\n        /* \"#utility.yul\":1363:1365   */\n      0x1f\n        /* \"#utility.yul\":1359:1366   */\n      not\n        /* \"#utility.yul\":1354:1356   */\n      0x1f\n        /* \"#utility.yul\":1347:1352   */\n      dup4\n        /* \"#utility.yul\":1343:1357   */\n      add\n        /* \"#utility.yul\":1339:1367   */\n      and\n        /* \"#utility.yul\":1329:1367   */\n      swap1\n      pop\n        /* \"#utility.yul\":1271:1373   */\n      swap2\n      swap1\n      pop\n      jump\t// out\n        /* \"#utility.yul\":1379:1559   */\n    tag_192:\n        /* \"#utility.yul\":1427:1504   */\n      0x4e487b7100000000000000000000000000000000000000000000000000000000\n        /* \"#utility.yul\":1424:1425   */\n      0x00\n        /* \"#utility.yul\":1417:1505   */\n      mstore\n        /* \"#utility.yul\":1524:1528   */\n      0x41\n        /* \"#utility.yul\":1521:1522   */\n      0x04\n        /* \"#utility.yul\":1514:1529   */\n      mstore\n        /* \"#utility.yul\":1548:1552   */\n      0x24\n        /* \"#utility.yul\":1545:1546   */\n      0x00\n        /* \"#utility.yul\":1538:1553   */\n      revert\n        /* \"#utility.yul\":1565:1846   */\n    tag_193:\n        /* \"#utility.yul\":1648:1675   */\n      tag_245\n        /* \"#utility.yul\":1670:1674   */\n      dup3\n        /* \"#utility.yul\":1648:1675   */\n      tag_191\n      jump\t// in\n    tag_245:\n        /* \"#utility.yul\":1640:1646   */\n      dup2\n        /* \"#utility.yul\":1636:1676   */\n      add\n        /* \"#utility.yul\":1778:1784   */\n      dup2\n        /* \"#utility.yul\":1766:1776   */\n      dup2\n        /* \"#utility.yul\":1763:1785   */\n      lt\n        /* \"#utility.yul\":1742:1760   */\n      0xffffffffffffffff\n        /* \"#utility.yul\":1730:1740   */\n      dup3\n        /* \"#utility.yul\":1727:1761   */\n      gt\n        /* \"#utility.yul\":1724:1786   */\n      or\n        /* \"#utility.yul\":1721:1809   */\n      iszero\n      tag_246\n      jumpi\n        /* \"#utility.yul\":1789:1807   */\n      tag_247\n      tag_192\n      jump\t// in\n    tag_247:\n        /* \"#utility.yul\":1721:1809   */\n    tag_246:\n        /* \"#utility.yul\":1829:1839   */\n      dup1\n        /* \"#utility.yul\":1825:1827   */\n      0x40\n        /* \"#utility.yul\":1818:1840   */\n      mstore\n        /* \"#utility.yul\":1608:1846   */\n      pop\n        /* \"#utility.yul\":1565:1846   */\n      pop\n      pop\n      jump\t// out\n        /* \"#utility.yul\":1852:1981   */\n    tag_194:\n        /* \"#utility.yul\":1886:1892   */\n      0x00\n        /* \"#utility.yul\":1913:1933   */\n      tag_249\n      tag_183\n      jump\t// in\n    tag_249:\n        /* \"#utility.yul\":1903:1933   */\n      swap1\n      pop\n        /* \"#utility.yul\":1942:1975   */\n      tag_250\n        /* \"#utility.yul\":1970:1974   */\n      dup3\n        /* \"#utility.yul\":1962:1968   */\n      dup3\n        /* \"#utility.yul\":1942:1975   */\n      tag_193\n      jump\t// in\n    tag_250:\n        /* \"#utility.yul\":1852:1981   */\n      swap2\n      swap1\n      pop\n      jump\t// out\n        /* \"#utility.yul\":1987:2295   */\n    tag_195:\n        /* \"#utility.yul\":2049:2053   */\n      0x00\n        /* \"#utility.yul\":2139:2157   */\n      0xffffffffffffffff\n        /* \"#utility.yul\":2131:2137   */\n      dup3\n        /* \"#utility.yul\":2128:2158   */\n      gt\n        /* \"#utility.yul\":2125:2181   */\n      iszero\n      tag_252\n      jumpi\n        /* \"#utility.yul\":2161:2179   */\n      tag_253\n      tag_192\n      jump\t// in\n    tag_253:\n        /* \"#utility.yul\":2125:2181   */\n    tag_252:\n        /* \"#utility.yul\":2199:2228   */\n      tag_254\n        /* \"#utility.yul\":2221:2227   */\n      dup3\n        /* \"#utility.yul\":2199:2228   */\n      tag_191\n      jump\t// in\n    tag_254:\n        /* \"#utility.yul\":2191:2228   */\n      swap1\n      pop\n        /* \"#utility.yul\":2283:2287   */\n      0x20\n        /* \"#utility.yul\":2277:2281   */\n      dup2\n        /* \"#utility.yul\":2273:2288   */\n      add\n        /* \"#utility.yul\":2265:2288   */\n      swap1\n      pop\n        /* \"#utility.yul\":1987:2295   */\n      swap2\n      swap1\n      pop\n      jump\t// out\n        /* \"#utility.yul\":2301:2449   */\n    tag_196:\n        /* \"#utility.yul\":2399:2405   */\n      dup3\n        /* \"#utility.yul\":2394:2397   */\n      dup2\n        /* \"#utility.yul\":2389:2392   */\n      dup4\n        /* \"#utility.yul\":2376:2406   */\n      calldatacopy\n        /* \"#utility.yul\":2440:2441   */\n      0x00\n        /* \"#utility.yul\":2431:2437   */\n      dup4\n        /* \"#utility.yul\":2426:2429   */\n      dup4\n        /* \"#utility.yul\":2422:2438   */\n      add\n        /* \"#utility.yul\":2415:2442   */\n      mstore\n        /* \"#utility.yul\":2301:2449   */\n      pop\n      pop\n      pop\n      jump\t// out\n        /* \"#utility.yul\":2455:2880   */\n    tag_197:\n        /* \"#utility.yul\":2533:2538   */\n      0x00\n        /* \"#utility.yul\":2558:2624   */\n      tag_257\n        /* \"#utility.yul\":2574:2623   */\n      tag_258\n        /* \"#utility.yul\":2616:2622   */\n      dup5\n        /* \"#utility.yul\":2574:2623   */\n      tag_195\n      jump\t// in\n    tag_258:\n        /* \"#utility.yul\":2558:2624   */\n      tag_194\n      jump\t// in\n    tag_257:\n        /* \"#utility.yul\":2549:2624   */\n      swap1\n      pop\n        /* \"#utility.yul\":2647:2653   */\n      dup3\n        /* \"#utility.yul\":2640:2645   */\n      dup2\n        /* \"#utility.yul\":2633:2654   */\n      mstore\n        /* \"#utility.yul\":2685:2689   */\n      0x20\n        /* \"#utility.yul\":2678:2683   */\n      dup2\n        /* \"#utility.yul\":2674:2690   */\n      add\n        /* \"#utility.yul\":2723:2726   */\n      dup5\n        /* \"#utility.yul\":2714:2720   */\n      dup5\n        /* \"#utility.yul\":2709:2712   */\n      dup5\n        /* \"#utility.yul\":2705:2721   */\n      add\n        /* \"#utility.yul\":2702:2727   */\n      gt\n        /* \"#utility.yul\":2699:2811   */\n      iszero\n      tag_259\n      jumpi\n        /* \"#utility.yul\":2730:2809   */\n      tag_260\n      tag_190\n      jump\t// in\n    tag_260:\n        /* \"#utility.yul\":2699:2811   */\n    tag_259:\n        /* \"#utility.yul\":2820:2874   */\n      tag_261\n        /* \"#utility.yul\":2867:2873   */\n      dup5\n        /* \"#utility.yul\":2862:2865   */\n      dup3\n        /* \"#utility.yul\":2857:2860   */\n      dup6\n        /* \"#utility.yul\":2820:2874   */\n      tag_196\n      jump\t// in\n    tag_261:\n        /* \"#utility.yul\":2539:2880   */\n      pop\n        /* \"#utility.yul\":2455:2880   */\n      swap4\n      swap3\n      pop\n      pop\n      pop\n      jump\t// out\n        /* \"#utility.yul\":2900:3240   */\n    tag_198:\n        /* \"#utility.yul\":2956:2961   */\n      0x00\n        /* \"#utility.yul\":3005:3008   */\n      dup3\n        /* \"#utility.yul\":2998:3002   */\n      0x1f\n        /* \"#utility.yul\":2990:2996   */\n      dup4\n        /* \"#utility.yul\":2986:3003   */\n      add\n        /* \"#utility.yul\":2982:3009   */\n      slt\n        /* \"#utility.yul\":2972:3094   */\n      tag_263\n      jumpi\n        /* \"#utility.yul\":3013:3092   */\n      tag_264\n      tag_189\n      jump\t// in\n    tag_264:\n        /* \"#utility.yul\":2972:3094   */\n    tag_263:\n        /* \"#utility.yul\":3130:3136   */\n      dup2\n        /* \"#utility.yul\":3117:3137   */\n      calldataload\n        /* \"#utility.yul\":3155:3234   */\n      tag_265\n        /* \"#utility.yul\":3230:3233   */\n      dup5\n        /* \"#utility.yul\":3222:3228   */\n      dup3\n        /* \"#utility.yul\":3215:3219   */\n      0x20\n        /* \"#utility.yul\":3207:3213   */\n      dup7\n        /* \"#utility.yul\":3203:3220   */\n      add\n        /* \"#utility.yul\":3155:3234   */\n      tag_197\n      jump\t// in\n    tag_265:\n        /* \"#utility.yul\":3146:3234   */\n      swap2\n      pop\n        /* \"#utility.yul\":2962:3240   */\n      pop\n        /* \"#utility.yul\":2900:3240   */\n      swap3\n      swap2\n      pop\n      pop\n      jump\t// out\n        /* \"#utility.yul\":3246:4663   */\n    tag_13:\n        /* \"#utility.yul\":3370:3376   */\n      0x00\n        /* \"#utility.yul\":3378:3384   */\n      dup1\n        /* \"#utility.yul\":3386:3392   */\n      0x00\n        /* \"#utility.yul\":3394:3400   */\n      dup1\n        /* \"#utility.yul\":3402:3408   */\n      0x00\n        /* \"#utility.yul\":3410:3416   */\n      dup1\n        /* \"#utility.yul\":3459:3462   */\n      0xc0\n        /* \"#utility.yul\":3447:3456   */\n      dup8\n        /* \"#utility.yul\":3438:3445   */\n      dup10\n        /* \"#utility.yul\":3434:3457   */\n      sub\n        /* \"#utility.yul\":3430:3463   */\n      slt\n        /* \"#utility.yul\":3427:3547   */\n      iszero\n      tag_267\n      jumpi\n        /* \"#utility.yul\":3466:3545   */\n      tag_268\n      tag_184\n      jump\t// in\n    tag_268:\n        /* \"#utility.yul\":3427:3547   */\n    tag_267:\n        /* \"#utility.yul\":3614:3615   */\n      0x00\n        /* \"#utility.yul\":3603:3612   */\n      dup8\n        /* \"#utility.yul\":3599:3616   */\n      add\n        /* \"#utility.yul\":3586:3617   */\n      calldataload\n        /* \"#utility.yul\":3644:3662   */\n      0xffffffffffffffff\n        /* \"#utility.yul\":3636:3642   */\n      dup2\n        /* \"#utility.yul\":3633:3663   */\n      gt\n        /* \"#utility.yul\":3630:3747   */\n      iszero\n      tag_269\n      jumpi\n        /* \"#utility.yul\":3666:3745   */\n      tag_270\n      tag_185\n      jump\t// in\n    tag_270:\n        /* \"#utility.yul\":3630:3747   */\n    tag_269:\n        /* \"#utility.yul\":3771:3834   */\n      tag_271\n        /* \"#utility.yul\":3826:3833   */\n      dup10\n        /* \"#utility.yul\":3817:3823   */\n      dup3\n        /* \"#utility.yul\":3806:3815   */\n      dup11\n        /* \"#utility.yul\":3802:3824   */\n      add\n        /* \"#utility.yul\":3771:3834   */\n      tag_198\n      jump\t// in\n    tag_271:\n        /* \"#utility.yul\":3761:3834   */\n      swap7\n      pop\n        /* \"#utility.yul\":3557:3844   */\n      pop\n        /* \"#utility.yul\":3911:3913   */\n      0x20\n        /* \"#utility.yul\":3900:3909   */\n      dup8\n        /* \"#utility.yul\":3896:3914   */\n      add\n        /* \"#utility.yul\":3883:3915   */\n      calldataload\n        /* \"#utility.yul\":3942:3960   */\n      0xffffffffffffffff\n        /* \"#utility.yul\":3934:3940   */\n      dup2\n        /* \"#utility.yul\":3931:3961   */\n      gt\n        /* \"#utility.yul\":3928:4045   */\n      iszero\n      tag_272\n      jumpi\n        /* \"#utility.yul\":3964:4043   */\n      tag_273\n      tag_185\n      jump\t// in\n    tag_273:\n        /* \"#utility.yul\":3928:4045   */\n    tag_272:\n        /* \"#utility.yul\":4069:4132   */\n      tag_274\n        /* \"#utility.yul\":4124:4131   */\n      dup10\n        /* \"#utility.yul\":4115:4121   */\n      dup3\n        /* \"#utility.yul\":4104:4113   */\n      dup11\n        /* \"#utility.yul\":4100:4122   */\n      add\n        /* \"#utility.yul\":4069:4132   */\n      tag_198\n      jump\t// in\n    tag_274:\n        /* \"#utility.yul\":4059:4132   */\n      swap6\n      pop\n        /* \"#utility.yul\":3854:4142   */\n      pop\n        /* \"#utility.yul\":4181:4183   */\n      0x40\n        /* \"#utility.yul\":4207:4260   */\n      tag_275\n        /* \"#utility.yul\":4252:4259   */\n      dup10\n        /* \"#utility.yul\":4243:4249   */\n      dup3\n        /* \"#utility.yul\":4232:4241   */\n      dup11\n        /* \"#utility.yul\":4228:4250   */\n      add\n        /* \"#utility.yul\":4207:4260   */\n      tag_188\n      jump\t// in\n    tag_275:\n        /* \"#utility.yul\":4197:4260   */\n      swap5\n      pop\n        /* \"#utility.yul\":4152:4270   */\n      pop\n        /* \"#utility.yul\":4309:4311   */\n      0x60\n        /* \"#utility.yul\":4335:4388   */\n      tag_276\n        /* \"#utility.yul\":4380:4387   */\n      dup10\n        /* \"#utility.yul\":4371:4377   */\n      dup3\n        /* \"#utility.yul\":4360:4369   */\n      dup11\n        /* \"#utility.yul\":4356:4378   */\n      add\n        /* \"#utility.yul\":4335:4388   */\n      tag_188\n      jump\t// in\n    tag_276:\n        /* \"#utility.yul\":4325:4388   */\n      swap4\n      pop\n        /* \"#utility.yul\":4280:4398   */\n      pop\n        /* \"#utility.yul\":4437:4440   */\n      0x80\n        /* \"#utility.yul\":4464:4517   */\n      tag_277\n        /* \"#utility.yul\":4509:4516   */\n      dup10\n        /* \"#utility.yul\":4500:4506   */\n      dup3\n        /* \"#utility.yul\":4489:4498   */\n      dup11\n        /* \"#utility.yul\":4485:4507   */\n      add\n        /* \"#utility.yul\":4464:4517   */\n      tag_188\n      jump\t// in\n    tag_277:\n        /* \"#utility.yul\":4454:4517   */\n      swap3\n      pop\n        /* \"#utility.yul\":4408:4527   */\n      pop\n        /* \"#utility.yul\":4566:4569   */\n      0xa0\n        /* \"#utility.yul\":4593:4646   */\n      tag_278\n        /* \"#utility.yul\":4638:4645   */\n      dup10\n        /* \"#utility.yul\":4629:4635   */\n      dup3\n        /* \"#utility.yul\":4618:4627   */\n      dup11\n        /* \"#utility.yul\":4614:4636   */\n      add\n        /* \"#utility.yul\":4593:4646   */\n      tag_188\n      jump\t// in\n    tag_278:\n        /* \"#utility.yul\":4583:4646   */\n      swap2\n      pop\n        /* \"#utility.yul\":4537:4656   */\n      pop\n        /* \"#utility.yul\":3246:4663   */\n      swap3\n      swap6\n      pop\n      swap3\n      swap6\n      pop\n      swap3\n      swap6\n      jump\t// out\n        /* \"#utility.yul\":4669:4768   */\n    tag_199:\n        /* \"#utility.yul\":4721:4727   */\n      0x00\n        /* \"#utility.yul\":4755:4760   */\n      dup2\n        /* \"#utility.yul\":4749:4761   */\n      mload\n        /* \"#utility.yul\":4739:4761   */\n      swap1\n      pop\n        /* \"#utility.yul\":4669:4768   */\n      swap2\n      swap1\n      pop\n      jump\t// out\n        /* \"#utility.yul\":4774:4943   */\n    tag_200:\n        /* \"#utility.yul\":4858:4869   */\n      0x00\n        /* \"#utility.yul\":4892:4898   */\n      dup3\n        /* \"#utility.yul\":4887:4890   */\n      dup3\n        /* \"#utility.yul\":4880:4899   */\n      mstore\n        /* \"#utility.yul\":4932:4936   */\n      0x20\n        /* \"#utility.yul\":4927:4930   */\n      dup3\n        /* \"#utility.yul\":4923:4937   */\n      add\n        /* \"#utility.yul\":4908:4937   */\n      swap1\n      pop\n        /* \"#utility.yul\":4774:4943   */\n      swap3\n      swap2\n      pop\n      pop\n      jump\t// out\n        /* \"#utility.yul\":4949:5088   */\n    tag_201:\n        /* \"#utility.yul\":5038:5044   */\n      dup3\n        /* \"#utility.yul\":5033:5036   */\n      dup2\n        /* \"#utility.yul\":5028:5031   */\n      dup4\n        /* \"#utility.yul\":5022:5045   */\n      mcopy\n        /* \"#utility.yul\":5079:5080   */\n      0x00\n        /* \"#utility.yul\":5070:5076   */\n      dup4\n        /* \"#utility.yul\":5065:5068   */\n      dup4\n        /* \"#utility.yul\":5061:5077   */\n      add\n        /* \"#utility.yul\":5054:5081   */\n      mstore\n        /* \"#utility.yul\":4949:5088   */\n      pop\n      pop\n      pop\n      jump\t// out\n        /* \"#utility.yul\":5094:5471   */\n    tag_202:\n        /* \"#utility.yul\":5182:5185   */\n      0x00\n        /* \"#utility.yul\":5210:5249   */\n      tag_283\n        /* \"#utility.yul\":5243:5248   */\n      dup3\n        /* \"#utility.yul\":5210:5249   */\n      tag_199\n      jump\t// in\n    tag_283:\n        /* \"#utility.yul\":5265:5336   */\n      tag_284\n        /* \"#utility.yul\":5329:5335   */\n      dup2\n        /* \"#utility.yul\":5324:5327   */\n      dup6\n        /* \"#utility.yul\":5265:5336   */\n      tag_200\n      jump\t// in\n    tag_284:\n        /* \"#utility.yul\":5258:5336   */\n      swap4\n      pop\n        /* \"#utility.yul\":5345:5410   */\n      tag_285\n        /* \"#utility.yul\":5403:5409   */\n      dup2\n        /* \"#utility.yul\":5398:5401   */\n      dup6\n        /* \"#utility.yul\":5391:5395   */\n      0x20\n        /* \"#utility.yul\":5384:5389   */\n      dup7\n        /* \"#utility.yul\":5380:5396   */\n      add\n        /* \"#utility.yul\":5345:5410   */\n      tag_201\n      jump\t// in\n    tag_285:\n        /* \"#utility.yul\":5435:5464   */\n      tag_286\n        /* \"#utility.yul\":5457:5463   */\n      dup2\n        /* \"#utility.yul\":5435:5464   */\n      tag_191\n      jump\t// in\n    tag_286:\n        /* \"#utility.yul\":5430:5433   */\n      dup5\n        /* \"#utility.yul\":5426:5465   */\n      add\n        /* \"#utility.yul\":5419:5465   */\n      swap2\n      pop\n        /* \"#utility.yul\":5186:5471   */\n      pop\n        /* \"#utility.yul\":5094:5471   */\n      swap3\n      swap2\n      pop\n      pop\n      jump\t// out\n        /* \"#utility.yul\":5477:5595   */\n    tag_203:\n        /* \"#utility.yul\":5564:5588   */\n      tag_288\n        /* \"#utility.yul\":5582:5587   */\n      dup2\n        /* \"#utility.yul\":5564:5588   */\n      tag_186\n      jump\t// in\n    tag_288:\n        /* \"#utility.yul\":5559:5562   */\n      dup3\n        /* \"#utility.yul\":5552:5589   */\n      mstore\n        /* \"#utility.yul\":5477:5595   */\n      pop\n      pop\n      jump\t// out\n        /* \"#utility.yul\":5601:6558   */\n    tag_19:\n        /* \"#utility.yul\":5874:5878   */\n      0x00\n        /* \"#utility.yul\":5912:5915   */\n      0xc0\n        /* \"#utility.yul\":5901:5910   */\n      dup3\n        /* \"#utility.yul\":5897:5916   */\n      add\n        /* \"#utility.yul\":5889:5916   */\n      swap1\n      pop\n        /* \"#utility.yul\":5962:5971   */\n      dup2\n        /* \"#utility.yul\":5956:5960   */\n      dup2\n        /* \"#utility.yul\":5952:5972   */\n      sub\n        /* \"#utility.yul\":5948:5949   */\n      0x00\n        /* \"#utility.yul\":5937:5946   */\n      dup4\n        /* \"#utility.yul\":5933:5950   */\n      add\n        /* \"#utility.yul\":5926:5973   */\n      mstore\n        /* \"#utility.yul\":5990:6068   */\n      tag_290\n        /* \"#utility.yul\":6063:6067   */\n      dup2\n        /* \"#utility.yul\":6054:6060   */\n      dup10\n        /* \"#utility.yul\":5990:6068   */\n      tag_202\n      jump\t// in\n    tag_290:\n        /* \"#utility.yul\":5982:6068   */\n      swap1\n      pop\n        /* \"#utility.yul\":6115:6124   */\n      dup2\n        /* \"#utility.yul\":6109:6113   */\n      dup2\n        /* \"#utility.yul\":6105:6125   */\n      sub\n        /* \"#utility.yul\":6100:6102   */\n      0x20\n        /* \"#utility.yul\":6089:6098   */\n      dup4\n        /* \"#utility.yul\":6085:6103   */\n      add\n        /* \"#utility.yul\":6078:6126   */\n      mstore\n        /* \"#utility.yul\":6143:6221   */\n      tag_291\n        /* \"#utility.yul\":6216:6220   */\n      dup2\n        /* \"#utility.yul\":6207:6213   */\n      dup9\n        /* \"#utility.yul\":6143:6221   */\n      tag_202\n      jump\t// in\n    tag_291:\n        /* \"#utility.yul\":6135:6221   */\n      swap1\n      pop\n        /* \"#utility.yul\":6231:6303   */\n      tag_292\n        /* \"#utility.yul\":6299:6301   */\n      0x40\n        /* \"#utility.yul\":6288:6297   */\n      dup4\n        /* \"#utility.yul\":6284:6302   */\n      add\n        /* \"#utility.yul\":6275:6281   */\n      dup8\n        /* \"#utility.yul\":6231:6303   */\n      tag_203\n      jump\t// in\n    tag_292:\n        /* \"#utility.yul\":6313:6385   */\n      tag_293\n        /* \"#utility.yul\":6381:6383   */\n      0x60\n        /* \"#utility.yul\":6370:6379   */\n      dup4\n        /* \"#utility.yul\":6366:6384   */\n      add\n        /* \"#utility.yul\":6357:6363   */\n      dup7\n        /* \"#utility.yul\":6313:6385   */\n      tag_203\n      jump\t// in\n    tag_293:\n        /* \"#utility.yul\":6395:6468   */\n      tag_294\n        /* \"#utility.yul\":6463:6466   */\n      0x80\n        /* \"#utility.yul\":6452:6461   */\n      dup4\n        /* \"#utility.yul\":6448:6467   */\n      add\n        /* \"#utility.yul\":6439:6445   */\n      dup6\n        /* \"#utility.yul\":6395:6468   */\n      tag_203\n      jump\t// in\n    tag_294:\n        /* \"#utility.yul\":6478:6551   */\n      tag_295\n        /* \"#utility.yul\":6546:6549   */\n      0xa0\n        /* \"#utility.yul\":6535:6544   */\n      dup4\n        /* \"#utility.yul\":6531:6550   */\n      add\n        /* \"#utility.yul\":6522:6528   */\n      dup5\n        /* \"#utility.yul\":6478:6551   */\n      tag_203\n      jump\t// in\n    tag_295:\n        /* \"#utility.yul\":5601:6558   */\n      swap8\n      swap7\n      pop\n      pop\n      pop\n      pop\n      pop\n      pop\n      pop\n      jump\t// out\n        /* \"#utility.yul\":6564:6723   */\n    tag_204:\n        /* \"#utility.yul\":6638:6649   */\n      0x00\n        /* \"#utility.yul\":6672:6678   */\n      dup3\n        /* \"#utility.yul\":6667:6670   */\n      dup3\n        /* \"#utility.yul\":6660:6679   */\n      mstore\n        /* \"#utility.yul\":6712:6716   */\n      0x20\n        /* \"#utility.yul\":6707:6710   */\n      dup3\n        /* \"#utility.yul\":6703:6717   */\n      add\n        /* \"#utility.yul\":6688:6717   */\n      swap1\n      pop\n        /* \"#utility.yul\":6564:6723   */\n      swap3\n      swap2\n      pop\n      pop\n      jump\t// out\n        /* \"#utility.yul\":6729:7086   */\n    tag_205:\n        /* \"#utility.yul\":6807:6810   */\n      0x00\n        /* \"#utility.yul\":6835:6874   */\n      tag_298\n        /* \"#utility.yul\":6868:6873   */\n      dup3\n        /* \"#utility.yul\":6835:6874   */\n      tag_199\n      jump\t// in\n    tag_298:\n        /* \"#utility.yul\":6890:6951   */\n      tag_299\n        /* \"#utility.yul\":6944:6950   */\n      dup2\n        /* \"#utility.yul\":6939:6942   */\n      dup6\n        /* \"#utility.yul\":6890:6951   */\n      tag_204\n      jump\t// in\n    tag_299:\n        /* \"#utility.yul\":6883:6951   */\n      swap4\n      pop\n        /* \"#utility.yul\":6960:7025   */\n      tag_300\n        /* \"#utility.yul\":7018:7024   */\n      dup2\n        /* \"#utility.yul\":7013:7016   */\n      dup6\n        /* \"#utility.yul\":7006:7010   */\n      0x20\n        /* \"#utility.yul\":6999:7004   */\n      dup7\n        /* \"#utility.yul\":6995:7011   */\n      add\n        /* \"#utility.yul\":6960:7025   */\n      tag_201\n      jump\t// in\n    tag_300:\n        /* \"#utility.yul\":7050:7079   */\n      tag_301\n        /* \"#utility.yul\":7072:7078   */\n      dup2\n        /* \"#utility.yul\":7050:7079   */\n      tag_191\n      jump\t// in\n    tag_301:\n        /* \"#utility.yul\":7045:7048   */\n      dup5\n        /* \"#utility.yul\":7041:7080   */\n      add\n        /* \"#utility.yul\":7034:7080   */\n      swap2\n      pop\n        /* \"#utility.yul\":6811:7086   */\n      pop\n        /* \"#utility.yul\":6729:7086   */\n      swap3\n      swap2\n      pop\n      pop\n      jump\t// out\n        /* \"#utility.yul\":7092:7200   */\n    tag_206:\n        /* \"#utility.yul\":7169:7193   */\n      tag_303\n        /* \"#utility.yul\":7187:7192   */\n      dup2\n        /* \"#utility.yul\":7169:7193   */\n      tag_186\n      jump\t// in\n    tag_303:\n        /* \"#utility.yul\":7164:7167   */\n      dup3\n        /* \"#utility.yul\":7157:7194   */\n      mstore\n        /* \"#utility.yul\":7092:7200   */\n      pop\n      pop\n      jump\t// out\n        /* \"#utility.yul\":7270:8652   */\n    tag_207:\n        /* \"#utility.yul\":7385:7388   */\n      0x00\n        /* \"#utility.yul\":7421:7425   */\n      0xc0\n        /* \"#utility.yul\":7416:7419   */\n      dup4\n        /* \"#utility.yul\":7412:7426   */\n      add\n        /* \"#utility.yul\":7509:7513   */\n      0x00\n        /* \"#utility.yul\":7502:7507   */\n      dup4\n        /* \"#utility.yul\":7498:7514   */\n      add\n        /* \"#utility.yul\":7492:7515   */\n      mload\n        /* \"#utility.yul\":7562:7565   */\n      dup5\n        /* \"#utility.yul\":7556:7560   */\n      dup3\n        /* \"#utility.yul\":7552:7566   */\n      sub\n        /* \"#utility.yul\":7545:7549   */\n      0x00\n        /* \"#utility.yul\":7540:7543   */\n      dup7\n        /* \"#utility.yul\":7536:7550   */\n      add\n        /* \"#utility.yul\":7529:7567   */\n      mstore\n        /* \"#utility.yul\":7588:7661   */\n      tag_305\n        /* \"#utility.yul\":7656:7660   */\n      dup3\n        /* \"#utility.yul\":7642:7654   */\n      dup3\n        /* \"#utility.yul\":7588:7661   */\n      tag_205\n      jump\t// in\n    tag_305:\n        /* \"#utility.yul\":7580:7661   */\n      swap2\n      pop\n        /* \"#utility.yul\":7436:7672   */\n      pop\n        /* \"#utility.yul\":7755:7759   */\n      0x20\n        /* \"#utility.yul\":7748:7753   */\n      dup4\n        /* \"#utility.yul\":7744:7760   */\n      add\n        /* \"#utility.yul\":7738:7761   */\n      mload\n        /* \"#utility.yul\":7808:7811   */\n      dup5\n        /* \"#utility.yul\":7802:7806   */\n      dup3\n        /* \"#utility.yul\":7798:7812   */\n      sub\n        /* \"#utility.yul\":7791:7795   */\n      0x20\n        /* \"#utility.yul\":7786:7789   */\n      dup7\n        /* \"#utility.yul\":7782:7796   */\n      add\n        /* \"#utility.yul\":7775:7813   */\n      mstore\n        /* \"#utility.yul\":7834:7907   */\n      tag_306\n        /* \"#utility.yul\":7902:7906   */\n      dup3\n        /* \"#utility.yul\":7888:7900   */\n      dup3\n        /* \"#utility.yul\":7834:7907   */\n      tag_205\n      jump\t// in\n    tag_306:\n        /* \"#utility.yul\":7826:7907   */\n      swap2\n      pop\n        /* \"#utility.yul\":7682:7918   */\n      pop\n        /* \"#utility.yul\":7997:8001   */\n      0x40\n        /* \"#utility.yul\":7990:7995   */\n      dup4\n        /* \"#utility.yul\":7986:8002   */\n      add\n        /* \"#utility.yul\":7980:8003   */\n      mload\n        /* \"#utility.yul\":8016:8079   */\n      tag_307\n        /* \"#utility.yul\":8073:8077   */\n      0x40\n        /* \"#utility.yul\":8068:8071   */\n      dup7\n        /* \"#utility.yul\":8064:8078   */\n      add\n        /* \"#utility.yul\":8050:8062   */\n      dup3\n        /* \"#utility.yul\":8016:8079   */\n      tag_206\n      jump\t// in\n    tag_307:\n        /* \"#utility.yul\":7928:8089   */\n      pop\n        /* \"#utility.yul\":8175:8179   */\n      0x60\n        /* \"#utility.yul\":8168:8173   */\n      dup4\n        /* \"#utility.yul\":8164:8180   */\n      add\n        /* \"#utility.yul\":8158:8181   */\n      mload\n        /* \"#utility.yul\":8194:8257   */\n      tag_308\n        /* \"#utility.yul\":8251:8255   */\n      0x60\n        /* \"#utility.yul\":8246:8249   */\n      dup7\n        /* \"#utility.yul\":8242:8256   */\n      add\n        /* \"#utility.yul\":8228:8240   */\n      dup3\n        /* \"#utility.yul\":8194:8257   */\n      tag_206\n      jump\t// in\n    tag_308:\n        /* \"#utility.yul\":8099:8267   */\n      pop\n        /* \"#utility.yul\":8356:8360   */\n      0x80\n        /* \"#utility.yul\":8349:8354   */\n      dup4\n        /* \"#utility.yul\":8345:8361   */\n      add\n        /* \"#utility.yul\":8339:8362   */\n      mload\n        /* \"#utility.yul\":8375:8438   */\n      tag_309\n        /* \"#utility.yul\":8432:8436   */\n      0x80\n        /* \"#utility.yul\":8427:8430   */\n      dup7\n        /* \"#utility.yul\":8423:8437   */\n      add\n        /* \"#utility.yul\":8409:8421   */\n      dup3\n        /* \"#utility.yul\":8375:8438   */\n      tag_206\n      jump\t// in\n    tag_309:\n        /* \"#utility.yul\":8277:8448   */\n      pop\n        /* \"#utility.yul\":8533:8537   */\n      0xa0\n        /* \"#utility.yul\":8526:8531   */\n      dup4\n        /* \"#utility.yul\":8522:8538   */\n      add\n        /* \"#utility.yul\":8516:8539   */\n      mload\n        /* \"#utility.yul\":8552:8615   */\n      tag_310\n        /* \"#utility.yul\":8609:8613   */\n      0xa0\n        /* \"#utility.yul\":8604:8607   */\n      dup7\n        /* \"#utility.yul\":8600:8614   */\n      add\n        /* \"#utility.yul\":8586:8598   */\n      dup3\n        /* \"#utility.yul\":8552:8615   */\n      tag_206\n      jump\t// in\n    tag_310:\n        /* \"#utility.yul\":8458:8625   */\n      pop\n        /* \"#utility.yul\":8642:8646   */\n      dup1\n        /* \"#utility.yul\":8635:8646   */\n      swap2\n      pop\n        /* \"#utility.yul\":7390:8652   */\n      pop\n        /* \"#utility.yul\":7270:8652   */\n      swap3\n      swap2\n      pop\n      pop\n      jump\t// out\n        /* \"#utility.yul\":8658:9133   */\n    tag_23:\n        /* \"#utility.yul\":8825:8829   */\n      0x00\n        /* \"#utility.yul\":8863:8865   */\n      0x40\n        /* \"#utility.yul\":8852:8861   */\n      dup3\n        /* \"#utility.yul\":8848:8866   */\n      add\n        /* \"#utility.yul\":8840:8866   */\n      swap1\n      pop\n        /* \"#utility.yul\":8912:8921   */\n      dup2\n        /* \"#utility.yul\":8906:8910   */\n      dup2\n        /* \"#utility.yul\":8902:8922   */\n      sub\n        /* \"#utility.yul\":8898:8899   */\n      0x00\n        /* \"#utility.yul\":8887:8896   */\n      dup4\n        /* \"#utility.yul\":8883:8900   */\n      add\n        /* \"#utility.yul\":8876:8923   */\n      mstore\n        /* \"#utility.yul\":8940:9044   */\n      tag_312\n        /* \"#utility.yul\":9039:9043   */\n      dup2\n        /* \"#utility.yul\":9030:9036   */\n      dup6\n        /* \"#utility.yul\":8940:9044   */\n      tag_207\n      jump\t// in\n    tag_312:\n        /* \"#utility.yul\":8932:9044   */\n      swap1\n      pop\n        /* \"#utility.yul\":9054:9126   */\n      tag_313\n        /* \"#utility.yul\":9122:9124   */\n      0x20\n        /* \"#utility.yul\":9111:9120   */\n      dup4\n        /* \"#utility.yul\":9107:9125   */\n      add\n        /* \"#utility.yul\":9098:9104   */\n      dup5\n        /* \"#utility.yul\":9054:9126   */\n      tag_203\n      jump\t// in\n    tag_313:\n        /* \"#utility.yul\":8658:9133   */\n      swap4\n      swap3\n      pop\n      pop\n      pop\n      jump\t// out\n        /* \"#utility.yul\":9139:9319   */\n    tag_28:\n        /* \"#utility.yul\":9187:9264   */\n      0x4e487b7100000000000000000000000000000000000000000000000000000000\n        /* \"#utility.yul\":9184:9185   */\n      0x00\n        /* \"#utility.yul\":9177:9265   */\n      mstore\n        /* \"#utility.yul\":9284:9288   */\n      0x32\n        /* \"#utility.yul\":9281:9282   */\n      0x04\n        /* \"#utility.yul\":9274:9289   */\n      mstore\n        /* \"#utility.yul\":9308:9312   */\n      0x24\n        /* \"#utility.yul\":9305:9306   */\n      0x00\n        /* \"#utility.yul\":9298:9313   */\n      revert\n        /* \"#utility.yul\":9325:9505   */\n    tag_208:\n        /* \"#utility.yul\":9373:9450   */\n      0x4e487b7100000000000000000000000000000000000000000000000000000000\n        /* \"#utility.yul\":9370:9371   */\n      0x00\n        /* \"#utility.yul\":9363:9451   */\n      mstore\n        /* \"#utility.yul\":9470:9474   */\n      0x22\n        /* \"#utility.yul\":9467:9468   */\n      0x04\n        /* \"#utility.yul\":9460:9475   */\n      mstore\n        /* \"#utility.yul\":9494:9498   */\n      0x24\n        /* \"#utility.yul\":9491:9492   */\n      0x00\n        /* \"#utility.yul\":9484:9499   */\n      revert\n        /* \"#utility.yul\":9511:9831   */\n    tag_41:\n        /* \"#utility.yul\":9555:9561   */\n      0x00\n        /* \"#utility.yul\":9592:9593   */\n      0x02\n        /* \"#utility.yul\":9586:9590   */\n      dup3\n        /* \"#utility.yul\":9582:9594   */\n      div\n        /* \"#utility.yul\":9572:9594   */\n      swap1\n      pop\n        /* \"#utility.yul\":9639:9640   */\n      0x01\n        /* \"#utility.yul\":9633:9637   */\n      dup3\n        /* \"#utility.yul\":9629:9641   */\n      and\n        /* \"#utility.yul\":9660:9678   */\n      dup1\n        /* \"#utility.yul\":9650:9731   */\n      tag_317\n      jumpi\n        /* \"#utility.yul\":9716:9720   */\n      0x7f\n        /* \"#utility.yul\":9708:9714   */\n      dup3\n        /* \"#utility.yul\":9704:9721   */\n      and\n        /* \"#utility.yul\":9694:9721   */\n      swap2\n      pop\n        /* \"#utility.yul\":9650:9731   */\n    tag_317:\n        /* \"#utility.yul\":9778:9780   */\n      0x20\n        /* \"#utility.yul\":9770:9776   */\n      dup3\n        /* \"#utility.yul\":9767:9781   */\n      lt\n        /* \"#utility.yul\":9747:9765   */\n      dup2\n        /* \"#utility.yul\":9744:9782   */\n      sub\n        /* \"#utility.yul\":9741:9825   */\n      tag_318\n      jumpi\n        /* \"#utility.yul\":9797:9815   */\n      tag_319\n      tag_208\n      jump\t// in\n    tag_319:\n        /* \"#utility.yul\":9741:9825   */\n    tag_318:\n        /* \"#utility.yul\":9562:9831   */\n      pop\n        /* \"#utility.yul\":9511:9831   */\n      swap2\n      swap1\n      pop\n      jump\t// out\n        /* \"#utility.yul\":9837:9978   */\n    tag_209:\n        /* \"#utility.yul\":9886:9890   */\n      0x00\n        /* \"#utility.yul\":9909:9912   */\n      dup2\n        /* \"#utility.yul\":9901:9912   */\n      swap1\n      pop\n        /* \"#utility.yul\":9932:9935   */\n      dup2\n        /* \"#utility.yul\":9929:9930   */\n      0x00\n        /* \"#utility.yul\":9922:9936   */\n      mstore\n        /* \"#utility.yul\":9966:9970   */\n      0x20\n        /* \"#utility.yul\":9963:9964   */\n      0x00\n        /* \"#utility.yul\":9953:9971   */\n      keccak256\n        /* \"#utility.yul\":9945:9971   */\n      swap1\n      pop\n        /* \"#utility.yul\":9837:9978   */\n      swap2\n      swap1\n      pop\n      jump\t// out\n        /* \"#utility.yul\":9984:10077   */\n    tag_210:\n        /* \"#utility.yul\":10021:10027   */\n      0x00\n        /* \"#utility.yul\":10068:10070   */\n      0x20\n        /* \"#utility.yul\":10063:10065   */\n      0x1f\n        /* \"#utility.yul\":10056:10061   */\n      dup4\n        /* \"#utility.yul\":10052:10066   */\n      add\n        /* \"#utility.yul\":10048:10071   */\n      div\n        /* \"#utility.yul\":10038:10071   */\n      swap1\n      pop\n        /* \"#utility.yul\":9984:10077   */\n      swap2\n      swap1\n      pop\n      jump\t// out\n        /* \"#utility.yul\":10083:10190   */\n    tag_211:\n        /* \"#utility.yul\":10127:10135   */\n      0x00\n        /* \"#utility.yul\":10177:10182   */\n      dup3\n        /* \"#utility.yul\":10171:10175   */\n      dup3\n        /* \"#utility.yul\":10167:10183   */\n      shl\n        /* \"#utility.yul\":10146:10183   */\n      swap1\n      pop\n        /* \"#utility.yul\":10083:10190   */\n      swap3\n      swap2\n      pop\n      pop\n      jump\t// out\n        /* \"#utility.yul\":10196:10589   */\n    tag_212:\n        /* \"#utility.yul\":10265:10271   */\n      0x00\n        /* \"#utility.yul\":10315:10316   */\n      0x08\n        /* \"#utility.yul\":10303:10313   */\n      dup4\n        /* \"#utility.yul\":10299:10317   */\n      mul\n        /* \"#utility.yul\":10338:10435   */\n      tag_324\n        /* \"#utility.yul\":10368:10434   */\n      0xffffffffffffffffffffffffffffffffffffffffffffffffffffffffffffffff\n        /* \"#utility.yul\":10357:10366   */\n      dup3\n        /* \"#utility.yul\":10338:10435   */\n      tag_211\n      jump\t// in\n    tag_324:\n        /* \"#utility.yul\":10456:10495   */\n      tag_325\n        /* \"#utility.yul\":10486:10494   */\n      dup7\n        /* \"#utility.yul\":10475:10484   */\n      dup4\n        /* \"#utility.yul\":10456:10495   */\n      tag_211\n      jump\t// in\n    tag_325:\n        /* \"#utility.yul\":10444:10495   */\n      swap6\n      pop\n        /* \"#utility.yul\":10528:10532   */\n      dup1\n        /* \"#utility.yul\":10524:10533   */\n      not\n        /* \"#utility.yul\":10517:10522   */\n      dup5\n        /* \"#utility.yul\":10513:10534   */\n      and\n        /* \"#utility.yul\":10504:10534   */\n      swap4\n      pop\n        /* \"#utility.yul\":10577:10581   */\n      dup1\n        /* \"#utility.yul\":10567:10575   */\n      dup7\n        /* \"#utility.yul\":10563:10582   */\n      and\n        /* \"#utility.yul\":10556:10561   */\n      dup5\n        /* \"#utility.yul\":10553:10583   */\n      or\n        /* \"#utility.yul\":10543:10583   */\n      swap3\n      pop\n        /* \"#utility.yul\":10272:10589   */\n      pop\n      pop\n        /* \"#utility.yul\":10196:10589   */\n      swap4\n      swap3\n      pop\n      pop\n      pop\n      jump\t// out\n        /* \"#utility.yul\":10595:10655   */\n    tag_213:\n        /* \"#utility.yul\":10623:10626   */\n      0x00\n        /* \"#utility.yul\":10644:10649   */\n      dup2\n        /* \"#utility.yul\":10637:10649   */\n      swap1\n      pop\n        /* \"#utility.yul\":10595:10655   */\n      swap2\n      swap1\n      pop\n      jump\t// out\n        /* \"#utility.yul\":10661:10803   */\n    tag_214:\n        /* \"#utility.yul\":10711:10720   */\n      0x00\n        /* \"#utility.yul\":10744:10797   */\n      tag_328\n        /* \"#utility.yul\":10762:10796   */\n      tag_329\n        /* \"#utility.yul\":10771:10795   */\n      tag_330\n        /* \"#utility.yul\":10789:10794   */\n      dup5\n        /* \"#utility.yul\":10771:10795   */\n      tag_186\n      jump\t// in\n    tag_330:\n        /* \"#utility.yul\":10762:10796   */\n      tag_213\n      jump\t// in\n    tag_329:\n        /* \"#utility.yul\":10744:10797   */\n      tag_186\n      jump\t// in\n    tag_328:\n        /* \"#utility.yul\":10731:10797   */\n      swap1\n      pop\n        /* \"#utility.yul\":10661:10803   */\n      swap2\n      swap1\n      pop\n      jump\t// out\n        /* \"#utility.yul\":10809:10884   */\n    tag_215:\n        /* \"#utility.yul\":10852:10855   */\n      0x00\n        /* \"#utility.yul\":10873:10878   */\n      dup2\n        /* \"#utility.yul\":10866:10878   */\n      swap1\n      pop\n        /* \"#utility.yul\":10809:10884   */\n      swap2\n      swap1\n      pop\n      jump\t// out\n        /* \"#utility.yul\":10890:11159   */\n    tag_216:\n        /* \"#utility.yul\":11000:11039   */\n      tag_333\n        /* \"#utility.yul\":11031:11038   */\n      dup4\n        /* \"#utility.yul\":11000:11039   */\n      tag_214\n      jump\t// in\n    tag_333:\n        /* \"#utility.yul\":11061:11152   */\n      tag_334\n        /* \"#utility.yul\":11110:11151   */\n      tag_335\n        /* \"#utility.yul\":11134:11150   */\n      dup3\n        /* \"#utility.yul\":11110:11151   */\n      tag_215\n      jump\t// in\n    tag_335:\n        /* \"#utility.yul\":11102:11108   */\n      dup5\n        /* \"#utility.yul\":11095:11099   */\n      dup5\n        /* \"#utility.yul\":11089:11100   */\n      sload\n        /* \"#utility.yul\":11061:11152   */\n      tag_212\n      jump\t// in\n    tag_334:\n        /* \"#utility.yul\":11055:11059   */\n      dup3\n        /* \"#utility.yul\":11048:11153   */\n      sstore\n        /* \"#utility.yul\":10966:11159   */\n      pop\n        /* \"#utility.yul\":10890:11159   */\n      pop\n      pop\n      pop\n      jump\t// out\n        /* \"#utility.yul\":11165:11238   */\n    tag_217:\n        /* \"#utility.yul\":11210:11213   */\n      0x00\n        /* \"#utility.yul\":11165:11238   */\n      swap1\n      jump\t// out\n        /* \"#utility.yul\":11244:11433   */\n    tag_218:\n        /* \"#utility.yul\":11321:11353   */\n      tag_338\n      tag_217\n      jump\t// in\n    tag_338:\n        /* \"#utility.yul\":11362:11427   */\n      tag_339\n        /* \"#utility.yul\":11420:11426   */\n      dup2\n        /* \"#utility.yul\":11412:11418   */\n      dup5\n        /* \"#utility.yul\":11406:11410   */\n      dup5\n        /* \"#utility.yul\":11362:11427   */\n      tag_216\n      jump\t// in\n    tag_339:\n        /* \"#utility.yul\":11297:11433   */\n      pop\n        /* \"#utility.yul\":11244:11433   */\n      pop\n      pop\n      jump\t// out\n        /* \"#utility.yul\":11439:11625   */\n    tag_219:\n        /* \"#utility.yul\":11499:11619   */\n    tag_341:\n        /* \"#utility.yul\":11516:11519   */\n      dup2\n        /* \"#utility.yul\":11509:11514   */\n      dup2\n        /* \"#utility.yul\":11506:11520   */\n      lt\n        /* \"#utility.yul\":11499:11619   */\n      iszero\n      tag_343\n      jumpi\n        /* \"#utility.yul\":11570:11609   */\n      tag_344\n        /* \"#utility.yul\":11607:11608   */\n      0x00\n        /* \"#utility.yul\":11600:11605   */\n      dup3\n        /* \"#utility.yul\":11570:11609   */\n      tag_218\n      jump\t// in\n    tag_344:\n        /* \"#utility.yul\":11543:11544   */\n      0x01\n        /* \"#utility.yul\":11536:11541   */\n      dup2\n        /* \"#utility.yul\":11532:11545   */\n      add\n        /* \"#utility.yul\":11523:11545   */\n      swap1\n      pop\n        /* \"#utility.yul\":11499:11619   */\n      jump(tag_341)\n    tag_343:\n        /* \"#utility.yul\":11439:11625   */\n      pop\n      pop\n      jump\t// out\n        /* \"#utility.yul\":11631:12174   */\n    tag_220:\n        /* \"#utility.yul\":11732:11734   */\n      0x1f\n        /* \"#utility.yul\":11727:11730   */\n      dup3\n        /* \"#utility.yul\":11724:11735   */\n      gt\n        /* \"#utility.yul\":11721:12167   */\n      iszero\n      tag_346\n      jumpi\n        /* \"#utility.yul\":11766:11804   */\n      tag_347\n        /* \"#utility.yul\":11798:11803   */\n      dup2\n        /* \"#utility.yul\":11766:11804   */\n      tag_209\n      jump\t// in\n    tag_347:\n        /* \"#utility.yul\":11850:11879   */\n      tag_348\n        /* \"#utility.yul\":11868:11878   */\n      dup5\n        /* \"#utility.yul\":11850:11879   */\n      tag_210\n      jump\t// in\n    tag_348:\n        /* \"#utility.yul\":11840:11848   */\n      dup2\n        /* \"#utility.yul\":11836:11880   */\n      add\n        /* \"#utility.yul\":12033:12035   */\n      0x20\n        /* \"#utility.yul\":12021:12031   */\n      dup6\n        /* \"#utility.yul\":12018:12036   */\n      lt\n        /* \"#utility.yul\":12015:12064   */\n      iszero\n      tag_349\n      jumpi\n        /* \"#utility.yul\":12054:12062   */\n      dup2\n        /* \"#utility.yul\":12039:12062   */\n      swap1\n      pop\n        /* \"#utility.yul\":12015:12064   */\n    tag_349:\n        /* \"#utility.yul\":12077:12157   */\n      tag_350\n        /* \"#utility.yul\":12133:12155   */\n      tag_351\n        /* \"#utility.yul\":12151:12154   */\n      dup6\n        /* \"#utility.yul\":12133:12155   */\n      tag_210\n      jump\t// in\n    tag_351:\n        /* \"#utility.yul\":12123:12131   */\n      dup4\n        /* \"#utility.yul\":12119:12156   */\n      add\n        /* \"#utility.yul\":12106:12117   */\n      dup3\n        /* \"#utility.yul\":12077:12157   */\n      tag_219\n      jump\t// in\n    tag_350:\n        /* \"#utility.yul\":11736:12167   */\n      pop\n      pop\n        /* \"#utility.yul\":11721:12167   */\n    tag_346:\n        /* \"#utility.yul\":11631:12174   */\n      pop\n      pop\n      pop\n      jump\t// out\n        /* \"#utility.yul\":12180:12297   */\n    tag_221:\n        /* \"#utility.yul\":12234:12242   */\n      0x00\n        /* \"#utility.yul\":12284:12289   */\n      dup3\n        /* \"#utility.yul\":12278:12282   */\n      dup3\n        /* \"#utility.yul\":12274:12290   */\n      shr\n        /* \"#utility.yul\":12253:12290   */\n      swap1\n      pop\n        /* \"#utility.yul\":12180:12297   */\n      swap3\n      swap2\n      pop\n      pop\n      jump\t// out\n        /* \"#utility.yul\":12303:12472   */\n    tag_222:\n        /* \"#utility.yul\":12347:12353   */\n      0x00\n        /* \"#utility.yul\":12380:12431   */\n      tag_354\n        /* \"#utility.yul\":12428:12429   */\n      0x00\n        /* \"#utility.yul\":12424:12430   */\n      not\n        /* \"#utility.yul\":12416:12421   */\n      dup5\n        /* \"#utility.yul\":12413:12414   */\n      0x08\n        /* \"#utility.yul\":12409:12422   */\n      mul\n        /* \"#utility.yul\":12380:12431   */\n      tag_221\n      jump\t// in\n    tag_354:\n        /* \"#utility.yul\":12376:12432   */\n      not\n        /* \"#utility.yul\":12461:12465   */\n      dup1\n        /* \"#utility.yul\":12455:12459   */\n      dup4\n        /* \"#utility.yul\":12451:12466   */\n      and\n        /* \"#utility.yul\":12441:12466   */\n      swap2\n      pop\n        /* \"#utility.yul\":12354:12472   */\n      pop\n        /* \"#utility.yul\":12303:12472   */\n      swap3\n      swap2\n      pop\n      pop\n      jump\t// out\n        /* \"#utility.yul\":12477:12772   */\n    tag_223:\n        /* \"#utility.yul\":12553:12557   */\n      0x00\n        /* \"#utility.yul\":12699:12728   */\n      tag_356\n        /* \"#utility.yul\":12724:12727   */\n      dup4\n        /* \"#utility.yul\":12718:12722   */\n      dup4\n        /* \"#utility.yul\":12699:12728   */\n      tag_222\n      jump\t// in\n    tag_356:\n        /* \"#utility.yul\":12691:12728   */\n      swap2\n      pop\n        /* \"#utility.yul\":12761:12764   */\n      dup3\n        /* \"#utility.yul\":12758:12759   */\n      0x02\n        /* \"#utility.yul\":12754:12765   */\n      mul\n        /* \"#utility.yul\":12748:12752   */\n      dup3\n        /* \"#utility.yul\":12745:12766   */\n      or\n        /* \"#utility.yul\":12737:12766   */\n      swap1\n      pop\n        /* \"#utility.yul\":12477:12772   */\n      swap3\n      swap2\n      pop\n      pop\n      jump\t// out\n        /* \"#utility.yul\":12777:14172   */\n    tag_36:\n        /* \"#utility.yul\":12894:12931   */\n      tag_358\n        /* \"#utility.yul\":12927:12930   */\n      dup3\n        /* \"#utility.yul\":12894:12931   */\n      tag_199\n      jump\t// in\n    tag_358:\n        /* \"#utility.yul\":12996:13014   */\n      0xffffffffffffffff\n        /* \"#utility.yul\":12988:12994   */\n      dup2\n        /* \"#utility.yul\":12985:13015   */\n      gt\n        /* \"#utility.yul\":12982:13038   */\n      iszero\n      tag_359\n      jumpi\n        /* \"#utility.yul\":13018:13036   */\n      tag_360\n      tag_192\n      jump\t// in\n    tag_360:\n        /* \"#utility.yul\":12982:13038   */\n    tag_359:\n        /* \"#utility.yul\":13062:13100   */\n      tag_361\n        /* \"#utility.yul\":13094:13098   */\n      dup3\n        /* \"#utility.yul\":13088:13099   */\n      sload\n        /* \"#utility.yul\":13062:13100   */\n      tag_41\n      jump\t// in\n    tag_361:\n        /* \"#utility.yul\":13147:13214   */\n      tag_362\n        /* \"#utility.yul\":13207:13213   */\n      dup3\n        /* \"#utility.yul\":13199:13205   */\n      dup3\n        /* \"#utility.yul\":13193:13197   */\n      dup6\n        /* \"#utility.yul\":13147:13214   */\n      tag_220\n      jump\t// in\n    tag_362:\n        /* \"#utility.yul\":13241:13242   */\n      0x00\n        /* \"#utility.yul\":13265:13269   */\n      0x20\n        /* \"#utility.yul\":13252:13269   */\n      swap1\n      pop\n        /* \"#utility.yul\":13297:13299   */\n      0x1f\n        /* \"#utility.yul\":13289:13295   */\n      dup4\n        /* \"#utility.yul\":13286:13300   */\n      gt\n        /* \"#utility.yul\":13314:13315   */\n      0x01\n        /* \"#utility.yul\":13309:13927   */\n      dup2\n      eq\n      tag_364\n      jumpi\n        /* \"#utility.yul\":13971:13972   */\n      0x00\n        /* \"#utility.yul\":13988:13994   */\n      dup5\n        /* \"#utility.yul\":13985:14062   */\n      iszero\n      tag_365\n      jumpi\n        /* \"#utility.yul\":14037:14046   */\n      dup3\n        /* \"#utility.yul\":14032:14035   */\n      dup8\n        /* \"#utility.yul\":14028:14047   */\n      add\n        /* \"#utility.yul\":14022:14048   */\n      mload\n        /* \"#utility.yul\":14013:14048   */\n      swap1\n      pop\n        /* \"#utility.yul\":13985:14062   */\n    tag_365:\n        /* \"#utility.yul\":14088:14155   */\n      tag_366\n        /* \"#utility.yul\":14148:14154   */\n      dup6\n        /* \"#utility.yul\":14141:14146   */\n      dup3\n        /* \"#utility.yul\":14088:14155   */\n      tag_223\n      jump\t// in\n    tag_366:\n        /* \"#utility.yul\":14082:14086   */\n      dup7\n        /* \"#utility.yul\":14075:14156   */\n      sstore\n        /* \"#utility.yul\":13944:14166   */\n      pop\n        /* \"#utility.yul\":13279:14166   */\n      jump(tag_363)\n        /* \"#utility.yul\":13309:13927   */\n    tag_364:\n        /* \"#utility.yul\":13361:13365   */\n      0x1f\n        /* \"#utility.yul\":13357:13366   */\n      not\n        /* \"#utility.yul\":13349:13355   */\n      dup5\n        /* \"#utility.yul\":13345:13367   */\n      and\n        /* \"#utility.yul\":13395:13432   */\n      tag_367\n        /* \"#utility.yul\":13427:13431   */\n      dup7\n        /* \"#utility.yul\":13395:13432   */\n      tag_209\n      jump\t// in\n    tag_367:\n        /* \"#utility.yul\":13454:13455   */\n      0x00\n        /* \"#utility.yul\":13468:13676   */\n    tag_368:\n        /* \"#utility.yul\":13482:13489   */\n      dup3\n        /* \"#utility.yul\":13479:13480   */\n      dup2\n        /* \"#utility.yul\":13476:13490   */\n      lt\n        /* \"#utility.yul\":13468:13676   */\n      iszero\n      tag_370\n      jumpi\n        /* \"#utility.yul\":13561:13570   */\n      dup5\n        /* \"#utility.yul\":13556:13559   */\n      dup10\n        /* \"#utility.yul\":13552:13571   */\n      add\n        /* \"#utility.yul\":13546:13572   */\n      mload\n        /* \"#utility.yul\":13538:13544   */\n      dup3\n        /* \"#utility.yul\":13531:13573   */\n      sstore\n        /* \"#utility.yul\":13612:13613   */\n      0x01\n        /* \"#utility.yul\":13604:13610   */\n      dup3\n        /* \"#utility.yul\":13600:13614   */\n      add\n        /* \"#utility.yul\":13590:13614   */\n      swap2\n      pop\n        /* \"#utility.yul\":13659:13661   */\n      0x20\n        /* \"#utility.yul\":13648:13657   */\n      dup6\n        /* \"#utility.yul\":13644:13662   */\n      add\n        /* \"#utility.yul\":13631:13662   */\n      swap5\n      pop\n        /* \"#utility.yul\":13505:13509   */\n      0x20\n        /* \"#utility.yul\":13502:13503   */\n      dup2\n        /* \"#utility.yul\":13498:13510   */\n      add\n        /* \"#utility.yul\":13493:13510   */\n      swap1\n      pop\n        /* \"#utility.yul\":13468:13676   */\n      jump(tag_368)\n    tag_370:\n        /* \"#utility.yul\":13704:13710   */\n      dup7\n        /* \"#utility.yul\":13695:13702   */\n      dup4\n        /* \"#utility.yul\":13692:13711   */\n      lt\n        /* \"#utility.yul\":13689:13868   */\n      iszero\n      tag_371\n      jumpi\n        /* \"#utility.yul\":13762:13771   */\n      dup5\n        /* \"#utility.yul\":13757:13760   */\n      dup10\n        /* \"#utility.yul\":13753:13772   */\n      add\n        /* \"#utility.yul\":13747:13773   */\n      mload\n        /* \"#utility.yul\":13805:13853   */\n      tag_372\n        /* \"#utility.yul\":13847:13851   */\n      0x1f\n        /* \"#utility.yul\":13839:13845   */\n      dup10\n        /* \"#utility.yul\":13835:13852   */\n      and\n        /* \"#utility.yul\":13824:13833   */\n      dup3\n        /* \"#utility.yul\":13805:13853   */\n      tag_222\n      jump\t// in\n    tag_372:\n        /* \"#utility.yul\":13797:13803   */\n      dup4\n        /* \"#utility.yul\":13790:13854   */\n      sstore\n        /* \"#utility.yul\":13712:13868   */\n      pop\n        /* \"#utility.yul\":13689:13868   */\n    tag_371:\n        /* \"#utility.yul\":13914:13915   */\n      0x01\n        /* \"#utility.yul\":13910:13911   */\n      0x02\n        /* \"#utility.yul\":13902:13908   */\n      dup9\n        /* \"#utility.yul\":13898:13912   */\n      mul\n        /* \"#utility.yul\":13894:13916   */\n      add\n        /* \"#utility.yul\":13888:13892   */\n      dup9\n        /* \"#utility.yul\":13881:13917   */\n      sstore\n        /* \"#utility.yul\":13316:13927   */\n      pop\n      pop\n      pop\n        /* \"#utility.yul\":13279:14166   */\n    tag_363:\n      pop\n        /* \"#utility.yul\":12869:14172   */\n      pop\n      pop\n      pop\n        /* \"#utility.yul\":12777:14172   */\n      pop\n      pop\n      jump\t// out\n        /* \"#utility.yul\":14178:14358   */\n    tag_224:\n        /* \"#utility.yul\":14226:14303   */\n      0x4e487b7100000000000000000000000000000000000000000000000000000000\n        /* \"#utility.yul\":14223:14224   */\n      0x00\n        /* \"#utility.yul\":14216:14304   */\n      mstore\n        /* \"#utility.yul\":14323:14327   */\n      0x12\n        /* \"#utility.yul\":14320:14321   */\n      0x04\n        /* \"#utility.yul\":14313:14328   */\n      mstore\n        /* \"#utility.yul\":14347:14351   */\n      0x24\n        /* \"#utility.yul\":14344:14345   */\n      0x00\n        /* \"#utility.yul\":14337:14352   */\n      revert\n        /* \"#utility.yul\":14364:14544   */\n    tag_225:\n        /* \"#utility.yul\":14412:14489   */\n      0x4e487b7100000000000000000000000000000000000000000000000000000000\n        /* \"#utility.yul\":14409:14410   */\n      0x00\n        /* \"#utility.yul\":14402:14490   */\n      mstore\n        /* \"#utility.yul\":14509:14513   */\n      0x11\n        /* \"#utility.yul\":14506:14507   */\n      0x04\n        /* \"#utility.yul\":14499:14514   */\n      mstore\n        /* \"#utility.yul\":14533:14537   */\n      0x24\n        /* \"#utility.yul\":14530:14531   */\n      0x00\n        /* \"#utility.yul\":14523:14538   */\n      revert\n        /* \"#utility.yul\":14550:14735   */\n    tag_64:\n        /* \"#utility.yul\":14590:14591   */\n      0x00\n        /* \"#utility.yul\":14607:14627   */\n      tag_376\n        /* \"#utility.yul\":14625:14626   */\n      dup3\n        /* \"#utility.yul\":14607:14627   */\n      tag_186\n      jump\t// in\n    tag_376:\n        /* \"#utility.yul\":14602:14627   */\n      swap2\n      pop\n        /* \"#utility.yul\":14641:14661   */\n      tag_377\n        /* \"#utility.yul\":14659:14660   */\n      dup4\n        /* \"#utility.yul\":14641:14661   */\n      tag_186\n      jump\t// in\n    tag_377:\n        /* \"#utility.yul\":14636:14661   */\n      swap3\n      pop\n        /* \"#utility.yul\":14680:14681   */\n      dup3\n        /* \"#utility.yul\":14670:14705   */\n      tag_378\n      jumpi\n        /* \"#utility.yul\":14685:14703   */\n      tag_379\n      tag_224\n      jump\t// in\n    tag_379:\n        /* \"#utility.yul\":14670:14705   */\n    tag_378:\n        /* \"#utility.yul\":14727:14728   */\n      dup3\n        /* \"#utility.yul\":14724:14725   */\n      dup3\n        /* \"#utility.yul\":14720:14729   */\n      div\n        /* \"#utility.yul\":14715:14729   */\n      swap1\n      pop\n        /* \"#utility.yul\":14550:14735   */\n      swap3\n      swap2\n      pop\n      pop\n      jump\t// out\n        /* \"#utility.yul\":14741:15151   */\n    tag_74:\n        /* \"#utility.yul\":14781:14788   */\n      0x00\n        /* \"#utility.yul\":14804:14824   */\n      tag_381\n        /* \"#utility.yul\":14822:14823   */\n      dup3\n        /* \"#utility.yul\":14804:14824   */\n      tag_186\n      jump\t// in\n    tag_381:\n        /* \"#utility.yul\":14799:14824   */\n      swap2\n      pop\n        /* \"#utility.yul\":14838:14858   */\n      tag_382\n        /* \"#utility.yul\":14856:14857   */\n      dup4\n        /* \"#utility.yul\":14838:14858   */\n      tag_186\n      jump\t// in\n    tag_382:\n        /* \"#utility.yul\":14833:14858   */\n      swap3\n      pop\n        /* \"#utility.yul\":14893:14894   */\n      dup3\n        /* \"#utility.yul\":14890:14891   */\n      dup3\n        /* \"#utility.yul\":14886:14895   */\n      mul\n        /* \"#utility.yul\":14915:14945   */\n      tag_383\n        /* \"#utility.yul\":14933:14944   */\n      dup2\n        /* \"#utility.yul\":14915:14945   */\n      tag_186\n      jump\t// in\n    tag_383:\n        /* \"#utility.yul\":14904:14945   */\n      swap2\n      pop\n        /* \"#utility.yul\":15094:15095   */\n      dup3\n        /* \"#utility.yul\":15085:15092   */\n      dup3\n        /* \"#utility.yul\":15081:15096   */\n      div\n        /* \"#utility.yul\":15078:15079   */\n      dup5\n        /* \"#utility.yul\":15075:15097   */\n      eq\n        /* \"#utility.yul\":15055:15056   */\n      dup4\n        /* \"#utility.yul\":15048:15057   */\n      iszero\n        /* \"#utility.yul\":15028:15111   */\n      or\n        /* \"#utility.yul\":15005:15144   */\n      tag_384\n      jumpi\n        /* \"#utility.yul\":15124:15142   */\n      tag_385\n      tag_225\n      jump\t// in\n    tag_385:\n        /* \"#utility.yul\":15005:15144   */\n    tag_384:\n        /* \"#utility.yul\":14789:15151   */\n      pop\n        /* \"#utility.yul\":14741:15151   */\n      swap3\n      swap2\n      pop\n      pop\n      jump\t// out\n        /* \"#utility.yul\":15157:15348   */\n    tag_90:\n        /* \"#utility.yul\":15197:15200   */\n      0x00\n        /* \"#utility.yul\":15216:15236   */\n      tag_387\n        /* \"#utility.yul\":15234:15235   */\n      dup3\n        /* \"#utility.yul\":15216:15236   */\n      tag_186\n      jump\t// in\n    tag_387:\n        /* \"#utility.yul\":15211:15236   */\n      swap2\n      pop\n        /* \"#utility.yul\":15250:15270   */\n      tag_388\n        /* \"#utility.yul\":15268:15269   */\n      dup4\n        /* \"#utility.yul\":15250:15270   */\n      tag_186\n      jump\t// in\n    tag_388:\n        /* \"#utility.yul\":15245:15270   */\n      swap3\n      pop\n        /* \"#utility.yul\":15293:15294   */\n      dup3\n        /* \"#utility.yul\":15290:15291   */\n      dup3\n        /* \"#utility.yul\":15286:15295   */\n      add\n        /* \"#utility.yul\":15279:15295   */\n      swap1\n      pop\n        /* \"#utility.yul\":15314:15317   */\n      dup1\n        /* \"#utility.yul\":15311:15312   */\n      dup3\n        /* \"#utility.yul\":15308:15318   */\n      gt\n        /* \"#utility.yul\":15305:15341   */\n      iszero\n      tag_389\n      jumpi\n        /* \"#utility.yul\":15321:15339   */\n      tag_390\n      tag_225\n      jump\t// in\n    tag_390:\n        /* \"#utility.yul\":15305:15341   */\n    tag_389:\n        /* \"#utility.yul\":15157:15348   */\n      swap3\n      swap2\n      pop\n      pop\n      jump\t// out\n\n    auxdata: 0xa2646970667358221220ee8d11298276cf1931dd11efd5bf5e6599c2be2539c19a5e40ad6a882c3654ee64736f6c634300081a0033\n}\n",
				"bytecode": {
					"linkReferences": {},
					"object": "6080604052348015600e575f80fd5b506113138061001c5f395ff3fe608060405234801561000f575f80fd5b506004361061004a575f3560e01c80633302b00e1461004e5780636815d5201461006a5780639801974814610086578063d2056595146100bb575b5f80fd5b61006860048036038101906100639190610ad3565b6100da565b005b610084600480360381019061007f9190610c3a565b610147565b005b6100a0600480360381019061009b9190610ad3565b6101f7565b6040516100b296959493929190610d6a565b60405180910390f35b6100c3610349565b6040516100d1929190610ebb565b60405180910390f35b5f8054905081106100e9575f80fd5b5f81815481106100fc576100fb610ee9565b5b905f5260205f2090600602015f8082015f6101179190610a05565b600182015f6101269190610a05565b600282015f9055600382015f9055600482015f9055600582015f9055505050565b5f6040518060c0016040528088815260200187815260200186815260200185815260200184815260200183815250908060018154018082558091505060019003905f5260205f2090600602015f909190919091505f820151815f0190816101ae9190611110565b5060208201518160010190816101c49190611110565b5060408201518160020155606082015181600301556080820151816004015560a082015181600501555050505050505050565b5f8181548110610205575f80fd5b905f5260205f2090600602015f91509050805f01805461022490610f43565b80601f016020809104026020016040519081016040528092919081815260200182805461025090610f43565b801561029b5780601f106102725761010080835404028352916020019161029b565b820191905f5260205f20905b81548152906001019060200180831161027e57829003601f168201915b5050505050908060010180546102b090610f43565b80601f01602080910402602001604051908101604052809291908181526020018280546102dc90610f43565b80156103275780601f106102fe57610100808354040283529160200191610327565b820191905f5260205f20905b81548152906001019060200180831161030a57829003601f168201915b5050505050908060020154908060030154908060040154908060050154905086565b610351610a42565b5f805f90505f7fffffffffffffffffffffffffffffffffffffffffffffffffffffffffffffffff90505f5b5f8054905081101561088b57601f5f828154811061039d5761039c610ee9565b5b905f5260205f209060060201600401545f83815481106103c0576103bf610ee9565b5b905f5260205f209060060201600201546103da9190611239565b1015610605577fffffffffffffffffffffffffffffffffffffffffffffffffffffffffffffffff82101561047a575f80828154811061041c5761041b610ee9565b5b905f5260205f209060060201600401545f838154811061043f5761043e610ee9565b5b905f5260205f20906006020160020154620f424061045d9190611269565b6104679190611239565b905083811115610478578093508194505b505b60645f828154811061048f5761048e610ee9565b5b905f5260205f209060060201600301541015610528575f60025f83815481106104bb576104ba610ee9565b5b905f5260205f209060060201600501546104d59190611239565b5f83815481106104e8576104e7610ee9565b5b905f5260205f209060060201600301546306a6e1806105079190611239565b61051191906112aa565b905082811015610522578092508194505b50610600565b60645f828154811061053d5761053c610ee9565b5b905f5260205f2090600602016003015411156105ff575f60c85f838154811061056957610568610ee9565b5b905f5260205f209060060201600501545f848154811061058c5761058b610ee9565b5b905f5260205f209060060201600301546105a69190611269565b6105b09190611239565b5f83815481106105c3576105c2610ee9565b5b905f5260205f209060060201600301546306a6e1806105e29190611239565b6105ec91906112aa565b9050828110156105fd578092508194505b505b5b61087e565b601f5f828154811061061a57610619610ee9565b5b905f5260205f209060060201600401545f838154811061063d5761063c610ee9565b5b905f5260205f209060060201600201546106579190611239565b1061087d577fffffffffffffffffffffffffffffffffffffffffffffffffffffffffffffffff8210156106f6575f80828154811061069857610697610ee9565b5b905f5260205f209060060201600401545f83815481106106bb576106ba610ee9565b5b905f5260205f20906006020160020154620f42406106d99190611269565b6106e39190611239565b9050838111156106f4578093508194505b505b60645f828154811061070b5761070a610ee9565b5b905f5260205f2090600602016003015410156107a4575f60025f838154811061073757610736610ee9565b5b905f5260205f209060060201600501546107519190611239565b5f838154811061076457610763610ee9565b5b905f5260205f209060060201600301546306a6e1806107839190611239565b61078d91906112aa565b90508281101561079e578092508194505b5061087c565b60645f82815481106107b9576107b8610ee9565b5b905f5260205f20906006020160030154111561087b575f60c85f83815481106107e5576107e4610ee9565b5b905f5260205f209060060201600501545f848154811061080857610807610ee9565b5b905f5260205f209060060201600301546108229190611269565b61082c9190611239565b5f838154811061083f5761083e610ee9565b5b905f5260205f209060060201600301546306a6e18061085e9190611239565b61086891906112aa565b905082811015610879578092508194505b505b5b5b5b808060010191505061037c565b505f838154811061089f5761089e610ee9565b5b905f5260205f2090600602016040518060c00160405290815f820180546108c590610f43565b80601f01602080910402602001604051908101604052809291908181526020018280546108f190610f43565b801561093c5780601f106109135761010080835404028352916020019161093c565b820191905f5260205f20905b81548152906001019060200180831161091f57829003601f168201915b5050505050815260200160018201805461095590610f43565b80601f016020809104026020016040519081016040528092919081815260200182805461098190610f43565b80156109cc5780601f106109a3576101008083540402835291602001916109cc565b820191905f5260205f20905b8154815290600101906020018083116109af57829003601f168201915b50505050508152602001600282015481526020016003820154815260200160048201548152602001600582015481525050935050509091565b508054610a1190610f43565b5f825580601f10610a225750610a3f565b601f0160209004905f5260205f2090810190610a3e9190610a74565b5b50565b6040518060c0016040528060608152602001606081526020015f81526020015f81526020015f81526020015f81525090565b5b80821115610a8b575f815f905550600101610a75565b5090565b5f604051905090565b5f80fd5b5f80fd5b5f819050919050565b610ab281610aa0565b8114610abc575f80fd5b50565b5f81359050610acd81610aa9565b92915050565b5f60208284031215610ae857610ae7610a98565b5b5f610af584828501610abf565b91505092915050565b5f80fd5b5f80fd5b5f601f19601f8301169050919050565b7f4e487b71000000000000000000000000000000000000000000000000000000005f52604160045260245ffd5b610b4c82610b06565b810181811067ffffffffffffffff82111715610b6b57610b6a610b16565b5b80604052505050565b5f610b7d610a8f565b9050610b898282610b43565b919050565b5f67ffffffffffffffff821115610ba857610ba7610b16565b5b610bb182610b06565b9050602081019050919050565b828183375f83830152505050565b5f610bde610bd984610b8e565b610b74565b905082815260208101848484011115610bfa57610bf9610b02565b5b610c05848285610bbe565b509392505050565b5f82601f830112610c2157610c20610afe565b5b8135610c31848260208601610bcc565b91505092915050565b5f805f805f8060c08789031215610c5457610c53610a98565b5b5f87013567ffffffffffffffff811115610c7157610c70610a9c565b5b610c7d89828a01610c0d565b965050602087013567ffffffffffffffff811115610c9e57610c9d610a9c565b5b610caa89828a01610c0d565b9550506040610cbb89828a01610abf565b9450506060610ccc89828a01610abf565b9350506080610cdd89828a01610abf565b92505060a0610cee89828a01610abf565b9150509295509295509295565b5f81519050919050565b5f82825260208201905092915050565b8281835e5f83830152505050565b5f610d2d82610cfb565b610d378185610d05565b9350610d47818560208601610d15565b610d5081610b06565b840191505092915050565b610d6481610aa0565b82525050565b5f60c0820190508181035f830152610d828189610d23565b90508181036020830152610d968188610d23565b9050610da56040830187610d5b565b610db26060830186610d5b565b610dbf6080830185610d5b565b610dcc60a0830184610d5b565b979650505050505050565b5f82825260208201905092915050565b5f610df182610cfb565b610dfb8185610dd7565b9350610e0b818560208601610d15565b610e1481610b06565b840191505092915050565b610e2881610aa0565b82525050565b5f60c083015f8301518482035f860152610e488282610de7565b91505060208301518482036020860152610e628282610de7565b9150506040830151610e776040860182610e1f565b506060830151610e8a6060860182610e1f565b506080830151610e9d6080860182610e1f565b5060a0830151610eb060a0860182610e1f565b508091505092915050565b5f6040820190508181035f830152610ed38185610e2e565b9050610ee26020830184610d5b565b9392505050565b7f4e487b71000000000000000000000000000000000000000000000000000000005f52603260045260245ffd5b7f4e487b71000000000000000000000000000000000000000000000000000000005f52602260045260245ffd5b5f6002820490506001821680610f5a57607f821691505b602082108103610f6d57610f6c610f16565b5b50919050565b5f819050815f5260205f209050919050565b5f6020601f8301049050919050565b5f82821b905092915050565b5f60088302610fcf7fffffffffffffffffffffffffffffffffffffffffffffffffffffffffffffffff82610f94565b610fd98683610f94565b95508019841693508086168417925050509392505050565b5f819050919050565b5f61101461100f61100a84610aa0565b610ff1565b610aa0565b9050919050565b5f819050919050565b61102d83610ffa565b6110416110398261101b565b848454610fa0565b825550505050565b5f90565b611055611049565b611060818484611024565b505050565b5b81811015611083576110785f8261104d565b600181019050611066565b5050565b601f8211156110c85761109981610f73565b6110a284610f85565b810160208510156110b1578190505b6110c56110bd85610f85565b830182611065565b50505b505050565b5f82821c905092915050565b5f6110e85f19846008026110cd565b1980831691505092915050565b5f61110083836110d9565b9150826002028217905092915050565b61111982610cfb565b67ffffffffffffffff81111561113257611131610b16565b5b61113c8254610f43565b611147828285611087565b5f60209050601f831160018114611178575f8415611166578287015190505b61117085826110f5565b8655506111d7565b601f19841661118686610f73565b5f5b828110156111ad57848901518255600182019150602085019450602081019050611188565b868310156111ca57848901516111c6601f8916826110d9565b8355505b6001600288020188555050505b505050505050565b7f4e487b71000000000000000000000000000000000000000000000000000000005f52601260045260245ffd5b7f4e487b71000000000000000000000000000000000000000000000000000000005f52601160045260245ffd5b5f61124382610aa0565b915061124e83610aa0565b92508261125e5761125d6111df565b5b828204905092915050565b5f61127382610aa0565b915061127e83610aa0565b925082820261128c81610aa0565b915082820484148315176112a3576112a261120c565b5b5092915050565b5f6112b482610aa0565b91506112bf83610aa0565b92508282019050808211156112d7576112d661120c565b5b9291505056fea2646970667358221220ee8d11298276cf1931dd11efd5bf5e6599c2be2539c19a5e40ad6a882c3654ee64736f6c634300081a0033",
					"opcodes": "PUSH1 0x80 PUSH1 0x40 MSTORE CALLVALUE DUP1 ISZERO PUSH1 0xE JUMPI PUSH0 DUP1 REVERT JUMPDEST POP PUSH2 0x1313 DUP1 PUSH2 0x1C PUSH0 CODECOPY PUSH0 RETURN INVALID PUSH1 0x80 PUSH1 0x40 MSTORE CALLVALUE DUP1 ISZERO PUSH2 0xF JUMPI PUSH0 DUP1 REVERT JUMPDEST POP PUSH1 0x4 CALLDATASIZE LT PUSH2 0x4A JUMPI PUSH0 CALLDATALOAD PUSH1 0xE0 SHR DUP1 PUSH4 0x3302B00E EQ PUSH2 0x4E JUMPI DUP1 PUSH4 0x6815D520 EQ PUSH2 0x6A JUMPI DUP1 PUSH4 0x98019748 EQ PUSH2 0x86 JUMPI DUP1 PUSH4 0xD2056595 EQ PUSH2 0xBB JUMPI JUMPDEST PUSH0 DUP1 REVERT JUMPDEST PUSH2 0x68 PUSH1 0x4 DUP1 CALLDATASIZE SUB DUP2 ADD SWAP1 PUSH2 0x63 SWAP2 SWAP1 PUSH2 0xAD3 JUMP JUMPDEST PUSH2 0xDA JUMP JUMPDEST STOP JUMPDEST PUSH2 0x84 PUSH1 0x4 DUP1 CALLDATASIZE SUB DUP2 ADD SWAP1 PUSH2 0x7F SWAP2 SWAP1 PUSH2 0xC3A JUMP JUMPDEST PUSH2 0x147 JUMP JUMPDEST STOP JUMPDEST PUSH2 0xA0 PUSH1 0x4 DUP1 CALLDATASIZE SUB DUP2 ADD SWAP1 PUSH2 0x9B SWAP2 SWAP1 PUSH2 0xAD3 JUMP JUMPDEST PUSH2 0x1F7 JUMP JUMPDEST PUSH1 0x40 MLOAD PUSH2 0xB2 SWAP7 SWAP6 SWAP5 SWAP4 SWAP3 SWAP2 SWAP1 PUSH2 0xD6A JUMP JUMPDEST PUSH1 0x40 MLOAD DUP1 SWAP2 SUB SWAP1 RETURN JUMPDEST PUSH2 0xC3 PUSH2 0x349 JUMP JUMPDEST PUSH1 0x40 MLOAD PUSH2 0xD1 SWAP3 SWAP2 SWAP1 PUSH2 0xEBB JUMP JUMPDEST PUSH1 0x40 MLOAD DUP1 SWAP2 SUB SWAP1 RETURN JUMPDEST PUSH0 DUP1 SLOAD SWAP1 POP DUP2 LT PUSH2 0xE9 JUMPI PUSH0 DUP1 REVERT JUMPDEST PUSH0 DUP2 DUP2 SLOAD DUP2 LT PUSH2 0xFC JUMPI PUSH2 0xFB PUSH2 0xEE9 JUMP JUMPDEST JUMPDEST SWAP1 PUSH0 MSTORE PUSH1 0x20 PUSH0 KECCAK256 SWAP1 PUSH1 0x6 MUL ADD PUSH0 DUP1 DUP3 ADD PUSH0 PUSH2 0x117 SWAP2 SWAP1 PUSH2 0xA05 JUMP JUMPDEST PUSH1 0x1 DUP3 ADD PUSH0 PUSH2 0x126 SWAP2 SWAP1 PUSH2 0xA05 JUMP JUMPDEST PUSH1 0x2 DUP3 ADD PUSH0 SWAP1 SSTORE PUSH1 0x3 DUP3 ADD PUSH0 SWAP1 SSTORE PUSH1 0x4 DUP3 ADD PUSH0 SWAP1 SSTORE PUSH1 0x5 DUP3 ADD PUSH0 SWAP1 SSTORE POP POP POP JUMP JUMPDEST PUSH0 PUSH1 0x40 MLOAD DUP1 PUSH1 0xC0 ADD PUSH1 0x40 MSTORE DUP1 DUP9 DUP2 MSTORE PUSH1 0x20 ADD DUP8 DUP2 MSTORE PUSH1 0x20 ADD DUP7 DUP2 MSTORE PUSH1 0x20 ADD DUP6 DUP2 MSTORE PUSH1 0x20 ADD DUP5 DUP2 MSTORE PUSH1 0x20 ADD DUP4 DUP2 MSTORE POP SWAP1 DUP1 PUSH1 0x1 DUP2 SLOAD ADD DUP1 DUP3 SSTORE DUP1 SWAP2 POP POP PUSH1 0x1 SWAP1 SUB SWAP1 PUSH0 MSTORE PUSH1 0x20 PUSH0 KECCAK256 SWAP1 PUSH1 0x6 MUL ADD PUSH0 SWAP1 SWAP2 SWAP1 SWAP2 SWAP1 SWAP2 POP PUSH0 DUP3 ADD MLOAD DUP2 PUSH0 ADD SWAP1 DUP2 PUSH2 0x1AE SWAP2 SWAP1 PUSH2 0x1110 JUMP JUMPDEST POP PUSH1 0x20 DUP3 ADD MLOAD DUP2 PUSH1 0x1 ADD SWAP1 DUP2 PUSH2 0x1C4 SWAP2 SWAP1 PUSH2 0x1110 JUMP JUMPDEST POP PUSH1 0x40 DUP3 ADD MLOAD DUP2 PUSH1 0x2 ADD SSTORE PUSH1 0x60 DUP3 ADD MLOAD DUP2 PUSH1 0x3 ADD SSTORE PUSH1 0x80 DUP3 ADD MLOAD DUP2 PUSH1 0x4 ADD SSTORE PUSH1 0xA0 DUP3 ADD MLOAD DUP2 PUSH1 0x5 ADD SSTORE POP POP POP POP POP POP POP POP JUMP JUMPDEST PUSH0 DUP2 DUP2 SLOAD DUP2 LT PUSH2 0x205 JUMPI PUSH0 DUP1 REVERT JUMPDEST SWAP1 PUSH0 MSTORE PUSH1 0x20 PUSH0 KECCAK256 SWAP1 PUSH1 0x6 MUL ADD PUSH0 SWAP2 POP SWAP1 POP DUP1 PUSH0 ADD DUP1 SLOAD PUSH2 0x224 SWAP1 PUSH2 0xF43 JUMP JUMPDEST DUP1 PUSH1 0x1F ADD PUSH1 0x20 DUP1 SWAP2 DIV MUL PUSH1 0x20 ADD PUSH1 0x40 MLOAD SWAP1 DUP2 ADD PUSH1 0x40 MSTORE DUP1 SWAP3 SWAP2 SWAP1 DUP2 DUP2 MSTORE PUSH1 0x20 ADD DUP3 DUP1 SLOAD PUSH2 0x250 SWAP1 PUSH2 0xF43 JUMP JUMPDEST DUP1 ISZERO PUSH2 0x29B JUMPI DUP1 PUSH1 0x1F LT PUSH2 0x272 JUMPI PUSH2 0x100 DUP1 DUP4 SLOAD DIV MUL DUP4 MSTORE SWAP2 PUSH1 0x20 ADD SWAP2 PUSH2 0x29B JUMP JUMPDEST DUP3 ADD SWAP2 SWAP1 PUSH0 MSTORE PUSH1 0x20 PUSH0 KECCAK256 SWAP1 JUMPDEST DUP2 SLOAD DUP2 MSTORE SWAP1 PUSH1 0x1 ADD SWAP1 PUSH1 0x20 ADD DUP1 DUP4 GT PUSH2 0x27E JUMPI DUP3 SWAP1 SUB PUSH1 0x1F AND DUP3 ADD SWAP2 JUMPDEST POP POP POP POP POP SWAP1 DUP1 PUSH1 0x1 ADD DUP1 SLOAD PUSH2 0x2B0 SWAP1 PUSH2 0xF43 JUMP JUMPDEST DUP1 PUSH1 0x1F ADD PUSH1 0x20 DUP1 SWAP2 DIV MUL PUSH1 0x20 ADD PUSH1 0x40 MLOAD SWAP1 DUP2 ADD PUSH1 0x40 MSTORE DUP1 SWAP3 SWAP2 SWAP1 DUP2 DUP2 MSTORE PUSH1 0x20 ADD DUP3 DUP1 SLOAD PUSH2 0x2DC SWAP1 PUSH2 0xF43 JUMP JUMPDEST DUP1 ISZERO PUSH2 0x327 JUMPI DUP1 PUSH1 0x1F LT PUSH2 0x2FE JUMPI PUSH2 0x100 DUP1 DUP4 SLOAD DIV MUL DUP4 MSTORE SWAP2 PUSH1 0x20 ADD SWAP2 PUSH2 0x327 JUMP JUMPDEST DUP3 ADD SWAP2 SWAP1 PUSH0 MSTORE PUSH1 0x20 PUSH0 KECCAK256 SWAP1 JUMPDEST DUP2 SLOAD DUP2 MSTORE SWAP1 PUSH1 0x1 ADD SWAP1 PUSH1 0x20 ADD DUP1 DUP4 GT PUSH2 0x30A JUMPI DUP3 SWAP1 SUB PUSH1 0x1F AND DUP3 ADD SWAP2 JUMPDEST POP POP POP POP POP SWAP1 DUP1 PUSH1 0x2 ADD SLOAD SWAP1 DUP1 PUSH1 0x3 ADD SLOAD SWAP1 DUP1 PUSH1 0x4 ADD SLOAD SWAP1 DUP1 PUSH1 0x5 ADD SLOAD SWAP1 POP DUP7 JUMP JUMPDEST PUSH2 0x351 PUSH2 0xA42 JUMP JUMPDEST PUSH0 DUP1 PUSH0 SWAP1 POP PUSH0 PUSH32 0xFFFFFFFFFFFFFFFFFFFFFFFFFFFFFFFFFFFFFFFFFFFFFFFFFFFFFFFFFFFFFFFF SWAP1 POP PUSH0 JUMPDEST PUSH0 DUP1 SLOAD SWAP1 POP DUP2 LT ISZERO PUSH2 0x88B JUMPI PUSH1 0x1F PUSH0 DUP3 DUP2 SLOAD DUP2 LT PUSH2 0x39D JUMPI PUSH2 0x39C PUSH2 0xEE9 JUMP JUMPDEST JUMPDEST SWAP1 PUSH0 MSTORE PUSH1 0x20 PUSH0 KECCAK256 SWAP1 PUSH1 0x6 MUL ADD PUSH1 0x4 ADD SLOAD PUSH0 DUP4 DUP2 SLOAD DUP2 LT PUSH2 0x3C0 JUMPI PUSH2 0x3BF PUSH2 0xEE9 JUMP JUMPDEST JUMPDEST SWAP1 PUSH0 MSTORE PUSH1 0x20 PUSH0 KECCAK256 SWAP1 PUSH1 0x6 MUL ADD PUSH1 0x2 ADD SLOAD PUSH2 0x3DA SWAP2 SWAP1 PUSH2 0x1239 JUMP JUMPDEST LT ISZERO PUSH2 0x605 JUMPI PUSH32 0xFFFFFFFFFFFFFFFFFFFFFFFFFFFFFFFFFFFFFFFFFFFFFFFFFFFFFFFFFFFFFFFF DUP3 LT ISZERO PUSH2 0x47A JUMPI PUSH0 DUP1 DUP3 DUP2 SLOAD DUP2 LT PUSH2 0x41C JUMPI PUSH2 0x41B PUSH2 0xEE9 JUMP JUMPDEST JUMPDEST SWAP1 PUSH0 MSTORE PUSH1 0x20 PUSH0 KECCAK256 SWAP1 PUSH1 0x6 MUL ADD PUSH1 0x4 ADD SLOAD PUSH0 DUP4 DUP2 SLOAD DUP2 LT PUSH2 0x43F JUMPI PUSH2 0x43E PUSH2 0xEE9 JUMP JUMPDEST JUMPDEST SWAP1 PUSH0 MSTORE PUSH1 0x20 PUSH0 KECCAK256 SWAP1 PUSH1 0x6 MUL ADD PUSH1 0x2 ADD SLOAD PUSH3 0xF4240 PUSH2 0x45D SWAP2 SWAP1 PUSH2 0x1269 JUMP JUMPDEST PUSH2 0x467 SWAP2 SWAP1 PUSH2 0x1239 JUMP JUMPDEST SWAP1 POP DUP4 DUP2 GT ISZERO PUSH2 0x478 JUMPI DUP1 SWAP4 POP DUP2 SWAP5 POP JUMPDEST POP JUMPDEST PUSH1 0x64 PUSH0 DUP3 DUP2 SLOAD DUP2 LT PUSH2 0x48F JUMPI PUSH2 0x48E PUSH2 0xEE9 JUMP JUMPDEST JUMPDEST SWAP1 PUSH0 MSTORE PUSH1 0x20 PUSH0 KECCAK256 SWAP1 PUSH1 0x6 MUL ADD PUSH1 0x3 ADD SLOAD LT ISZERO PUSH2 0x528 JUMPI PUSH0 PUSH1 0x2 PUSH0 DUP4 DUP2 SLOAD DUP2 LT PUSH2 0x4BB JUMPI PUSH2 0x4BA PUSH2 0xEE9 JUMP JUMPDEST JUMPDEST SWAP1 PUSH0 MSTORE PUSH1 0x20 PUSH0 KECCAK256 SWAP1 PUSH1 0x6 MUL ADD PUSH1 0x5 ADD SLOAD PUSH2 0x4D5 SWAP2 SWAP1 PUSH2 0x1239 JUMP JUMPDEST PUSH0 DUP4 DUP2 SLOAD DUP2 LT PUSH2 0x4E8 JUMPI PUSH2 0x4E7 PUSH2 0xEE9 JUMP JUMPDEST JUMPDEST SWAP1 PUSH0 MSTORE PUSH1 0x20 PUSH0 KECCAK256 SWAP1 PUSH1 0x6 MUL ADD PUSH1 0x3 ADD SLOAD PUSH4 0x6A6E180 PUSH2 0x507 SWAP2 SWAP1 PUSH2 0x1239 JUMP JUMPDEST PUSH2 0x511 SWAP2 SWAP1 PUSH2 0x12AA JUMP JUMPDEST SWAP1 POP DUP3 DUP2 LT ISZERO PUSH2 0x522 JUMPI DUP1 SWAP3 POP DUP2 SWAP5 POP JUMPDEST POP PUSH2 0x600 JUMP JUMPDEST PUSH1 0x64 PUSH0 DUP3 DUP2 SLOAD DUP2 LT PUSH2 0x53D JUMPI PUSH2 0x53C PUSH2 0xEE9 JUMP JUMPDEST JUMPDEST SWAP1 PUSH0 MSTORE PUSH1 0x20 PUSH0 KECCAK256 SWAP1 PUSH1 0x6 MUL ADD PUSH1 0x3 ADD SLOAD GT ISZERO PUSH2 0x5FF JUMPI PUSH0 PUSH1 0xC8 PUSH0 DUP4 DUP2 SLOAD DUP2 LT PUSH2 0x569 JUMPI PUSH2 0x568 PUSH2 0xEE9 JUMP JUMPDEST JUMPDEST SWAP1 PUSH0 MSTORE PUSH1 0x20 PUSH0 KECCAK256 SWAP1 PUSH1 0x6 MUL ADD PUSH1 0x5 ADD SLOAD PUSH0 DUP5 DUP2 SLOAD DUP2 LT PUSH2 0x58C JUMPI PUSH2 0x58B PUSH2 0xEE9 JUMP JUMPDEST JUMPDEST SWAP1 PUSH0 MSTORE PUSH1 0x20 PUSH0 KECCAK256 SWAP1 PUSH1 0x6 MUL ADD PUSH1 0x3 ADD SLOAD PUSH2 0x5A6 SWAP2 SWAP1 PUSH2 0x1269 JUMP JUMPDEST PUSH2 0x5B0 SWAP2 SWAP1 PUSH2 0x1239 JUMP JUMPDEST PUSH0 DUP4 DUP2 SLOAD DUP2 LT PUSH2 0x5C3 JUMPI PUSH2 0x5C2 PUSH2 0xEE9 JUMP JUMPDEST JUMPDEST SWAP1 PUSH0 MSTORE PUSH1 0x20 PUSH0 KECCAK256 SWAP1 PUSH1 0x6 MUL ADD PUSH1 0x3 ADD SLOAD PUSH4 0x6A6E180 PUSH2 0x5E2 SWAP2 SWAP1 PUSH2 0x1239 JUMP JUMPDEST PUSH2 0x5EC SWAP2 SWAP1 PUSH2 0x12AA JUMP JUMPDEST SWAP1 POP DUP3 DUP2 LT ISZERO PUSH2 0x5FD JUMPI DUP1 SWAP3 POP DUP2 SWAP5 POP JUMPDEST POP JUMPDEST JUMPDEST PUSH2 0x87E JUMP JUMPDEST PUSH1 0x1F PUSH0 DUP3 DUP2 SLOAD DUP2 LT PUSH2 0x61A JUMPI PUSH2 0x619 PUSH2 0xEE9 JUMP JUMPDEST JUMPDEST SWAP1 PUSH0 MSTORE PUSH1 0x20 PUSH0 KECCAK256 SWAP1 PUSH1 0x6 MUL ADD PUSH1 0x4 ADD SLOAD PUSH0 DUP4 DUP2 SLOAD DUP2 LT PUSH2 0x63D JUMPI PUSH2 0x63C PUSH2 0xEE9 JUMP JUMPDEST JUMPDEST SWAP1 PUSH0 MSTORE PUSH1 0x20 PUSH0 KECCAK256 SWAP1 PUSH1 0x6 MUL ADD PUSH1 0x2 ADD SLOAD PUSH2 0x657 SWAP2 SWAP1 PUSH2 0x1239 JUMP JUMPDEST LT PUSH2 0x87D JUMPI PUSH32 0xFFFFFFFFFFFFFFFFFFFFFFFFFFFFFFFFFFFFFFFFFFFFFFFFFFFFFFFFFFFFFFFF DUP3 LT ISZERO PUSH2 0x6F6 JUMPI PUSH0 DUP1 DUP3 DUP2 SLOAD DUP2 LT PUSH2 0x698 JUMPI PUSH2 0x697 PUSH2 0xEE9 JUMP JUMPDEST JUMPDEST SWAP1 PUSH0 MSTORE PUSH1 0x20 PUSH0 KECCAK256 SWAP1 PUSH1 0x6 MUL ADD PUSH1 0x4 ADD SLOAD PUSH0 DUP4 DUP2 SLOAD DUP2 LT PUSH2 0x6BB JUMPI PUSH2 0x6BA PUSH2 0xEE9 JUMP JUMPDEST JUMPDEST SWAP1 PUSH0 MSTORE PUSH1 0x20 PUSH0 KECCAK256 SWAP1 PUSH1 0x6 MUL ADD PUSH1 0x2 ADD SLOAD PUSH3 0xF4240 PUSH2 0x6D9 SWAP2 SWAP1 PUSH2 0x1269 JUMP JUMPDEST PUSH2 0x6E3 SWAP2 SWAP1 PUSH2 0x1239 JUMP JUMPDEST SWAP1 POP DUP4 DUP2 GT ISZERO PUSH2 0x6F4 JUMPI DUP1 SWAP4 POP DUP2 SWAP5 POP JUMPDEST POP JUMPDEST PUSH1 0x64 PUSH0 DUP3 DUP2 SLOAD DUP2 LT PUSH2 0x70B JUMPI PUSH2 0x70A PUSH2 0xEE9 JUMP JUMPDEST JUMPDEST SWAP1 PUSH0 MSTORE PUSH1 0x20 PUSH0 KECCAK256 SWAP1 PUSH1 0x6 MUL ADD PUSH1 0x3 ADD SLOAD LT ISZERO PUSH2 0x7A4 JUMPI PUSH0 PUSH1 0x2 PUSH0 DUP4 DUP2 SLOAD DUP2 LT PUSH2 0x737 JUMPI PUSH2 0x736 PUSH2 0xEE9 JUMP JUMPDEST JUMPDEST SWAP1 PUSH0 MSTORE PUSH1 0x20 PUSH0 KECCAK256 SWAP1 PUSH1 0x6 MUL ADD PUSH1 0x5 ADD SLOAD PUSH2 0x751 SWAP2 SWAP1 PUSH2 0x1239 JUMP JUMPDEST PUSH0 DUP4 DUP2 SLOAD DUP2 LT PUSH2 0x764 JUMPI PUSH2 0x763 PUSH2 0xEE9 JUMP JUMPDEST JUMPDEST SWAP1 PUSH0 MSTORE PUSH1 0x20 PUSH0 KECCAK256 SWAP1 PUSH1 0x6 MUL ADD PUSH1 0x3 ADD SLOAD PUSH4 0x6A6E180 PUSH2 0x783 SWAP2 SWAP1 PUSH2 0x1239 JUMP JUMPDEST PUSH2 0x78D SWAP2 SWAP1 PUSH2 0x12AA JUMP JUMPDEST SWAP1 POP DUP3 DUP2 LT ISZERO PUSH2 0x79E JUMPI DUP1 SWAP3 POP DUP2 SWAP5 POP JUMPDEST POP PUSH2 0x87C JUMP JUMPDEST PUSH1 0x64 PUSH0 DUP3 DUP2 SLOAD DUP2 LT PUSH2 0x7B9 JUMPI PUSH2 0x7B8 PUSH2 0xEE9 JUMP JUMPDEST JUMPDEST SWAP1 PUSH0 MSTORE PUSH1 0x20 PUSH0 KECCAK256 SWAP1 PUSH1 0x6 MUL ADD PUSH1 0x3 ADD SLOAD GT ISZERO PUSH2 0x87B JUMPI PUSH0 PUSH1 0xC8 PUSH0 DUP4 DUP2 SLOAD DUP2 LT PUSH2 0x7E5 JUMPI PUSH2 0x7E4 PUSH2 0xEE9 JUMP JUMPDEST JUMPDEST SWAP1 PUSH0 MSTORE PUSH1 0x20 PUSH0 KECCAK256 SWAP1 PUSH1 0x6 MUL ADD PUSH1 0x5 ADD SLOAD PUSH0 DUP5 DUP2 SLOAD DUP2 LT PUSH2 0x808 JUMPI PUSH2 0x807 PUSH2 0xEE9 JUMP JUMPDEST JUMPDEST SWAP1 PUSH0 MSTORE PUSH1 0x20 PUSH0 KECCAK256 SWAP1 PUSH1 0x6 MUL ADD PUSH1 0x3 ADD SLOAD PUSH2 0x822 SWAP2 SWAP1 PUSH2 0x1269 JUMP JUMPDEST PUSH2 0x82C SWAP2 SWAP1 PUSH2 0x1239 JUMP JUMPDEST PUSH0 DUP4 DUP2 SLOAD DUP2 LT PUSH2 0x83F JUMPI PUSH2 0x83E PUSH2 0xEE9 JUMP JUMPDEST JUMPDEST SWAP1 PUSH0 MSTORE PUSH1 0x20 PUSH0 KECCAK256 SWAP1 PUSH1 0x6 MUL ADD PUSH1 0x3 ADD SLOAD PUSH4 0x6A6E180 PUSH2 0x85E SWAP2 SWAP1 PUSH2 0x1239 JUMP JUMPDEST PUSH2 0x868 SWAP2 SWAP1 PUSH2 0x12AA JUMP JUMPDEST SWAP1 POP DUP3 DUP2 LT ISZERO PUSH2 0x879 JUMPI DUP1 SWAP3 POP DUP2 SWAP5 POP JUMPDEST POP JUMPDEST JUMPDEST JUMPDEST JUMPDEST DUP1 DUP1 PUSH1 0x1 ADD SWAP2 POP POP PUSH2 0x37C JUMP JUMPDEST POP PUSH0 DUP4 DUP2 SLOAD DUP2 LT PUSH2 0x89F JUMPI PUSH2 0x89E PUSH2 0xEE9 JUMP JUMPDEST JUMPDEST SWAP1 PUSH0 MSTORE PUSH1 0x20 PUSH0 KECCAK256 SWAP1 PUSH1 0x6 MUL ADD PUSH1 0x40 MLOAD DUP1 PUSH1 0xC0 ADD PUSH1 0x40 MSTORE SWAP1 DUP2 PUSH0 DUP3 ADD DUP1 SLOAD PUSH2 0x8C5 SWAP1 PUSH2 0xF43 JUMP JUMPDEST DUP1 PUSH1 0x1F ADD PUSH1 0x20 DUP1 SWAP2 DIV MUL PUSH1 0x20 ADD PUSH1 0x40 MLOAD SWAP1 DUP2 ADD PUSH1 0x40 MSTORE DUP1 SWAP3 SWAP2 SWAP1 DUP2 DUP2 MSTORE PUSH1 0x20 ADD DUP3 DUP1 SLOAD PUSH2 0x8F1 SWAP1 PUSH2 0xF43 JUMP JUMPDEST DUP1 ISZERO PUSH2 0x93C JUMPI DUP1 PUSH1 0x1F LT PUSH2 0x913 JUMPI PUSH2 0x100 DUP1 DUP4 SLOAD DIV MUL DUP4 MSTORE SWAP2 PUSH1 0x20 ADD SWAP2 PUSH2 0x93C JUMP JUMPDEST DUP3 ADD SWAP2 SWAP1 PUSH0 MSTORE PUSH1 0x20 PUSH0 KECCAK256 SWAP1 JUMPDEST DUP2 SLOAD DUP2 MSTORE SWAP1 PUSH1 0x1 ADD SWAP1 PUSH1 0x20 ADD DUP1 DUP4 GT PUSH2 0x91F JUMPI DUP3 SWAP1 SUB PUSH1 0x1F AND DUP3 ADD SWAP2 JUMPDEST POP POP POP POP POP DUP2 MSTORE PUSH1 0x20 ADD PUSH1 0x1 DUP3 ADD DUP1 SLOAD PUSH2 0x955 SWAP1 PUSH2 0xF43 JUMP JUMPDEST DUP1 PUSH1 0x1F ADD PUSH1 0x20 DUP1 SWAP2 DIV MUL PUSH1 0x20 ADD PUSH1 0x40 MLOAD SWAP1 DUP2 ADD PUSH1 0x40 MSTORE DUP1 SWAP3 SWAP2 SWAP1 DUP2 DUP2 MSTORE PUSH1 0x20 ADD DUP3 DUP1 SLOAD PUSH2 0x981 SWAP1 PUSH2 0xF43 JUMP JUMPDEST DUP1 ISZERO PUSH2 0x9CC JUMPI DUP1 PUSH1 0x1F LT PUSH2 0x9A3 JUMPI PUSH2 0x100 DUP1 DUP4 SLOAD DIV MUL DUP4 MSTORE SWAP2 PUSH1 0x20 ADD SWAP2 PUSH2 0x9CC JUMP JUMPDEST DUP3 ADD SWAP2 SWAP1 PUSH0 MSTORE PUSH1 0x20 PUSH0 KECCAK256 SWAP1 JUMPDEST DUP2 SLOAD DUP2 MSTORE SWAP1 PUSH1 0x1 ADD SWAP1 PUSH1 0x20 ADD DUP1 DUP4 GT PUSH2 0x9AF JUMPI DUP3 SWAP1 SUB PUSH1 0x1F AND DUP3 ADD SWAP2 JUMPDEST POP POP POP POP POP DUP2 MSTORE PUSH1 0x20 ADD PUSH1 0x2 DUP3 ADD SLOAD DUP2 MSTORE PUSH1 0x20 ADD PUSH1 0x3 DUP3 ADD SLOAD DUP2 MSTORE PUSH1 0x20 ADD PUSH1 0x4 DUP3 ADD SLOAD DUP2 MSTORE PUSH1 0x20 ADD PUSH1 0x5 DUP3 ADD SLOAD DUP2 MSTORE POP POP SWAP4 POP POP POP SWAP1 SWAP2 JUMP JUMPDEST POP DUP1 SLOAD PUSH2 0xA11 SWAP1 PUSH2 0xF43 JUMP JUMPDEST PUSH0 DUP3 SSTORE DUP1 PUSH1 0x1F LT PUSH2 0xA22 JUMPI POP PUSH2 0xA3F JUMP JUMPDEST PUSH1 0x1F ADD PUSH1 0x20 SWAP1 DIV SWAP1 PUSH0 MSTORE PUSH1 0x20 PUSH0 KECCAK256 SWAP1 DUP2 ADD SWAP1 PUSH2 0xA3E SWAP2 SWAP1 PUSH2 0xA74 JUMP JUMPDEST JUMPDEST POP JUMP JUMPDEST PUSH1 0x40 MLOAD DUP1 PUSH1 0xC0 ADD PUSH1 0x40 MSTORE DUP1 PUSH1 0x60 DUP2 MSTORE PUSH1 0x20 ADD PUSH1 0x60 DUP2 MSTORE PUSH1 0x20 ADD PUSH0 DUP2 MSTORE PUSH1 0x20 ADD PUSH0 DUP2 MSTORE PUSH1 0x20 ADD PUSH0 DUP2 MSTORE PUSH1 0x20 ADD PUSH0 DUP2 MSTORE POP SWAP1 JUMP JUMPDEST JUMPDEST DUP1 DUP3 GT ISZERO PUSH2 0xA8B JUMPI PUSH0 DUP2 PUSH0 SWAP1 SSTORE POP PUSH1 0x1 ADD PUSH2 0xA75 JUMP JUMPDEST POP SWAP1 JUMP JUMPDEST PUSH0 PUSH1 0x40 MLOAD SWAP1 POP SWAP1 JUMP JUMPDEST PUSH0 DUP1 REVERT JUMPDEST PUSH0 DUP1 REVERT JUMPDEST PUSH0 DUP2 SWAP1 POP SWAP2 SWAP1 POP JUMP JUMPDEST PUSH2 0xAB2 DUP2 PUSH2 0xAA0 JUMP JUMPDEST DUP2 EQ PUSH2 0xABC JUMPI PUSH0 DUP1 REVERT JUMPDEST POP JUMP JUMPDEST PUSH0 DUP2 CALLDATALOAD SWAP1 POP PUSH2 0xACD DUP2 PUSH2 0xAA9 JUMP JUMPDEST SWAP3 SWAP2 POP POP JUMP JUMPDEST PUSH0 PUSH1 0x20 DUP3 DUP5 SUB SLT ISZERO PUSH2 0xAE8 JUMPI PUSH2 0xAE7 PUSH2 0xA98 JUMP JUMPDEST JUMPDEST PUSH0 PUSH2 0xAF5 DUP5 DUP3 DUP6 ADD PUSH2 0xABF JUMP JUMPDEST SWAP2 POP POP SWAP3 SWAP2 POP POP JUMP JUMPDEST PUSH0 DUP1 REVERT JUMPDEST PUSH0 DUP1 REVERT JUMPDEST PUSH0 PUSH1 0x1F NOT PUSH1 0x1F DUP4 ADD AND SWAP1 POP SWAP2 SWAP1 POP JUMP JUMPDEST PUSH32 0x4E487B7100000000000000000000000000000000000000000000000000000000 PUSH0 MSTORE PUSH1 0x41 PUSH1 0x4 MSTORE PUSH1 0x24 PUSH0 REVERT JUMPDEST PUSH2 0xB4C DUP3 PUSH2 0xB06 JUMP JUMPDEST DUP2 ADD DUP2 DUP2 LT PUSH8 0xFFFFFFFFFFFFFFFF DUP3 GT OR ISZERO PUSH2 0xB6B JUMPI PUSH2 0xB6A PUSH2 0xB16 JUMP JUMPDEST JUMPDEST DUP1 PUSH1 0x40 MSTORE POP POP POP JUMP JUMPDEST PUSH0 PUSH2 0xB7D PUSH2 0xA8F JUMP JUMPDEST SWAP1 POP PUSH2 0xB89 DUP3 DUP3 PUSH2 0xB43 JUMP JUMPDEST SWAP2 SWAP1 POP JUMP JUMPDEST PUSH0 PUSH8 0xFFFFFFFFFFFFFFFF DUP3 GT ISZERO PUSH2 0xBA8 JUMPI PUSH2 0xBA7 PUSH2 0xB16 JUMP JUMPDEST JUMPDEST PUSH2 0xBB1 DUP3 PUSH2 0xB06 JUMP JUMPDEST SWAP1 POP PUSH1 0x20 DUP2 ADD SWAP1 POP SWAP2 SWAP1 POP JUMP JUMPDEST DUP3 DUP2 DUP4 CALLDATACOPY PUSH0 DUP4 DUP4 ADD MSTORE POP POP POP JUMP JUMPDEST PUSH0 PUSH2 0xBDE PUSH2 0xBD9 DUP5 PUSH2 0xB8E JUMP JUMPDEST PUSH2 0xB74 JUMP JUMPDEST SWAP1 POP DUP3 DUP2 MSTORE PUSH1 0x20 DUP2 ADD DUP5 DUP5 DUP5 ADD GT ISZERO PUSH2 0xBFA JUMPI PUSH2 0xBF9 PUSH2 0xB02 JUMP JUMPDEST JUMPDEST PUSH2 0xC05 DUP5 DUP3 DUP6 PUSH2 0xBBE JUMP JUMPDEST POP SWAP4 SWAP3 POP POP POP JUMP JUMPDEST PUSH0 DUP3 PUSH1 0x1F DUP4 ADD SLT PUSH2 0xC21 JUMPI PUSH2 0xC20 PUSH2 0xAFE JUMP JUMPDEST JUMPDEST DUP2 CALLDATALOAD PUSH2 0xC31 DUP5 DUP3 PUSH1 0x20 DUP7 ADD PUSH2 0xBCC JUMP JUMPDEST SWAP2 POP POP SWAP3 SWAP2 POP POP JUMP JUMPDEST PUSH0 DUP1 PUSH0 DUP1 PUSH0 DUP1 PUSH1 0xC0 DUP8 DUP10 SUB SLT ISZERO PUSH2 0xC54 JUMPI PUSH2 0xC53 PUSH2 0xA98 JUMP JUMPDEST JUMPDEST PUSH0 DUP8 ADD CALLDATALOAD PUSH8 0xFFFFFFFFFFFFFFFF DUP2 GT ISZERO PUSH2 0xC71 JUMPI PUSH2 0xC70 PUSH2 0xA9C JUMP JUMPDEST JUMPDEST PUSH2 0xC7D DUP10 DUP3 DUP11 ADD PUSH2 0xC0D JUMP JUMPDEST SWAP7 POP POP PUSH1 0x20 DUP8 ADD CALLDATALOAD PUSH8 0xFFFFFFFFFFFFFFFF DUP2 GT ISZERO PUSH2 0xC9E JUMPI PUSH2 0xC9D PUSH2 0xA9C JUMP JUMPDEST JUMPDEST PUSH2 0xCAA DUP10 DUP3 DUP11 ADD PUSH2 0xC0D JUMP JUMPDEST SWAP6 POP POP PUSH1 0x40 PUSH2 0xCBB DUP10 DUP3 DUP11 ADD PUSH2 0xABF JUMP JUMPDEST SWAP5 POP POP PUSH1 0x60 PUSH2 0xCCC DUP10 DUP3 DUP11 ADD PUSH2 0xABF JUMP JUMPDEST SWAP4 POP POP PUSH1 0x80 PUSH2 0xCDD DUP10 DUP3 DUP11 ADD PUSH2 0xABF JUMP JUMPDEST SWAP3 POP POP PUSH1 0xA0 PUSH2 0xCEE DUP10 DUP3 DUP11 ADD PUSH2 0xABF JUMP JUMPDEST SWAP2 POP POP SWAP3 SWAP6 POP SWAP3 SWAP6 POP SWAP3 SWAP6 JUMP JUMPDEST PUSH0 DUP2 MLOAD SWAP1 POP SWAP2 SWAP1 POP JUMP JUMPDEST PUSH0 DUP3 DUP3 MSTORE PUSH1 0x20 DUP3 ADD SWAP1 POP SWAP3 SWAP2 POP POP JUMP JUMPDEST DUP3 DUP2 DUP4 MCOPY PUSH0 DUP4 DUP4 ADD MSTORE POP POP POP JUMP JUMPDEST PUSH0 PUSH2 0xD2D DUP3 PUSH2 0xCFB JUMP JUMPDEST PUSH2 0xD37 DUP2 DUP6 PUSH2 0xD05 JUMP JUMPDEST SWAP4 POP PUSH2 0xD47 DUP2 DUP6 PUSH1 0x20 DUP7 ADD PUSH2 0xD15 JUMP JUMPDEST PUSH2 0xD50 DUP2 PUSH2 0xB06 JUMP JUMPDEST DUP5 ADD SWAP2 POP POP SWAP3 SWAP2 POP POP JUMP JUMPDEST PUSH2 0xD64 DUP2 PUSH2 0xAA0 JUMP JUMPDEST DUP3 MSTORE POP POP JUMP JUMPDEST PUSH0 PUSH1 0xC0 DUP3 ADD SWAP1 POP DUP2 DUP2 SUB PUSH0 DUP4 ADD MSTORE PUSH2 0xD82 DUP2 DUP10 PUSH2 0xD23 JUMP JUMPDEST SWAP1 POP DUP2 DUP2 SUB PUSH1 0x20 DUP4 ADD MSTORE PUSH2 0xD96 DUP2 DUP9 PUSH2 0xD23 JUMP JUMPDEST SWAP1 POP PUSH2 0xDA5 PUSH1 0x40 DUP4 ADD DUP8 PUSH2 0xD5B JUMP JUMPDEST PUSH2 0xDB2 PUSH1 0x60 DUP4 ADD DUP7 PUSH2 0xD5B JUMP JUMPDEST PUSH2 0xDBF PUSH1 0x80 DUP4 ADD DUP6 PUSH2 0xD5B JUMP JUMPDEST PUSH2 0xDCC PUSH1 0xA0 DUP4 ADD DUP5 PUSH2 0xD5B JUMP JUMPDEST SWAP8 SWAP7 POP POP POP POP POP POP POP JUMP JUMPDEST PUSH0 DUP3 DUP3 MSTORE PUSH1 0x20 DUP3 ADD SWAP1 POP SWAP3 SWAP2 POP POP JUMP JUMPDEST PUSH0 PUSH2 0xDF1 DUP3 PUSH2 0xCFB JUMP JUMPDEST PUSH2 0xDFB DUP2 DUP6 PUSH2 0xDD7 JUMP JUMPDEST SWAP4 POP PUSH2 0xE0B DUP2 DUP6 PUSH1 0x20 DUP7 ADD PUSH2 0xD15 JUMP JUMPDEST PUSH2 0xE14 DUP2 PUSH2 0xB06 JUMP JUMPDEST DUP5 ADD SWAP2 POP POP SWAP3 SWAP2 POP POP JUMP JUMPDEST PUSH2 0xE28 DUP2 PUSH2 0xAA0 JUMP JUMPDEST DUP3 MSTORE POP POP JUMP JUMPDEST PUSH0 PUSH1 0xC0 DUP4 ADD PUSH0 DUP4 ADD MLOAD DUP5 DUP3 SUB PUSH0 DUP7 ADD MSTORE PUSH2 0xE48 DUP3 DUP3 PUSH2 0xDE7 JUMP JUMPDEST SWAP2 POP POP PUSH1 0x20 DUP4 ADD MLOAD DUP5 DUP3 SUB PUSH1 0x20 DUP7 ADD MSTORE PUSH2 0xE62 DUP3 DUP3 PUSH2 0xDE7 JUMP JUMPDEST SWAP2 POP POP PUSH1 0x40 DUP4 ADD MLOAD PUSH2 0xE77 PUSH1 0x40 DUP7 ADD DUP3 PUSH2 0xE1F JUMP JUMPDEST POP PUSH1 0x60 DUP4 ADD MLOAD PUSH2 0xE8A PUSH1 0x60 DUP7 ADD DUP3 PUSH2 0xE1F JUMP JUMPDEST POP PUSH1 0x80 DUP4 ADD MLOAD PUSH2 0xE9D PUSH1 0x80 DUP7 ADD DUP3 PUSH2 0xE1F JUMP JUMPDEST POP PUSH1 0xA0 DUP4 ADD MLOAD PUSH2 0xEB0 PUSH1 0xA0 DUP7 ADD DUP3 PUSH2 0xE1F JUMP JUMPDEST POP DUP1 SWAP2 POP POP SWAP3 SWAP2 POP POP JUMP JUMPDEST PUSH0 PUSH1 0x40 DUP3 ADD SWAP1 POP DUP2 DUP2 SUB PUSH0 DUP4 ADD MSTORE PUSH2 0xED3 DUP2 DUP6 PUSH2 0xE2E JUMP JUMPDEST SWAP1 POP PUSH2 0xEE2 PUSH1 0x20 DUP4 ADD DUP5 PUSH2 0xD5B JUMP JUMPDEST SWAP4 SWAP3 POP POP POP JUMP JUMPDEST PUSH32 0x4E487B7100000000000000000000000000000000000000000000000000000000 PUSH0 MSTORE PUSH1 0x32 PUSH1 0x4 MSTORE PUSH1 0x24 PUSH0 REVERT JUMPDEST PUSH32 0x4E487B7100000000000000000000000000000000000000000000000000000000 PUSH0 MSTORE PUSH1 0x22 PUSH1 0x4 MSTORE PUSH1 0x24 PUSH0 REVERT JUMPDEST PUSH0 PUSH1 0x2 DUP3 DIV SWAP1 POP PUSH1 0x1 DUP3 AND DUP1 PUSH2 0xF5A JUMPI PUSH1 0x7F DUP3 AND SWAP2 POP JUMPDEST PUSH1 0x20 DUP3 LT DUP2 SUB PUSH2 0xF6D JUMPI PUSH2 0xF6C PUSH2 0xF16 JUMP JUMPDEST JUMPDEST POP SWAP2 SWAP1 POP JUMP JUMPDEST PUSH0 DUP2 SWAP1 POP DUP2 PUSH0 MSTORE PUSH1 0x20 PUSH0 KECCAK256 SWAP1 POP SWAP2 SWAP1 POP JUMP JUMPDEST PUSH0 PUSH1 0x20 PUSH1 0x1F DUP4 ADD DIV SWAP1 POP SWAP2 SWAP1 POP JUMP JUMPDEST PUSH0 DUP3 DUP3 SHL SWAP1 POP SWAP3 SWAP2 POP POP JUMP JUMPDEST PUSH0 PUSH1 0x8 DUP4 MUL PUSH2 0xFCF PUSH32 0xFFFFFFFFFFFFFFFFFFFFFFFFFFFFFFFFFFFFFFFFFFFFFFFFFFFFFFFFFFFFFFFF DUP3 PUSH2 0xF94 JUMP JUMPDEST PUSH2 0xFD9 DUP7 DUP4 PUSH2 0xF94 JUMP JUMPDEST SWAP6 POP DUP1 NOT DUP5 AND SWAP4 POP DUP1 DUP7 AND DUP5 OR SWAP3 POP POP POP SWAP4 SWAP3 POP POP POP JUMP JUMPDEST PUSH0 DUP2 SWAP1 POP SWAP2 SWAP1 POP JUMP JUMPDEST PUSH0 PUSH2 0x1014 PUSH2 0x100F PUSH2 0x100A DUP5 PUSH2 0xAA0 JUMP JUMPDEST PUSH2 0xFF1 JUMP JUMPDEST PUSH2 0xAA0 JUMP JUMPDEST SWAP1 POP SWAP2 SWAP1 POP JUMP JUMPDEST PUSH0 DUP2 SWAP1 POP SWAP2 SWAP1 POP JUMP JUMPDEST PUSH2 0x102D DUP4 PUSH2 0xFFA JUMP JUMPDEST PUSH2 0x1041 PUSH2 0x1039 DUP3 PUSH2 0x101B JUMP JUMPDEST DUP5 DUP5 SLOAD PUSH2 0xFA0 JUMP JUMPDEST DUP3 SSTORE POP POP POP POP JUMP JUMPDEST PUSH0 SWAP1 JUMP JUMPDEST PUSH2 0x1055 PUSH2 0x1049 JUMP JUMPDEST PUSH2 0x1060 DUP2 DUP5 DUP5 PUSH2 0x1024 JUMP JUMPDEST POP POP POP JUMP JUMPDEST JUMPDEST DUP2 DUP2 LT ISZERO PUSH2 0x1083 JUMPI PUSH2 0x1078 PUSH0 DUP3 PUSH2 0x104D JUMP JUMPDEST PUSH1 0x1 DUP2 ADD SWAP1 POP PUSH2 0x1066 JUMP JUMPDEST POP POP JUMP JUMPDEST PUSH1 0x1F DUP3 GT ISZERO PUSH2 0x10C8 JUMPI PUSH2 0x1099 DUP2 PUSH2 0xF73 JUMP JUMPDEST PUSH2 0x10A2 DUP5 PUSH2 0xF85 JUMP JUMPDEST DUP2 ADD PUSH1 0x20 DUP6 LT ISZERO PUSH2 0x10B1 JUMPI DUP2 SWAP1 POP JUMPDEST PUSH2 0x10C5 PUSH2 0x10BD DUP6 PUSH2 0xF85 JUMP JUMPDEST DUP4 ADD DUP3 PUSH2 0x1065 JUMP JUMPDEST POP POP JUMPDEST POP POP POP JUMP JUMPDEST PUSH0 DUP3 DUP3 SHR SWAP1 POP SWAP3 SWAP2 POP POP JUMP JUMPDEST PUSH0 PUSH2 0x10E8 PUSH0 NOT DUP5 PUSH1 0x8 MUL PUSH2 0x10CD JUMP JUMPDEST NOT DUP1 DUP4 AND SWAP2 POP POP SWAP3 SWAP2 POP POP JUMP JUMPDEST PUSH0 PUSH2 0x1100 DUP4 DUP4 PUSH2 0x10D9 JUMP JUMPDEST SWAP2 POP DUP3 PUSH1 0x2 MUL DUP3 OR SWAP1 POP SWAP3 SWAP2 POP POP JUMP JUMPDEST PUSH2 0x1119 DUP3 PUSH2 0xCFB JUMP JUMPDEST PUSH8 0xFFFFFFFFFFFFFFFF DUP2 GT ISZERO PUSH2 0x1132 JUMPI PUSH2 0x1131 PUSH2 0xB16 JUMP JUMPDEST JUMPDEST PUSH2 0x113C DUP3 SLOAD PUSH2 0xF43 JUMP JUMPDEST PUSH2 0x1147 DUP3 DUP3 DUP6 PUSH2 0x1087 JUMP JUMPDEST PUSH0 PUSH1 0x20 SWAP1 POP PUSH1 0x1F DUP4 GT PUSH1 0x1 DUP2 EQ PUSH2 0x1178 JUMPI PUSH0 DUP5 ISZERO PUSH2 0x1166 JUMPI DUP3 DUP8 ADD MLOAD SWAP1 POP JUMPDEST PUSH2 0x1170 DUP6 DUP3 PUSH2 0x10F5 JUMP JUMPDEST DUP7 SSTORE POP PUSH2 0x11D7 JUMP JUMPDEST PUSH1 0x1F NOT DUP5 AND PUSH2 0x1186 DUP7 PUSH2 0xF73 JUMP JUMPDEST PUSH0 JUMPDEST DUP3 DUP2 LT ISZERO PUSH2 0x11AD JUMPI DUP5 DUP10 ADD MLOAD DUP3 SSTORE PUSH1 0x1 DUP3 ADD SWAP2 POP PUSH1 0x20 DUP6 ADD SWAP5 POP PUSH1 0x20 DUP2 ADD SWAP1 POP PUSH2 0x1188 JUMP JUMPDEST DUP7 DUP4 LT ISZERO PUSH2 0x11CA JUMPI DUP5 DUP10 ADD MLOAD PUSH2 0x11C6 PUSH1 0x1F DUP10 AND DUP3 PUSH2 0x10D9 JUMP JUMPDEST DUP4 SSTORE POP JUMPDEST PUSH1 0x1 PUSH1 0x2 DUP9 MUL ADD DUP9 SSTORE POP POP POP JUMPDEST POP POP POP POP POP POP JUMP JUMPDEST PUSH32 0x4E487B7100000000000000000000000000000000000000000000000000000000 PUSH0 MSTORE PUSH1 0x12 PUSH1 0x4 MSTORE PUSH1 0x24 PUSH0 REVERT JUMPDEST PUSH32 0x4E487B7100000000000000000000000000000000000000000000000000000000 PUSH0 MSTORE PUSH1 0x11 PUSH1 0x4 MSTORE PUSH1 0x24 PUSH0 REVERT JUMPDEST PUSH0 PUSH2 0x1243 DUP3 PUSH2 0xAA0 JUMP JUMPDEST SWAP2 POP PUSH2 0x124E DUP4 PUSH2 0xAA0 JUMP JUMPDEST SWAP3 POP DUP3 PUSH2 0x125E JUMPI PUSH2 0x125D PUSH2 0x11DF JUMP JUMPDEST JUMPDEST DUP3 DUP3 DIV SWAP1 POP SWAP3 SWAP2 POP POP JUMP JUMPDEST PUSH0 PUSH2 0x1273 DUP3 PUSH2 0xAA0 JUMP JUMPDEST SWAP2 POP PUSH2 0x127E DUP4 PUSH2 0xAA0 JUMP JUMPDEST SWAP3 POP DUP3 DUP3 MUL PUSH2 0x128C DUP2 PUSH2 0xAA0 JUMP JUMPDEST SWAP2 POP DUP3 DUP3 DIV DUP5 EQ DUP4 ISZERO OR PUSH2 0x12A3 JUMPI PUSH2 0x12A2 PUSH2 0x120C JUMP JUMPDEST JUMPDEST POP SWAP3 SWAP2 POP POP JUMP JUMPDEST PUSH0 PUSH2 0x12B4 DUP3 PUSH2 0xAA0 JUMP JUMPDEST SWAP2 POP PUSH2 0x12BF DUP4 PUSH2 0xAA0 JUMP JUMPDEST SWAP3 POP DUP3 DUP3 ADD SWAP1 POP DUP1 DUP3 GT ISZERO PUSH2 0x12D7 JUMPI PUSH2 0x12D6 PUSH2 0x120C JUMP JUMPDEST JUMPDEST SWAP3 SWAP2 POP POP JUMP INVALID LOG2 PUSH5 0x6970667358 0x22 SLT KECCAK256 0xEE DUP14 GT 0x29 DUP3 PUSH23 0xCF1931DD11EFD5BF5E6599C2BE2539C19A5E40AD6A882C CALLDATASIZE SLOAD 0xEE PUSH5 0x736F6C6343 STOP ADDMOD BYTE STOP CALLER "
				},
				"gasEstimates": {
					"creation": {
						"codeDepositCost": "976600",
						"executionCost": "1012",
						"totalCost": "977612"
					},
					"external": {
						"addTachka(string,string,uint256,uint256,uint256,uint256)": "infinite",
						"delTachka(uint256)": "infinite",
						"getTheBestTachkaInfo()": "infinite",
						"tachki(uint256)": "infinite"
					}
				},
				"methodIdentifiers": {
					"addTachka(string,string,uint256,uint256,uint256,uint256)": "6815d520",
					"delTachka(uint256)": "3302b00e",
					"getTheBestTachkaInfo()": "d2056595",
					"tachki(uint256)": "98019748"
				}
			},
			"storageLayout": {
				"storage": [
					{
						"astId": 18,
						"contract": "tachk1 (1).sol:superTachki",
						"label": "tachki",
						"offset": 0,
						"slot": "0",
						"type": "t_array(t_struct(tachkiD)14_storage)dyn_storage"
					}
				],
				"types": {
					"t_array(t_struct(tachkiD)14_storage)dyn_storage": {
						"base": "t_struct(tachkiD)14_storage",
						"encoding": "dynamic_array",
						"label": "struct superTachki.tachkiD[]",
						"numberOfBytes": "32"
					},
					"t_string_storage": {
						"encoding": "bytes",
						"label": "string",
						"numberOfBytes": "32"
					},
					"t_struct(tachkiD)14_storage": {
						"encoding": "inplace",
						"label": "struct superTachki.tachkiD",
						"members": [
							{
								"astId": 3,
								"contract": "tachk1 (1).sol:superTachki",
								"label": "brand",
								"offset": 0,
								"slot": "0",
								"type": "t_string_storage"
							},
							{
								"astId": 5,
								"contract": "tachk1 (1).sol:superTachki",
								"label": "color",
								"offset": 0,
								"slot": "1",
								"type": "t_string_storage"
							},
							{
								"astId": 7,
								"contract": "tachk1 (1).sol:superTachki",
								"label": "V",
								"offset": 0,
								"slot": "2",
								"type": "t_uint256"
							},
							{
								"astId": 9,
								"contract": "tachk1 (1).sol:superTachki",
								"label": "maxSpeed",
								"offset": 0,
								"slot": "3",
								"type": "t_uint256"
							},
							{
								"astId": 11,
								"contract": "tachk1 (1).sol:superTachki",
								"label": "fuelConsump",
								"offset": 0,
								"slot": "4",
								"type": "t_uint256"
							},
							{
								"astId": 13,
								"contract": "tachk1 (1).sol:superTachki",
								"label": "timeToD",
								"offset": 0,
								"slot": "5",
								"type": "t_uint256"
							}
						],
						"numberOfBytes": "192"
					},
					"t_uint256": {
						"encoding": "inplace",
						"label": "uint256",
						"numberOfBytes": "32"
					}
				}
			},
			"userdoc": {
				"kind": "user",
				"methods": {},
				"version": 1
			}
		}
	}
}