{
	"data": {
		"bytecode": {
			"linkReferences": {},
			"object": "6080604052348015600e575f80fd5b506115a38061001c5f395ff3fe608060405234801561000f575f80fd5b5060043610610055575f3560e01c806304005621146100595780633302b00e146100775780636815d5201461009357806398019748146100af578063f10cdccf146100e4575b5f80fd5b610061610103565b60405161006e9190610c2d565b60405180910390f35b610091600480360381019061008c9190610c88565b6102a5565b005b6100ad60048036038101906100a89190610ddf565b6103b9565b005b6100c960048036038101906100c49190610c88565b610469565b6040516100db96959493929190610ef7565b60405180910390f35b6100ec6105bb565b6040516100fa929190610ff1565b60405180910390f35b60605f805480602002602001604051908101604052809291908181526020015f905b8282101561029c578382905f5260205f2090600602016040518060c00160405290815f820180546101559061104c565b80601f01602080910402602001604051908101604052809291908181526020018280546101819061104c565b80156101cc5780601f106101a3576101008083540402835291602001916101cc565b820191905f5260205f20905b8154815290600101906020018083116101af57829003601f168201915b505050505081526020016001820180546101e59061104c565b80601f01602080910402602001604051908101604052809291908181526020018280546102119061104c565b801561025c5780601f106102335761010080835404028352916020019161025c565b820191905f5260205f20905b81548152906001019060200180831161023f57829003601f168201915b5050505050815260200160028201548152602001600382015481526020016004820154815260200160058201548152505081526020019060010190610125565b50505050905090565b5f8054905081106102b4575f80fd5b5f60015f805490506102c691906110a9565b815481106102d7576102d66110dc565b5b905f5260205f2090600602015f82815481106102f6576102f56110dc565b5b905f5260205f2090600602015f8201815f01908161031491906112bb565b506001820181600101908161032991906112bb565b50600282015481600201556003820154816003015560048201548160040155600582015481600501559050505f805480610366576103656113a0565b5b600190038181905f5260205f2090600602015f8082015f61038791906109d3565b600182015f61039691906109d3565b600282015f9055600382015f9055600482015f9055600582015f90555050905550565b5f6040518060c0016040528088815260200187815260200186815260200185815260200184815260200183815250908060018154018082558091505060019003905f5260205f2090600602015f909190919091505f820151815f01908161042091906113cd565b50602082015181600101908161043691906113cd565b5060408201518160020155606082015181600301556080820151816004015560a082015181600501555050505050505050565b5f8181548110610477575f80fd5b905f5260205f2090600602015f91509050805f0180546104969061104c565b80601f01602080910402602001604051908101604052809291908181526020018280546104c29061104c565b801561050d5780601f106104e45761010080835404028352916020019161050d565b820191905f5260205f20905b8154815290600101906020018083116104f057829003601f168201915b5050505050908060010180546105229061104c565b80601f016020809104026020016040519081016040528092919081815260200182805461054e9061104c565b80156105995780601f1061057057610100808354040283529160200191610599565b820191905f5260205f20905b81548152906001019060200180831161057c57829003601f168201915b5050505050908060020154908060030154908060040154908060050154905086565b6105c3610a10565b5f805f90505f7fffffffffffffffffffffffffffffffffffffffffffffffffffffffffffffffff90505f5b5f8054905081101561085957601f5f828154811061060f5761060e6110dc565b5b905f5260205f209060060201600401545f8381548110610632576106316110dc565b5b905f5260205f2090600602016002015461064c91906114c9565b10156106f9577fffffffffffffffffffffffffffffffffffffffffffffffffffffffffffffffff821061084c575f80828154811061068d5761068c6110dc565b5b905f5260205f209060060201600401545f83815481106106b0576106af6110dc565b5b905f5260205f20906006020160020154620f42406106ce91906114f9565b6106d891906114c9565b9050838111156106ed578093508194506106f3565b5061084c565b5061084b565b5f60645f838154811061070f5761070e6110dc565b5b905f5260205f2090600602016003015411156107c35760c85f838154811061073a576107396110dc565b5b905f5260205f209060060201600501545f848154811061075d5761075c6110dc565b5b905f5260205f2090600602016003015461077791906114f9565b61078191906114c9565b5f8381548110610794576107936110dc565b5b905f5260205f2090600602016003015462aa49c06107b291906114c9565b6107bc919061153a565b9050610830565b60025f83815481106107d8576107d76110dc565b5b905f5260205f209060060201600501546107f291906114c9565b5f8381548110610805576108046110dc565b5b905f5260205f2090600602016003015462aa49c061082391906114c9565b61082d919061153a565b90505b8281101561084357809250819450610849565b5061084c565b505b5b80806001019150506105ee565b505f838154811061086d5761086c6110dc565b5b905f5260205f2090600602016040518060c00160405290815f820180546108939061104c565b80601f01602080910402602001604051908101604052809291908181526020018280546108bf9061104c565b801561090a5780601f106108e15761010080835404028352916020019161090a565b820191905f5260205f20905b8154815290600101906020018083116108ed57829003601f168201915b505050505081526020016001820180546109239061104c565b80601f016020809104026020016040519081016040528092919081815260200182805461094f9061104c565b801561099a5780601f106109715761010080835404028352916020019161099a565b820191905f5260205f20905b81548152906001019060200180831161097d57829003601f168201915b50505050508152602001600282015481526020016003820154815260200160048201548152602001600582015481525050935050509091565b5080546109df9061104c565b5f825580601f106109f05750610a0d565b601f0160209004905f5260205f2090810190610a0c9190610a42565b5b50565b6040518060c0016040528060608152602001606081526020015f81526020015f81526020015f81526020015f81525090565b5b80821115610a59575f815f905550600101610a43565b5090565b5f81519050919050565b5f82825260208201905092915050565b5f819050602082019050919050565b5f81519050919050565b5f82825260208201905092915050565b8281835e5f83830152505050565b5f601f19601f8301169050919050565b5f610ac882610a86565b610ad28185610a90565b9350610ae2818560208601610aa0565b610aeb81610aae565b840191505092915050565b5f819050919050565b610b0881610af6565b82525050565b5f60c083015f8301518482035f860152610b288282610abe565b91505060208301518482036020860152610b428282610abe565b9150506040830151610b576040860182610aff565b506060830151610b6a6060860182610aff565b506080830151610b7d6080860182610aff565b5060a0830151610b9060a0860182610aff565b508091505092915050565b5f610ba68383610b0e565b905092915050565b5f602082019050919050565b5f610bc482610a5d565b610bce8185610a67565b935083602082028501610be085610a77565b805f5b85811015610c1b5784840389528151610bfc8582610b9b565b9450610c0783610bae565b925060208a01995050600181019050610be3565b50829750879550505050505092915050565b5f6020820190508181035f830152610c458184610bba565b905092915050565b5f604051905090565b5f80fd5b5f80fd5b610c6781610af6565b8114610c71575f80fd5b50565b5f81359050610c8281610c5e565b92915050565b5f60208284031215610c9d57610c9c610c56565b5b5f610caa84828501610c74565b91505092915050565b5f80fd5b5f80fd5b7f4e487b71000000000000000000000000000000000000000000000000000000005f52604160045260245ffd5b610cf182610aae565b810181811067ffffffffffffffff82111715610d1057610d0f610cbb565b5b80604052505050565b5f610d22610c4d565b9050610d2e8282610ce8565b919050565b5f67ffffffffffffffff821115610d4d57610d4c610cbb565b5b610d5682610aae565b9050602081019050919050565b828183375f83830152505050565b5f610d83610d7e84610d33565b610d19565b905082815260208101848484011115610d9f57610d9e610cb7565b5b610daa848285610d63565b509392505050565b5f82601f830112610dc657610dc5610cb3565b5b8135610dd6848260208601610d71565b91505092915050565b5f805f805f8060c08789031215610df957610df8610c56565b5b5f87013567ffffffffffffffff811115610e1657610e15610c5a565b5b610e2289828a01610db2565b965050602087013567ffffffffffffffff811115610e4357610e42610c5a565b5b610e4f89828a01610db2565b9550506040610e6089828a01610c74565b9450506060610e7189828a01610c74565b9350506080610e8289828a01610c74565b92505060a0610e9389828a01610c74565b9150509295509295509295565b5f82825260208201905092915050565b5f610eba82610a86565b610ec48185610ea0565b9350610ed4818560208601610aa0565b610edd81610aae565b840191505092915050565b610ef181610af6565b82525050565b5f60c0820190508181035f830152610f0f8189610eb0565b90508181036020830152610f238188610eb0565b9050610f326040830187610ee8565b610f3f6060830186610ee8565b610f4c6080830185610ee8565b610f5960a0830184610ee8565b979650505050505050565b5f60c083015f8301518482035f860152610f7e8282610abe565b91505060208301518482036020860152610f988282610abe565b9150506040830151610fad6040860182610aff565b506060830151610fc06060860182610aff565b506080830151610fd36080860182610aff565b5060a0830151610fe660a0860182610aff565b508091505092915050565b5f6040820190508181035f8301526110098185610f64565b90506110186020830184610ee8565b9392505050565b7f4e487b71000000000000000000000000000000000000000000000000000000005f52602260045260245ffd5b5f600282049050600182168061106357607f821691505b6020821081036110765761107561101f565b5b50919050565b7f4e487b71000000000000000000000000000000000000000000000000000000005f52601160045260245ffd5b5f6110b382610af6565b91506110be83610af6565b92508282039050818111156110d6576110d561107c565b5b92915050565b7f4e487b71000000000000000000000000000000000000000000000000000000005f52603260045260245ffd5b5f815490506111178161104c565b9050919050565b5f819050815f5260205f209050919050565b5f6020601f8301049050919050565b5f82821b905092915050565b5f6008830261117a7fffffffffffffffffffffffffffffffffffffffffffffffffffffffffffffffff8261113f565b611184868361113f565b95508019841693508086168417925050509392505050565b5f819050919050565b5f6111bf6111ba6111b584610af6565b61119c565b610af6565b9050919050565b5f819050919050565b6111d8836111a5565b6111ec6111e4826111c6565b84845461114b565b825550505050565b5f90565b6112006111f4565b61120b8184846111cf565b505050565b5b8181101561122e576112235f826111f8565b600181019050611211565b5050565b601f821115611273576112448161111e565b61124d84611130565b8101602085101561125c578190505b61127061126885611130565b830182611210565b50505b505050565b5f82821c905092915050565b5f6112935f1984600802611278565b1980831691505092915050565b5f6112ab8383611284565b9150826002028217905092915050565b8181036112c957505061139e565b6112d282611109565b67ffffffffffffffff8111156112eb576112ea610cbb565b5b6112f5825461104c565b611300828285611232565b5f601f83116001811461132d575f841561131b578287015490505b61132585826112a0565b865550611397565b601f19841661133b8761111e565b96506113468661111e565b5f5b8281101561136d57848901548255600182019150600185019450602081019050611348565b8683101561138a5784890154611386601f891682611284565b8355505b6001600288020188555050505b5050505050505b565b7f4e487b71000000000000000000000000000000000000000000000000000000005f52603160045260245ffd5b6113d682610a86565b67ffffffffffffffff8111156113ef576113ee610cbb565b5b6113f9825461104c565b611404828285611232565b5f60209050601f831160018114611435575f8415611423578287015190505b61142d85826112a0565b865550611494565b601f1984166114438661111e565b5f5b8281101561146a57848901518255600182019150602085019450602081019050611445565b868310156114875784890151611483601f891682611284565b8355505b6001600288020188555050505b505050505050565b7f4e487b71000000000000000000000000000000000000000000000000000000005f52601260045260245ffd5b5f6114d382610af6565b91506114de83610af6565b9250826114ee576114ed61149c565b5b828204905092915050565b5f61150382610af6565b915061150e83610af6565b925082820261151c81610af6565b915082820484148315176115335761153261107c565b5b5092915050565b5f61154482610af6565b915061154f83610af6565b92508282019050808211156115675761156661107c565b5b9291505056fea2646970667358221220464b0f3e01b2aff96dd22012a2cba45442afe3c9053d6925096a34ef5a19c4b764736f6c634300081a0033",
			"opcodes": "PUSH1 0x80 PUSH1 0x40 MSTORE CALLVALUE DUP1 ISZERO PUSH1 0xE JUMPI PUSH0 DUP1 REVERT JUMPDEST POP PUSH2 0x15A3 DUP1 PUSH2 0x1C PUSH0 CODECOPY PUSH0 RETURN INVALID PUSH1 0x80 PUSH1 0x40 MSTORE CALLVALUE DUP1 ISZERO PUSH2 0xF JUMPI PUSH0 DUP1 REVERT JUMPDEST POP PUSH1 0x4 CALLDATASIZE LT PUSH2 0x55 JUMPI PUSH0 CALLDATALOAD PUSH1 0xE0 SHR DUP1 PUSH4 0x4005621 EQ PUSH2 0x59 JUMPI DUP1 PUSH4 0x3302B00E EQ PUSH2 0x77 JUMPI DUP1 PUSH4 0x6815D520 EQ PUSH2 0x93 JUMPI DUP1 PUSH4 0x98019748 EQ PUSH2 0xAF JUMPI DUP1 PUSH4 0xF10CDCCF EQ PUSH2 0xE4 JUMPI JUMPDEST PUSH0 DUP1 REVERT JUMPDEST PUSH2 0x61 PUSH2 0x103 JUMP JUMPDEST PUSH1 0x40 MLOAD PUSH2 0x6E SWAP2 SWAP1 PUSH2 0xC2D JUMP JUMPDEST PUSH1 0x40 MLOAD DUP1 SWAP2 SUB SWAP1 RETURN JUMPDEST PUSH2 0x91 PUSH1 0x4 DUP1 CALLDATASIZE SUB DUP2 ADD SWAP1 PUSH2 0x8C SWAP2 SWAP1 PUSH2 0xC88 JUMP JUMPDEST PUSH2 0x2A5 JUMP JUMPDEST STOP JUMPDEST PUSH2 0xAD PUSH1 0x4 DUP1 CALLDATASIZE SUB DUP2 ADD SWAP1 PUSH2 0xA8 SWAP2 SWAP1 PUSH2 0xDDF JUMP JUMPDEST PUSH2 0x3B9 JUMP JUMPDEST STOP JUMPDEST PUSH2 0xC9 PUSH1 0x4 DUP1 CALLDATASIZE SUB DUP2 ADD SWAP1 PUSH2 0xC4 SWAP2 SWAP1 PUSH2 0xC88 JUMP JUMPDEST PUSH2 0x469 JUMP JUMPDEST PUSH1 0x40 MLOAD PUSH2 0xDB SWAP7 SWAP6 SWAP5 SWAP4 SWAP3 SWAP2 SWAP1 PUSH2 0xEF7 JUMP JUMPDEST PUSH1 0x40 MLOAD DUP1 SWAP2 SUB SWAP1 RETURN JUMPDEST PUSH2 0xEC PUSH2 0x5BB JUMP JUMPDEST PUSH1 0x40 MLOAD PUSH2 0xFA SWAP3 SWAP2 SWAP1 PUSH2 0xFF1 JUMP JUMPDEST PUSH1 0x40 MLOAD DUP1 SWAP2 SUB SWAP1 RETURN JUMPDEST PUSH1 0x60 PUSH0 DUP1 SLOAD DUP1 PUSH1 0x20 MUL PUSH1 0x20 ADD PUSH1 0x40 MLOAD SWAP1 DUP2 ADD PUSH1 0x40 MSTORE DUP1 SWAP3 SWAP2 SWAP1 DUP2 DUP2 MSTORE PUSH1 0x20 ADD PUSH0 SWAP1 JUMPDEST DUP3 DUP3 LT ISZERO PUSH2 0x29C JUMPI DUP4 DUP3 SWAP1 PUSH0 MSTORE PUSH1 0x20 PUSH0 KECCAK256 SWAP1 PUSH1 0x6 MUL ADD PUSH1 0x40 MLOAD DUP1 PUSH1 0xC0 ADD PUSH1 0x40 MSTORE SWAP1 DUP2 PUSH0 DUP3 ADD DUP1 SLOAD PUSH2 0x155 SWAP1 PUSH2 0x104C JUMP JUMPDEST DUP1 PUSH1 0x1F ADD PUSH1 0x20 DUP1 SWAP2 DIV MUL PUSH1 0x20 ADD PUSH1 0x40 MLOAD SWAP1 DUP2 ADD PUSH1 0x40 MSTORE DUP1 SWAP3 SWAP2 SWAP1 DUP2 DUP2 MSTORE PUSH1 0x20 ADD DUP3 DUP1 SLOAD PUSH2 0x181 SWAP1 PUSH2 0x104C JUMP JUMPDEST DUP1 ISZERO PUSH2 0x1CC JUMPI DUP1 PUSH1 0x1F LT PUSH2 0x1A3 JUMPI PUSH2 0x100 DUP1 DUP4 SLOAD DIV MUL DUP4 MSTORE SWAP2 PUSH1 0x20 ADD SWAP2 PUSH2 0x1CC JUMP JUMPDEST DUP3 ADD SWAP2 SWAP1 PUSH0 MSTORE PUSH1 0x20 PUSH0 KECCAK256 SWAP1 JUMPDEST DUP2 SLOAD DUP2 MSTORE SWAP1 PUSH1 0x1 ADD SWAP1 PUSH1 0x20 ADD DUP1 DUP4 GT PUSH2 0x1AF JUMPI DUP3 SWAP1 SUB PUSH1 0x1F AND DUP3 ADD SWAP2 JUMPDEST POP POP POP POP POP DUP2 MSTORE PUSH1 0x20 ADD PUSH1 0x1 DUP3 ADD DUP1 SLOAD PUSH2 0x1E5 SWAP1 PUSH2 0x104C JUMP JUMPDEST DUP1 PUSH1 0x1F ADD PUSH1 0x20 DUP1 SWAP2 DIV MUL PUSH1 0x20 ADD PUSH1 0x40 MLOAD SWAP1 DUP2 ADD PUSH1 0x40 MSTORE DUP1 SWAP3 SWAP2 SWAP1 DUP2 DUP2 MSTORE PUSH1 0x20 ADD DUP3 DUP1 SLOAD PUSH2 0x211 SWAP1 PUSH2 0x104C JUMP JUMPDEST DUP1 ISZERO PUSH2 0x25C JUMPI DUP1 PUSH1 0x1F LT PUSH2 0x233 JUMPI PUSH2 0x100 DUP1 DUP4 SLOAD DIV MUL DUP4 MSTORE SWAP2 PUSH1 0x20 ADD SWAP2 PUSH2 0x25C JUMP JUMPDEST DUP3 ADD SWAP2 SWAP1 PUSH0 MSTORE PUSH1 0x20 PUSH0 KECCAK256 SWAP1 JUMPDEST DUP2 SLOAD DUP2 MSTORE SWAP1 PUSH1 0x1 ADD SWAP1 PUSH1 0x20 ADD DUP1 DUP4 GT PUSH2 0x23F JUMPI DUP3 SWAP1 SUB PUSH1 0x1F AND DUP3 ADD SWAP2 JUMPDEST POP POP POP POP POP DUP2 MSTORE PUSH1 0x20 ADD PUSH1 0x2 DUP3 ADD SLOAD DUP2 MSTORE PUSH1 0x20 ADD PUSH1 0x3 DUP3 ADD SLOAD DUP2 MSTORE PUSH1 0x20 ADD PUSH1 0x4 DUP3 ADD SLOAD DUP2 MSTORE PUSH1 0x20 ADD PUSH1 0x5 DUP3 ADD SLOAD DUP2 MSTORE POP POP DUP2 MSTORE PUSH1 0x20 ADD SWAP1 PUSH1 0x1 ADD SWAP1 PUSH2 0x125 JUMP JUMPDEST POP POP POP POP SWAP1 POP SWAP1 JUMP JUMPDEST PUSH0 DUP1 SLOAD SWAP1 POP DUP2 LT PUSH2 0x2B4 JUMPI PUSH0 DUP1 REVERT JUMPDEST PUSH0 PUSH1 0x1 PUSH0 DUP1 SLOAD SWAP1 POP PUSH2 0x2C6 SWAP2 SWAP1 PUSH2 0x10A9 JUMP JUMPDEST DUP2 SLOAD DUP2 LT PUSH2 0x2D7 JUMPI PUSH2 0x2D6 PUSH2 0x10DC JUMP JUMPDEST JUMPDEST SWAP1 PUSH0 MSTORE PUSH1 0x20 PUSH0 KECCAK256 SWAP1 PUSH1 0x6 MUL ADD PUSH0 DUP3 DUP2 SLOAD DUP2 LT PUSH2 0x2F6 JUMPI PUSH2 0x2F5 PUSH2 0x10DC JUMP JUMPDEST JUMPDEST SWAP1 PUSH0 MSTORE PUSH1 0x20 PUSH0 KECCAK256 SWAP1 PUSH1 0x6 MUL ADD PUSH0 DUP3 ADD DUP2 PUSH0 ADD SWAP1 DUP2 PUSH2 0x314 SWAP2 SWAP1 PUSH2 0x12BB JUMP JUMPDEST POP PUSH1 0x1 DUP3 ADD DUP2 PUSH1 0x1 ADD SWAP1 DUP2 PUSH2 0x329 SWAP2 SWAP1 PUSH2 0x12BB JUMP JUMPDEST POP PUSH1 0x2 DUP3 ADD SLOAD DUP2 PUSH1 0x2 ADD SSTORE PUSH1 0x3 DUP3 ADD SLOAD DUP2 PUSH1 0x3 ADD SSTORE PUSH1 0x4 DUP3 ADD SLOAD DUP2 PUSH1 0x4 ADD SSTORE PUSH1 0x5 DUP3 ADD SLOAD DUP2 PUSH1 0x5 ADD SSTORE SWAP1 POP POP PUSH0 DUP1 SLOAD DUP1 PUSH2 0x366 JUMPI PUSH2 0x365 PUSH2 0x13A0 JUMP JUMPDEST JUMPDEST PUSH1 0x1 SWAP1 SUB DUP2 DUP2 SWAP1 PUSH0 MSTORE PUSH1 0x20 PUSH0 KECCAK256 SWAP1 PUSH1 0x6 MUL ADD PUSH0 DUP1 DUP3 ADD PUSH0 PUSH2 0x387 SWAP2 SWAP1 PUSH2 0x9D3 JUMP JUMPDEST PUSH1 0x1 DUP3 ADD PUSH0 PUSH2 0x396 SWAP2 SWAP1 PUSH2 0x9D3 JUMP JUMPDEST PUSH1 0x2 DUP3 ADD PUSH0 SWAP1 SSTORE PUSH1 0x3 DUP3 ADD PUSH0 SWAP1 SSTORE PUSH1 0x4 DUP3 ADD PUSH0 SWAP1 SSTORE PUSH1 0x5 DUP3 ADD PUSH0 SWAP1 SSTORE POP POP SWAP1 SSTORE POP JUMP JUMPDEST PUSH0 PUSH1 0x40 MLOAD DUP1 PUSH1 0xC0 ADD PUSH1 0x40 MSTORE DUP1 DUP9 DUP2 MSTORE PUSH1 0x20 ADD DUP8 DUP2 MSTORE PUSH1 0x20 ADD DUP7 DUP2 MSTORE PUSH1 0x20 ADD DUP6 DUP2 MSTORE PUSH1 0x20 ADD DUP5 DUP2 MSTORE PUSH1 0x20 ADD DUP4 DUP2 MSTORE POP SWAP1 DUP1 PUSH1 0x1 DUP2 SLOAD ADD DUP1 DUP3 SSTORE DUP1 SWAP2 POP POP PUSH1 0x1 SWAP1 SUB SWAP1 PUSH0 MSTORE PUSH1 0x20 PUSH0 KECCAK256 SWAP1 PUSH1 0x6 MUL ADD PUSH0 SWAP1 SWAP2 SWAP1 SWAP2 SWAP1 SWAP2 POP PUSH0 DUP3 ADD MLOAD DUP2 PUSH0 ADD SWAP1 DUP2 PUSH2 0x420 SWAP2 SWAP1 PUSH2 0x13CD JUMP JUMPDEST POP PUSH1 0x20 DUP3 ADD MLOAD DUP2 PUSH1 0x1 ADD SWAP1 DUP2 PUSH2 0x436 SWAP2 SWAP1 PUSH2 0x13CD JUMP JUMPDEST POP PUSH1 0x40 DUP3 ADD MLOAD DUP2 PUSH1 0x2 ADD SSTORE PUSH1 0x60 DUP3 ADD MLOAD DUP2 PUSH1 0x3 ADD SSTORE PUSH1 0x80 DUP3 ADD MLOAD DUP2 PUSH1 0x4 ADD SSTORE PUSH1 0xA0 DUP3 ADD MLOAD DUP2 PUSH1 0x5 ADD SSTORE POP POP POP POP POP POP POP POP JUMP JUMPDEST PUSH0 DUP2 DUP2 SLOAD DUP2 LT PUSH2 0x477 JUMPI PUSH0 DUP1 REVERT JUMPDEST SWAP1 PUSH0 MSTORE PUSH1 0x20 PUSH0 KECCAK256 SWAP1 PUSH1 0x6 MUL ADD PUSH0 SWAP2 POP SWAP1 POP DUP1 PUSH0 ADD DUP1 SLOAD PUSH2 0x496 SWAP1 PUSH2 0x104C JUMP JUMPDEST DUP1 PUSH1 0x1F ADD PUSH1 0x20 DUP1 SWAP2 DIV MUL PUSH1 0x20 ADD PUSH1 0x40 MLOAD SWAP1 DUP2 ADD PUSH1 0x40 MSTORE DUP1 SWAP3 SWAP2 SWAP1 DUP2 DUP2 MSTORE PUSH1 0x20 ADD DUP3 DUP1 SLOAD PUSH2 0x4C2 SWAP1 PUSH2 0x104C JUMP JUMPDEST DUP1 ISZERO PUSH2 0x50D JUMPI DUP1 PUSH1 0x1F LT PUSH2 0x4E4 JUMPI PUSH2 0x100 DUP1 DUP4 SLOAD DIV MUL DUP4 MSTORE SWAP2 PUSH1 0x20 ADD SWAP2 PUSH2 0x50D JUMP JUMPDEST DUP3 ADD SWAP2 SWAP1 PUSH0 MSTORE PUSH1 0x20 PUSH0 KECCAK256 SWAP1 JUMPDEST DUP2 SLOAD DUP2 MSTORE SWAP1 PUSH1 0x1 ADD SWAP1 PUSH1 0x20 ADD DUP1 DUP4 GT PUSH2 0x4F0 JUMPI DUP3 SWAP1 SUB PUSH1 0x1F AND DUP3 ADD SWAP2 JUMPDEST POP POP POP POP POP SWAP1 DUP1 PUSH1 0x1 ADD DUP1 SLOAD PUSH2 0x522 SWAP1 PUSH2 0x104C JUMP JUMPDEST DUP1 PUSH1 0x1F ADD PUSH1 0x20 DUP1 SWAP2 DIV MUL PUSH1 0x20 ADD PUSH1 0x40 MLOAD SWAP1 DUP2 ADD PUSH1 0x40 MSTORE DUP1 SWAP3 SWAP2 SWAP1 DUP2 DUP2 MSTORE PUSH1 0x20 ADD DUP3 DUP1 SLOAD PUSH2 0x54E SWAP1 PUSH2 0x104C JUMP JUMPDEST DUP1 ISZERO PUSH2 0x599 JUMPI DUP1 PUSH1 0x1F LT PUSH2 0x570 JUMPI PUSH2 0x100 DUP1 DUP4 SLOAD DIV MUL DUP4 MSTORE SWAP2 PUSH1 0x20 ADD SWAP2 PUSH2 0x599 JUMP JUMPDEST DUP3 ADD SWAP2 SWAP1 PUSH0 MSTORE PUSH1 0x20 PUSH0 KECCAK256 SWAP1 JUMPDEST DUP2 SLOAD DUP2 MSTORE SWAP1 PUSH1 0x1 ADD SWAP1 PUSH1 0x20 ADD DUP1 DUP4 GT PUSH2 0x57C JUMPI DUP3 SWAP1 SUB PUSH1 0x1F AND DUP3 ADD SWAP2 JUMPDEST POP POP POP POP POP SWAP1 DUP1 PUSH1 0x2 ADD SLOAD SWAP1 DUP1 PUSH1 0x3 ADD SLOAD SWAP1 DUP1 PUSH1 0x4 ADD SLOAD SWAP1 DUP1 PUSH1 0x5 ADD SLOAD SWAP1 POP DUP7 JUMP JUMPDEST PUSH2 0x5C3 PUSH2 0xA10 JUMP JUMPDEST PUSH0 DUP1 PUSH0 SWAP1 POP PUSH0 PUSH32 0xFFFFFFFFFFFFFFFFFFFFFFFFFFFFFFFFFFFFFFFFFFFFFFFFFFFFFFFFFFFFFFFF SWAP1 POP PUSH0 JUMPDEST PUSH0 DUP1 SLOAD SWAP1 POP DUP2 LT ISZERO PUSH2 0x859 JUMPI PUSH1 0x1F PUSH0 DUP3 DUP2 SLOAD DUP2 LT PUSH2 0x60F JUMPI PUSH2 0x60E PUSH2 0x10DC JUMP JUMPDEST JUMPDEST SWAP1 PUSH0 MSTORE PUSH1 0x20 PUSH0 KECCAK256 SWAP1 PUSH1 0x6 MUL ADD PUSH1 0x4 ADD SLOAD PUSH0 DUP4 DUP2 SLOAD DUP2 LT PUSH2 0x632 JUMPI PUSH2 0x631 PUSH2 0x10DC JUMP JUMPDEST JUMPDEST SWAP1 PUSH0 MSTORE PUSH1 0x20 PUSH0 KECCAK256 SWAP1 PUSH1 0x6 MUL ADD PUSH1 0x2 ADD SLOAD PUSH2 0x64C SWAP2 SWAP1 PUSH2 0x14C9 JUMP JUMPDEST LT ISZERO PUSH2 0x6F9 JUMPI PUSH32 0xFFFFFFFFFFFFFFFFFFFFFFFFFFFFFFFFFFFFFFFFFFFFFFFFFFFFFFFFFFFFFFFF DUP3 LT PUSH2 0x84C JUMPI PUSH0 DUP1 DUP3 DUP2 SLOAD DUP2 LT PUSH2 0x68D JUMPI PUSH2 0x68C PUSH2 0x10DC JUMP JUMPDEST JUMPDEST SWAP1 PUSH0 MSTORE PUSH1 0x20 PUSH0 KECCAK256 SWAP1 PUSH1 0x6 MUL ADD PUSH1 0x4 ADD SLOAD PUSH0 DUP4 DUP2 SLOAD DUP2 LT PUSH2 0x6B0 JUMPI PUSH2 0x6AF PUSH2 0x10DC JUMP JUMPDEST JUMPDEST SWAP1 PUSH0 MSTORE PUSH1 0x20 PUSH0 KECCAK256 SWAP1 PUSH1 0x6 MUL ADD PUSH1 0x2 ADD SLOAD PUSH3 0xF4240 PUSH2 0x6CE SWAP2 SWAP1 PUSH2 0x14F9 JUMP JUMPDEST PUSH2 0x6D8 SWAP2 SWAP1 PUSH2 0x14C9 JUMP JUMPDEST SWAP1 POP DUP4 DUP2 GT ISZERO PUSH2 0x6ED JUMPI DUP1 SWAP4 POP DUP2 SWAP5 POP PUSH2 0x6F3 JUMP JUMPDEST POP PUSH2 0x84C JUMP JUMPDEST POP PUSH2 0x84B JUMP JUMPDEST PUSH0 PUSH1 0x64 PUSH0 DUP4 DUP2 SLOAD DUP2 LT PUSH2 0x70F JUMPI PUSH2 0x70E PUSH2 0x10DC JUMP JUMPDEST JUMPDEST SWAP1 PUSH0 MSTORE PUSH1 0x20 PUSH0 KECCAK256 SWAP1 PUSH1 0x6 MUL ADD PUSH1 0x3 ADD SLOAD GT ISZERO PUSH2 0x7C3 JUMPI PUSH1 0xC8 PUSH0 DUP4 DUP2 SLOAD DUP2 LT PUSH2 0x73A JUMPI PUSH2 0x739 PUSH2 0x10DC JUMP JUMPDEST JUMPDEST SWAP1 PUSH0 MSTORE PUSH1 0x20 PUSH0 KECCAK256 SWAP1 PUSH1 0x6 MUL ADD PUSH1 0x5 ADD SLOAD PUSH0 DUP5 DUP2 SLOAD DUP2 LT PUSH2 0x75D JUMPI PUSH2 0x75C PUSH2 0x10DC JUMP JUMPDEST JUMPDEST SWAP1 PUSH0 MSTORE PUSH1 0x20 PUSH0 KECCAK256 SWAP1 PUSH1 0x6 MUL ADD PUSH1 0x3 ADD SLOAD PUSH2 0x777 SWAP2 SWAP1 PUSH2 0x14F9 JUMP JUMPDEST PUSH2 0x781 SWAP2 SWAP1 PUSH2 0x14C9 JUMP JUMPDEST PUSH0 DUP4 DUP2 SLOAD DUP2 LT PUSH2 0x794 JUMPI PUSH2 0x793 PUSH2 0x10DC JUMP JUMPDEST JUMPDEST SWAP1 PUSH0 MSTORE PUSH1 0x20 PUSH0 KECCAK256 SWAP1 PUSH1 0x6 MUL ADD PUSH1 0x3 ADD SLOAD PUSH3 0xAA49C0 PUSH2 0x7B2 SWAP2 SWAP1 PUSH2 0x14C9 JUMP JUMPDEST PUSH2 0x7BC SWAP2 SWAP1 PUSH2 0x153A JUMP JUMPDEST SWAP1 POP PUSH2 0x830 JUMP JUMPDEST PUSH1 0x2 PUSH0 DUP4 DUP2 SLOAD DUP2 LT PUSH2 0x7D8 JUMPI PUSH2 0x7D7 PUSH2 0x10DC JUMP JUMPDEST JUMPDEST SWAP1 PUSH0 MSTORE PUSH1 0x20 PUSH0 KECCAK256 SWAP1 PUSH1 0x6 MUL ADD PUSH1 0x5 ADD SLOAD PUSH2 0x7F2 SWAP2 SWAP1 PUSH2 0x14C9 JUMP JUMPDEST PUSH0 DUP4 DUP2 SLOAD DUP2 LT PUSH2 0x805 JUMPI PUSH2 0x804 PUSH2 0x10DC JUMP JUMPDEST JUMPDEST SWAP1 PUSH0 MSTORE PUSH1 0x20 PUSH0 KECCAK256 SWAP1 PUSH1 0x6 MUL ADD PUSH1 0x3 ADD SLOAD PUSH3 0xAA49C0 PUSH2 0x823 SWAP2 SWAP1 PUSH2 0x14C9 JUMP JUMPDEST PUSH2 0x82D SWAP2 SWAP1 PUSH2 0x153A JUMP JUMPDEST SWAP1 POP JUMPDEST DUP3 DUP2 LT ISZERO PUSH2 0x843 JUMPI DUP1 SWAP3 POP DUP2 SWAP5 POP PUSH2 0x849 JUMP JUMPDEST POP PUSH2 0x84C JUMP JUMPDEST POP JUMPDEST JUMPDEST DUP1 DUP1 PUSH1 0x1 ADD SWAP2 POP POP PUSH2 0x5EE JUMP JUMPDEST POP PUSH0 DUP4 DUP2 SLOAD DUP2 LT PUSH2 0x86D JUMPI PUSH2 0x86C PUSH2 0x10DC JUMP JUMPDEST JUMPDEST SWAP1 PUSH0 MSTORE PUSH1 0x20 PUSH0 KECCAK256 SWAP1 PUSH1 0x6 MUL ADD PUSH1 0x40 MLOAD DUP1 PUSH1 0xC0 ADD PUSH1 0x40 MSTORE SWAP1 DUP2 PUSH0 DUP3 ADD DUP1 SLOAD PUSH2 0x893 SWAP1 PUSH2 0x104C JUMP JUMPDEST DUP1 PUSH1 0x1F ADD PUSH1 0x20 DUP1 SWAP2 DIV MUL PUSH1 0x20 ADD PUSH1 0x40 MLOAD SWAP1 DUP2 ADD PUSH1 0x40 MSTORE DUP1 SWAP3 SWAP2 SWAP1 DUP2 DUP2 MSTORE PUSH1 0x20 ADD DUP3 DUP1 SLOAD PUSH2 0x8BF SWAP1 PUSH2 0x104C JUMP JUMPDEST DUP1 ISZERO PUSH2 0x90A JUMPI DUP1 PUSH1 0x1F LT PUSH2 0x8E1 JUMPI PUSH2 0x100 DUP1 DUP4 SLOAD DIV MUL DUP4 MSTORE SWAP2 PUSH1 0x20 ADD SWAP2 PUSH2 0x90A JUMP JUMPDEST DUP3 ADD SWAP2 SWAP1 PUSH0 MSTORE PUSH1 0x20 PUSH0 KECCAK256 SWAP1 JUMPDEST DUP2 SLOAD DUP2 MSTORE SWAP1 PUSH1 0x1 ADD SWAP1 PUSH1 0x20 ADD DUP1 DUP4 GT PUSH2 0x8ED JUMPI DUP3 SWAP1 SUB PUSH1 0x1F AND DUP3 ADD SWAP2 JUMPDEST POP POP POP POP POP DUP2 MSTORE PUSH1 0x20 ADD PUSH1 0x1 DUP3 ADD DUP1 SLOAD PUSH2 0x923 SWAP1 PUSH2 0x104C JUMP JUMPDEST DUP1 PUSH1 0x1F ADD PUSH1 0x20 DUP1 SWAP2 DIV MUL PUSH1 0x20 ADD PUSH1 0x40 MLOAD SWAP1 DUP2 ADD PUSH1 0x40 MSTORE DUP1 SWAP3 SWAP2 SWAP1 DUP2 DUP2 MSTORE PUSH1 0x20 ADD DUP3 DUP1 SLOAD PUSH2 0x94F SWAP1 PUSH2 0x104C JUMP JUMPDEST DUP1 ISZERO PUSH2 0x99A JUMPI DUP1 PUSH1 0x1F LT PUSH2 0x971 JUMPI PUSH2 0x100 DUP1 DUP4 SLOAD DIV MUL DUP4 MSTORE SWAP2 PUSH1 0x20 ADD SWAP2 PUSH2 0x99A JUMP JUMPDEST DUP3 ADD SWAP2 SWAP1 PUSH0 MSTORE PUSH1 0x20 PUSH0 KECCAK256 SWAP1 JUMPDEST DUP2 SLOAD DUP2 MSTORE SWAP1 PUSH1 0x1 ADD SWAP1 PUSH1 0x20 ADD DUP1 DUP4 GT PUSH2 0x97D JUMPI DUP3 SWAP1 SUB PUSH1 0x1F AND DUP3 ADD SWAP2 JUMPDEST POP POP POP POP POP DUP2 MSTORE PUSH1 0x20 ADD PUSH1 0x2 DUP3 ADD SLOAD DUP2 MSTORE PUSH1 0x20 ADD PUSH1 0x3 DUP3 ADD SLOAD DUP2 MSTORE PUSH1 0x20 ADD PUSH1 0x4 DUP3 ADD SLOAD DUP2 MSTORE PUSH1 0x20 ADD PUSH1 0x5 DUP3 ADD SLOAD DUP2 MSTORE POP POP SWAP4 POP POP POP SWAP1 SWAP2 JUMP JUMPDEST POP DUP1 SLOAD PUSH2 0x9DF SWAP1 PUSH2 0x104C JUMP JUMPDEST PUSH0 DUP3 SSTORE DUP1 PUSH1 0x1F LT PUSH2 0x9F0 JUMPI POP PUSH2 0xA0D JUMP JUMPDEST PUSH1 0x1F ADD PUSH1 0x20 SWAP1 DIV SWAP1 PUSH0 MSTORE PUSH1 0x20 PUSH0 KECCAK256 SWAP1 DUP2 ADD SWAP1 PUSH2 0xA0C SWAP2 SWAP1 PUSH2 0xA42 JUMP JUMPDEST JUMPDEST POP JUMP JUMPDEST PUSH1 0x40 MLOAD DUP1 PUSH1 0xC0 ADD PUSH1 0x40 MSTORE DUP1 PUSH1 0x60 DUP2 MSTORE PUSH1 0x20 ADD PUSH1 0x60 DUP2 MSTORE PUSH1 0x20 ADD PUSH0 DUP2 MSTORE PUSH1 0x20 ADD PUSH0 DUP2 MSTORE PUSH1 0x20 ADD PUSH0 DUP2 MSTORE PUSH1 0x20 ADD PUSH0 DUP2 MSTORE POP SWAP1 JUMP JUMPDEST JUMPDEST DUP1 DUP3 GT ISZERO PUSH2 0xA59 JUMPI PUSH0 DUP2 PUSH0 SWAP1 SSTORE POP PUSH1 0x1 ADD PUSH2 0xA43 JUMP JUMPDEST POP SWAP1 JUMP JUMPDEST PUSH0 DUP2 MLOAD SWAP1 POP SWAP2 SWAP1 POP JUMP JUMPDEST PUSH0 DUP3 DUP3 MSTORE PUSH1 0x20 DUP3 ADD SWAP1 POP SWAP3 SWAP2 POP POP JUMP JUMPDEST PUSH0 DUP2 SWAP1 POP PUSH1 0x20 DUP3 ADD SWAP1 POP SWAP2 SWAP1 POP JUMP JUMPDEST PUSH0 DUP2 MLOAD SWAP1 POP SWAP2 SWAP1 POP JUMP JUMPDEST PUSH0 DUP3 DUP3 MSTORE PUSH1 0x20 DUP3 ADD SWAP1 POP SWAP3 SWAP2 POP POP JUMP JUMPDEST DUP3 DUP2 DUP4 MCOPY PUSH0 DUP4 DUP4 ADD MSTORE POP POP POP JUMP JUMPDEST PUSH0 PUSH1 0x1F NOT PUSH1 0x1F DUP4 ADD AND SWAP1 POP SWAP2 SWAP1 POP JUMP JUMPDEST PUSH0 PUSH2 0xAC8 DUP3 PUSH2 0xA86 JUMP JUMPDEST PUSH2 0xAD2 DUP2 DUP6 PUSH2 0xA90 JUMP JUMPDEST SWAP4 POP PUSH2 0xAE2 DUP2 DUP6 PUSH1 0x20 DUP7 ADD PUSH2 0xAA0 JUMP JUMPDEST PUSH2 0xAEB DUP2 PUSH2 0xAAE JUMP JUMPDEST DUP5 ADD SWAP2 POP POP SWAP3 SWAP2 POP POP JUMP JUMPDEST PUSH0 DUP2 SWAP1 POP SWAP2 SWAP1 POP JUMP JUMPDEST PUSH2 0xB08 DUP2 PUSH2 0xAF6 JUMP JUMPDEST DUP3 MSTORE POP POP JUMP JUMPDEST PUSH0 PUSH1 0xC0 DUP4 ADD PUSH0 DUP4 ADD MLOAD DUP5 DUP3 SUB PUSH0 DUP7 ADD MSTORE PUSH2 0xB28 DUP3 DUP3 PUSH2 0xABE JUMP JUMPDEST SWAP2 POP POP PUSH1 0x20 DUP4 ADD MLOAD DUP5 DUP3 SUB PUSH1 0x20 DUP7 ADD MSTORE PUSH2 0xB42 DUP3 DUP3 PUSH2 0xABE JUMP JUMPDEST SWAP2 POP POP PUSH1 0x40 DUP4 ADD MLOAD PUSH2 0xB57 PUSH1 0x40 DUP7 ADD DUP3 PUSH2 0xAFF JUMP JUMPDEST POP PUSH1 0x60 DUP4 ADD MLOAD PUSH2 0xB6A PUSH1 0x60 DUP7 ADD DUP3 PUSH2 0xAFF JUMP JUMPDEST POP PUSH1 0x80 DUP4 ADD MLOAD PUSH2 0xB7D PUSH1 0x80 DUP7 ADD DUP3 PUSH2 0xAFF JUMP JUMPDEST POP PUSH1 0xA0 DUP4 ADD MLOAD PUSH2 0xB90 PUSH1 0xA0 DUP7 ADD DUP3 PUSH2 0xAFF JUMP JUMPDEST POP DUP1 SWAP2 POP POP SWAP3 SWAP2 POP POP JUMP JUMPDEST PUSH0 PUSH2 0xBA6 DUP4 DUP4 PUSH2 0xB0E JUMP JUMPDEST SWAP1 POP SWAP3 SWAP2 POP POP JUMP JUMPDEST PUSH0 PUSH1 0x20 DUP3 ADD SWAP1 POP SWAP2 SWAP1 POP JUMP JUMPDEST PUSH0 PUSH2 0xBC4 DUP3 PUSH2 0xA5D JUMP JUMPDEST PUSH2 0xBCE DUP2 DUP6 PUSH2 0xA67 JUMP JUMPDEST SWAP4 POP DUP4 PUSH1 0x20 DUP3 MUL DUP6 ADD PUSH2 0xBE0 DUP6 PUSH2 0xA77 JUMP JUMPDEST DUP1 PUSH0 JUMPDEST DUP6 DUP2 LT ISZERO PUSH2 0xC1B JUMPI DUP5 DUP5 SUB DUP10 MSTORE DUP2 MLOAD PUSH2 0xBFC DUP6 DUP3 PUSH2 0xB9B JUMP JUMPDEST SWAP5 POP PUSH2 0xC07 DUP4 PUSH2 0xBAE JUMP JUMPDEST SWAP3 POP PUSH1 0x20 DUP11 ADD SWAP10 POP POP PUSH1 0x1 DUP2 ADD SWAP1 POP PUSH2 0xBE3 JUMP JUMPDEST POP DUP3 SWAP8 POP DUP8 SWAP6 POP POP POP POP POP POP SWAP3 SWAP2 POP POP JUMP JUMPDEST PUSH0 PUSH1 0x20 DUP3 ADD SWAP1 POP DUP2 DUP2 SUB PUSH0 DUP4 ADD MSTORE PUSH2 0xC45 DUP2 DUP5 PUSH2 0xBBA JUMP JUMPDEST SWAP1 POP SWAP3 SWAP2 POP POP JUMP JUMPDEST PUSH0 PUSH1 0x40 MLOAD SWAP1 POP SWAP1 JUMP JUMPDEST PUSH0 DUP1 REVERT JUMPDEST PUSH0 DUP1 REVERT JUMPDEST PUSH2 0xC67 DUP2 PUSH2 0xAF6 JUMP JUMPDEST DUP2 EQ PUSH2 0xC71 JUMPI PUSH0 DUP1 REVERT JUMPDEST POP JUMP JUMPDEST PUSH0 DUP2 CALLDATALOAD SWAP1 POP PUSH2 0xC82 DUP2 PUSH2 0xC5E JUMP JUMPDEST SWAP3 SWAP2 POP POP JUMP JUMPDEST PUSH0 PUSH1 0x20 DUP3 DUP5 SUB SLT ISZERO PUSH2 0xC9D JUMPI PUSH2 0xC9C PUSH2 0xC56 JUMP JUMPDEST JUMPDEST PUSH0 PUSH2 0xCAA DUP5 DUP3 DUP6 ADD PUSH2 0xC74 JUMP JUMPDEST SWAP2 POP POP SWAP3 SWAP2 POP POP JUMP JUMPDEST PUSH0 DUP1 REVERT JUMPDEST PUSH0 DUP1 REVERT JUMPDEST PUSH32 0x4E487B7100000000000000000000000000000000000000000000000000000000 PUSH0 MSTORE PUSH1 0x41 PUSH1 0x4 MSTORE PUSH1 0x24 PUSH0 REVERT JUMPDEST PUSH2 0xCF1 DUP3 PUSH2 0xAAE JUMP JUMPDEST DUP2 ADD DUP2 DUP2 LT PUSH8 0xFFFFFFFFFFFFFFFF DUP3 GT OR ISZERO PUSH2 0xD10 JUMPI PUSH2 0xD0F PUSH2 0xCBB JUMP JUMPDEST JUMPDEST DUP1 PUSH1 0x40 MSTORE POP POP POP JUMP JUMPDEST PUSH0 PUSH2 0xD22 PUSH2 0xC4D JUMP JUMPDEST SWAP1 POP PUSH2 0xD2E DUP3 DUP3 PUSH2 0xCE8 JUMP JUMPDEST SWAP2 SWAP1 POP JUMP JUMPDEST PUSH0 PUSH8 0xFFFFFFFFFFFFFFFF DUP3 GT ISZERO PUSH2 0xD4D JUMPI PUSH2 0xD4C PUSH2 0xCBB JUMP JUMPDEST JUMPDEST PUSH2 0xD56 DUP3 PUSH2 0xAAE JUMP JUMPDEST SWAP1 POP PUSH1 0x20 DUP2 ADD SWAP1 POP SWAP2 SWAP1 POP JUMP JUMPDEST DUP3 DUP2 DUP4 CALLDATACOPY PUSH0 DUP4 DUP4 ADD MSTORE POP POP POP JUMP JUMPDEST PUSH0 PUSH2 0xD83 PUSH2 0xD7E DUP5 PUSH2 0xD33 JUMP JUMPDEST PUSH2 0xD19 JUMP JUMPDEST SWAP1 POP DUP3 DUP2 MSTORE PUSH1 0x20 DUP2 ADD DUP5 DUP5 DUP5 ADD GT ISZERO PUSH2 0xD9F JUMPI PUSH2 0xD9E PUSH2 0xCB7 JUMP JUMPDEST JUMPDEST PUSH2 0xDAA DUP5 DUP3 DUP6 PUSH2 0xD63 JUMP JUMPDEST POP SWAP4 SWAP3 POP POP POP JUMP JUMPDEST PUSH0 DUP3 PUSH1 0x1F DUP4 ADD SLT PUSH2 0xDC6 JUMPI PUSH2 0xDC5 PUSH2 0xCB3 JUMP JUMPDEST JUMPDEST DUP2 CALLDATALOAD PUSH2 0xDD6 DUP5 DUP3 PUSH1 0x20 DUP7 ADD PUSH2 0xD71 JUMP JUMPDEST SWAP2 POP POP SWAP3 SWAP2 POP POP JUMP JUMPDEST PUSH0 DUP1 PUSH0 DUP1 PUSH0 DUP1 PUSH1 0xC0 DUP8 DUP10 SUB SLT ISZERO PUSH2 0xDF9 JUMPI PUSH2 0xDF8 PUSH2 0xC56 JUMP JUMPDEST JUMPDEST PUSH0 DUP8 ADD CALLDATALOAD PUSH8 0xFFFFFFFFFFFFFFFF DUP2 GT ISZERO PUSH2 0xE16 JUMPI PUSH2 0xE15 PUSH2 0xC5A JUMP JUMPDEST JUMPDEST PUSH2 0xE22 DUP10 DUP3 DUP11 ADD PUSH2 0xDB2 JUMP JUMPDEST SWAP7 POP POP PUSH1 0x20 DUP8 ADD CALLDATALOAD PUSH8 0xFFFFFFFFFFFFFFFF DUP2 GT ISZERO PUSH2 0xE43 JUMPI PUSH2 0xE42 PUSH2 0xC5A JUMP JUMPDEST JUMPDEST PUSH2 0xE4F DUP10 DUP3 DUP11 ADD PUSH2 0xDB2 JUMP JUMPDEST SWAP6 POP POP PUSH1 0x40 PUSH2 0xE60 DUP10 DUP3 DUP11 ADD PUSH2 0xC74 JUMP JUMPDEST SWAP5 POP POP PUSH1 0x60 PUSH2 0xE71 DUP10 DUP3 DUP11 ADD PUSH2 0xC74 JUMP JUMPDEST SWAP4 POP POP PUSH1 0x80 PUSH2 0xE82 DUP10 DUP3 DUP11 ADD PUSH2 0xC74 JUMP JUMPDEST SWAP3 POP POP PUSH1 0xA0 PUSH2 0xE93 DUP10 DUP3 DUP11 ADD PUSH2 0xC74 JUMP JUMPDEST SWAP2 POP POP SWAP3 SWAP6 POP SWAP3 SWAP6 POP SWAP3 SWAP6 JUMP JUMPDEST PUSH0 DUP3 DUP3 MSTORE PUSH1 0x20 DUP3 ADD SWAP1 POP SWAP3 SWAP2 POP POP JUMP JUMPDEST PUSH0 PUSH2 0xEBA DUP3 PUSH2 0xA86 JUMP JUMPDEST PUSH2 0xEC4 DUP2 DUP6 PUSH2 0xEA0 JUMP JUMPDEST SWAP4 POP PUSH2 0xED4 DUP2 DUP6 PUSH1 0x20 DUP7 ADD PUSH2 0xAA0 JUMP JUMPDEST PUSH2 0xEDD DUP2 PUSH2 0xAAE JUMP JUMPDEST DUP5 ADD SWAP2 POP POP SWAP3 SWAP2 POP POP JUMP JUMPDEST PUSH2 0xEF1 DUP2 PUSH2 0xAF6 JUMP JUMPDEST DUP3 MSTORE POP POP JUMP JUMPDEST PUSH0 PUSH1 0xC0 DUP3 ADD SWAP1 POP DUP2 DUP2 SUB PUSH0 DUP4 ADD MSTORE PUSH2 0xF0F DUP2 DUP10 PUSH2 0xEB0 JUMP JUMPDEST SWAP1 POP DUP2 DUP2 SUB PUSH1 0x20 DUP4 ADD MSTORE PUSH2 0xF23 DUP2 DUP9 PUSH2 0xEB0 JUMP JUMPDEST SWAP1 POP PUSH2 0xF32 PUSH1 0x40 DUP4 ADD DUP8 PUSH2 0xEE8 JUMP JUMPDEST PUSH2 0xF3F PUSH1 0x60 DUP4 ADD DUP7 PUSH2 0xEE8 JUMP JUMPDEST PUSH2 0xF4C PUSH1 0x80 DUP4 ADD DUP6 PUSH2 0xEE8 JUMP JUMPDEST PUSH2 0xF59 PUSH1 0xA0 DUP4 ADD DUP5 PUSH2 0xEE8 JUMP JUMPDEST SWAP8 SWAP7 POP POP POP POP POP POP POP JUMP JUMPDEST PUSH0 PUSH1 0xC0 DUP4 ADD PUSH0 DUP4 ADD MLOAD DUP5 DUP3 SUB PUSH0 DUP7 ADD MSTORE PUSH2 0xF7E DUP3 DUP3 PUSH2 0xABE JUMP JUMPDEST SWAP2 POP POP PUSH1 0x20 DUP4 ADD MLOAD DUP5 DUP3 SUB PUSH1 0x20 DUP7 ADD MSTORE PUSH2 0xF98 DUP3 DUP3 PUSH2 0xABE JUMP JUMPDEST SWAP2 POP POP PUSH1 0x40 DUP4 ADD MLOAD PUSH2 0xFAD PUSH1 0x40 DUP7 ADD DUP3 PUSH2 0xAFF JUMP JUMPDEST POP PUSH1 0x60 DUP4 ADD MLOAD PUSH2 0xFC0 PUSH1 0x60 DUP7 ADD DUP3 PUSH2 0xAFF JUMP JUMPDEST POP PUSH1 0x80 DUP4 ADD MLOAD PUSH2 0xFD3 PUSH1 0x80 DUP7 ADD DUP3 PUSH2 0xAFF JUMP JUMPDEST POP PUSH1 0xA0 DUP4 ADD MLOAD PUSH2 0xFE6 PUSH1 0xA0 DUP7 ADD DUP3 PUSH2 0xAFF JUMP JUMPDEST POP DUP1 SWAP2 POP POP SWAP3 SWAP2 POP POP JUMP JUMPDEST PUSH0 PUSH1 0x40 DUP3 ADD SWAP1 POP DUP2 DUP2 SUB PUSH0 DUP4 ADD MSTORE PUSH2 0x1009 DUP2 DUP6 PUSH2 0xF64 JUMP JUMPDEST SWAP1 POP PUSH2 0x1018 PUSH1 0x20 DUP4 ADD DUP5 PUSH2 0xEE8 JUMP JUMPDEST SWAP4 SWAP3 POP POP POP JUMP JUMPDEST PUSH32 0x4E487B7100000000000000000000000000000000000000000000000000000000 PUSH0 MSTORE PUSH1 0x22 PUSH1 0x4 MSTORE PUSH1 0x24 PUSH0 REVERT JUMPDEST PUSH0 PUSH1 0x2 DUP3 DIV SWAP1 POP PUSH1 0x1 DUP3 AND DUP1 PUSH2 0x1063 JUMPI PUSH1 0x7F DUP3 AND SWAP2 POP JUMPDEST PUSH1 0x20 DUP3 LT DUP2 SUB PUSH2 0x1076 JUMPI PUSH2 0x1075 PUSH2 0x101F JUMP JUMPDEST JUMPDEST POP SWAP2 SWAP1 POP JUMP JUMPDEST PUSH32 0x4E487B7100000000000000000000000000000000000000000000000000000000 PUSH0 MSTORE PUSH1 0x11 PUSH1 0x4 MSTORE PUSH1 0x24 PUSH0 REVERT JUMPDEST PUSH0 PUSH2 0x10B3 DUP3 PUSH2 0xAF6 JUMP JUMPDEST SWAP2 POP PUSH2 0x10BE DUP4 PUSH2 0xAF6 JUMP JUMPDEST SWAP3 POP DUP3 DUP3 SUB SWAP1 POP DUP2 DUP2 GT ISZERO PUSH2 0x10D6 JUMPI PUSH2 0x10D5 PUSH2 0x107C JUMP JUMPDEST JUMPDEST SWAP3 SWAP2 POP POP JUMP JUMPDEST PUSH32 0x4E487B7100000000000000000000000000000000000000000000000000000000 PUSH0 MSTORE PUSH1 0x32 PUSH1 0x4 MSTORE PUSH1 0x24 PUSH0 REVERT JUMPDEST PUSH0 DUP2 SLOAD SWAP1 POP PUSH2 0x1117 DUP2 PUSH2 0x104C JUMP JUMPDEST SWAP1 POP SWAP2 SWAP1 POP JUMP JUMPDEST PUSH0 DUP2 SWAP1 POP DUP2 PUSH0 MSTORE PUSH1 0x20 PUSH0 KECCAK256 SWAP1 POP SWAP2 SWAP1 POP JUMP JUMPDEST PUSH0 PUSH1 0x20 PUSH1 0x1F DUP4 ADD DIV SWAP1 POP SWAP2 SWAP1 POP JUMP JUMPDEST PUSH0 DUP3 DUP3 SHL SWAP1 POP SWAP3 SWAP2 POP POP JUMP JUMPDEST PUSH0 PUSH1 0x8 DUP4 MUL PUSH2 0x117A PUSH32 0xFFFFFFFFFFFFFFFFFFFFFFFFFFFFFFFFFFFFFFFFFFFFFFFFFFFFFFFFFFFFFFFF DUP3 PUSH2 0x113F JUMP JUMPDEST PUSH2 0x1184 DUP7 DUP4 PUSH2 0x113F JUMP JUMPDEST SWAP6 POP DUP1 NOT DUP5 AND SWAP4 POP DUP1 DUP7 AND DUP5 OR SWAP3 POP POP POP SWAP4 SWAP3 POP POP POP JUMP JUMPDEST PUSH0 DUP2 SWAP1 POP SWAP2 SWAP1 POP JUMP JUMPDEST PUSH0 PUSH2 0x11BF PUSH2 0x11BA PUSH2 0x11B5 DUP5 PUSH2 0xAF6 JUMP JUMPDEST PUSH2 0x119C JUMP JUMPDEST PUSH2 0xAF6 JUMP JUMPDEST SWAP1 POP SWAP2 SWAP1 POP JUMP JUMPDEST PUSH0 DUP2 SWAP1 POP SWAP2 SWAP1 POP JUMP JUMPDEST PUSH2 0x11D8 DUP4 PUSH2 0x11A5 JUMP JUMPDEST PUSH2 0x11EC PUSH2 0x11E4 DUP3 PUSH2 0x11C6 JUMP JUMPDEST DUP5 DUP5 SLOAD PUSH2 0x114B JUMP JUMPDEST DUP3 SSTORE POP POP POP POP JUMP JUMPDEST PUSH0 SWAP1 JUMP JUMPDEST PUSH2 0x1200 PUSH2 0x11F4 JUMP JUMPDEST PUSH2 0x120B DUP2 DUP5 DUP5 PUSH2 0x11CF JUMP JUMPDEST POP POP POP JUMP JUMPDEST JUMPDEST DUP2 DUP2 LT ISZERO PUSH2 0x122E JUMPI PUSH2 0x1223 PUSH0 DUP3 PUSH2 0x11F8 JUMP JUMPDEST PUSH1 0x1 DUP2 ADD SWAP1 POP PUSH2 0x1211 JUMP JUMPDEST POP POP JUMP JUMPDEST PUSH1 0x1F DUP3 GT ISZERO PUSH2 0x1273 JUMPI PUSH2 0x1244 DUP2 PUSH2 0x111E JUMP JUMPDEST PUSH2 0x124D DUP5 PUSH2 0x1130 JUMP JUMPDEST DUP2 ADD PUSH1 0x20 DUP6 LT ISZERO PUSH2 0x125C JUMPI DUP2 SWAP1 POP JUMPDEST PUSH2 0x1270 PUSH2 0x1268 DUP6 PUSH2 0x1130 JUMP JUMPDEST DUP4 ADD DUP3 PUSH2 0x1210 JUMP JUMPDEST POP POP JUMPDEST POP POP POP JUMP JUMPDEST PUSH0 DUP3 DUP3 SHR SWAP1 POP SWAP3 SWAP2 POP POP JUMP JUMPDEST PUSH0 PUSH2 0x1293 PUSH0 NOT DUP5 PUSH1 0x8 MUL PUSH2 0x1278 JUMP JUMPDEST NOT DUP1 DUP4 AND SWAP2 POP POP SWAP3 SWAP2 POP POP JUMP JUMPDEST PUSH0 PUSH2 0x12AB DUP4 DUP4 PUSH2 0x1284 JUMP JUMPDEST SWAP2 POP DUP3 PUSH1 0x2 MUL DUP3 OR SWAP1 POP SWAP3 SWAP2 POP POP JUMP JUMPDEST DUP2 DUP2 SUB PUSH2 0x12C9 JUMPI POP POP PUSH2 0x139E JUMP JUMPDEST PUSH2 0x12D2 DUP3 PUSH2 0x1109 JUMP JUMPDEST PUSH8 0xFFFFFFFFFFFFFFFF DUP2 GT ISZERO PUSH2 0x12EB JUMPI PUSH2 0x12EA PUSH2 0xCBB JUMP JUMPDEST JUMPDEST PUSH2 0x12F5 DUP3 SLOAD PUSH2 0x104C JUMP JUMPDEST PUSH2 0x1300 DUP3 DUP3 DUP6 PUSH2 0x1232 JUMP JUMPDEST PUSH0 PUSH1 0x1F DUP4 GT PUSH1 0x1 DUP2 EQ PUSH2 0x132D JUMPI PUSH0 DUP5 ISZERO PUSH2 0x131B JUMPI DUP3 DUP8 ADD SLOAD SWAP1 POP JUMPDEST PUSH2 0x1325 DUP6 DUP3 PUSH2 0x12A0 JUMP JUMPDEST DUP7 SSTORE POP PUSH2 0x1397 JUMP JUMPDEST PUSH1 0x1F NOT DUP5 AND PUSH2 0x133B DUP8 PUSH2 0x111E JUMP JUMPDEST SWAP7 POP PUSH2 0x1346 DUP7 PUSH2 0x111E JUMP JUMPDEST PUSH0 JUMPDEST DUP3 DUP2 LT ISZERO PUSH2 0x136D JUMPI DUP5 DUP10 ADD SLOAD DUP3 SSTORE PUSH1 0x1 DUP3 ADD SWAP2 POP PUSH1 0x1 DUP6 ADD SWAP5 POP PUSH1 0x20 DUP2 ADD SWAP1 POP PUSH2 0x1348 JUMP JUMPDEST DUP7 DUP4 LT ISZERO PUSH2 0x138A JUMPI DUP5 DUP10 ADD SLOAD PUSH2 0x1386 PUSH1 0x1F DUP10 AND DUP3 PUSH2 0x1284 JUMP JUMPDEST DUP4 SSTORE POP JUMPDEST PUSH1 0x1 PUSH1 0x2 DUP9 MUL ADD DUP9 SSTORE POP POP POP JUMPDEST POP POP POP POP POP POP JUMPDEST JUMP JUMPDEST PUSH32 0x4E487B7100000000000000000000000000000000000000000000000000000000 PUSH0 MSTORE PUSH1 0x31 PUSH1 0x4 MSTORE PUSH1 0x24 PUSH0 REVERT JUMPDEST PUSH2 0x13D6 DUP3 PUSH2 0xA86 JUMP JUMPDEST PUSH8 0xFFFFFFFFFFFFFFFF DUP2 GT ISZERO PUSH2 0x13EF JUMPI PUSH2 0x13EE PUSH2 0xCBB JUMP JUMPDEST JUMPDEST PUSH2 0x13F9 DUP3 SLOAD PUSH2 0x104C JUMP JUMPDEST PUSH2 0x1404 DUP3 DUP3 DUP6 PUSH2 0x1232 JUMP JUMPDEST PUSH0 PUSH1 0x20 SWAP1 POP PUSH1 0x1F DUP4 GT PUSH1 0x1 DUP2 EQ PUSH2 0x1435 JUMPI PUSH0 DUP5 ISZERO PUSH2 0x1423 JUMPI DUP3 DUP8 ADD MLOAD SWAP1 POP JUMPDEST PUSH2 0x142D DUP6 DUP3 PUSH2 0x12A0 JUMP JUMPDEST DUP7 SSTORE POP PUSH2 0x1494 JUMP JUMPDEST PUSH1 0x1F NOT DUP5 AND PUSH2 0x1443 DUP7 PUSH2 0x111E JUMP JUMPDEST PUSH0 JUMPDEST DUP3 DUP2 LT ISZERO PUSH2 0x146A JUMPI DUP5 DUP10 ADD MLOAD DUP3 SSTORE PUSH1 0x1 DUP3 ADD SWAP2 POP PUSH1 0x20 DUP6 ADD SWAP5 POP PUSH1 0x20 DUP2 ADD SWAP1 POP PUSH2 0x1445 JUMP JUMPDEST DUP7 DUP4 LT ISZERO PUSH2 0x1487 JUMPI DUP5 DUP10 ADD MLOAD PUSH2 0x1483 PUSH1 0x1F DUP10 AND DUP3 PUSH2 0x1284 JUMP JUMPDEST DUP4 SSTORE POP JUMPDEST PUSH1 0x1 PUSH1 0x2 DUP9 MUL ADD DUP9 SSTORE POP POP POP JUMPDEST POP POP POP POP POP POP JUMP JUMPDEST PUSH32 0x4E487B7100000000000000000000000000000000000000000000000000000000 PUSH0 MSTORE PUSH1 0x12 PUSH1 0x4 MSTORE PUSH1 0x24 PUSH0 REVERT JUMPDEST PUSH0 PUSH2 0x14D3 DUP3 PUSH2 0xAF6 JUMP JUMPDEST SWAP2 POP PUSH2 0x14DE DUP4 PUSH2 0xAF6 JUMP JUMPDEST SWAP3 POP DUP3 PUSH2 0x14EE JUMPI PUSH2 0x14ED PUSH2 0x149C JUMP JUMPDEST JUMPDEST DUP3 DUP3 DIV SWAP1 POP SWAP3 SWAP2 POP POP JUMP JUMPDEST PUSH0 PUSH2 0x1503 DUP3 PUSH2 0xAF6 JUMP JUMPDEST SWAP2 POP PUSH2 0x150E DUP4 PUSH2 0xAF6 JUMP JUMPDEST SWAP3 POP DUP3 DUP3 MUL PUSH2 0x151C DUP2 PUSH2 0xAF6 JUMP JUMPDEST SWAP2 POP DUP3 DUP3 DIV DUP5 EQ DUP4 ISZERO OR PUSH2 0x1533 JUMPI PUSH2 0x1532 PUSH2 0x107C JUMP JUMPDEST JUMPDEST POP SWAP3 SWAP2 POP POP JUMP JUMPDEST PUSH0 PUSH2 0x1544 DUP3 PUSH2 0xAF6 JUMP JUMPDEST SWAP2 POP PUSH2 0x154F DUP4 PUSH2 0xAF6 JUMP JUMPDEST SWAP3 POP DUP3 DUP3 ADD SWAP1 POP DUP1 DUP3 GT ISZERO PUSH2 0x1567 JUMPI PUSH2 0x1566 PUSH2 0x107C JUMP JUMPDEST JUMPDEST SWAP3 SWAP2 POP POP JUMP INVALID LOG2 PUSH5 0x6970667358 0x22 SLT KECCAK256 CHAINID 0x4B 0xF RETURNDATACOPY ADD 0xB2 0xAF 0xF9 PUSH14 0xD22012A2CBA45442AFE3C9053D69 0x25 MULMOD PUSH11 0x34EF5A19C4B764736F6C63 NUMBER STOP ADDMOD BYTE STOP CALLER "
		},
		"gasEstimates": {
			"creation": {
				"codeDepositCost": "1107800",
				"executionCost": "1152",
				"totalCost": "1108952"
			},
			"external": {
				"addTachka(string,string,uint256,uint256,uint256,uint256)": "infinite",
				"allTachki()": "infinite",
				"delTachka(uint256)": "infinite",
				"getBestTackaInfo()": "infinite",
				"tachki(uint256)": "infinite"
			}
		},
		"methodIdentifiers": {
			"addTachka(string,string,uint256,uint256,uint256,uint256)": "6815d520",
			"allTachki()": "04005621",
			"delTachka(uint256)": "3302b00e",
			"getBestTackaInfo()": "f10cdccf",
			"tachki(uint256)": "98019748"
		}
	},
	"abi": [
		{
			"inputs": [
				{
					"internalType": "string",
					"name": "_brand",
					"type": "string"
				},
				{
					"internalType": "string",
					"name": "_color",
					"type": "string"
				},
				{
					"internalType": "uint256",
					"name": "_V",
					"type": "uint256"
				},
				{
					"internalType": "uint256",
					"name": "_maxSpeed",
					"type": "uint256"
				},
				{
					"internalType": "uint256",
					"name": "_fuelComsump",
					"type": "uint256"
				},
				{
					"internalType": "uint256",
					"name": "_timeToD",
					"type": "uint256"
				}
			],
			"name": "addTachka",
			"outputs": [],
			"stateMutability": "nonpayable",
			"type": "function"
		},
		{
			"inputs": [],
			"name": "allTachki",
			"outputs": [
				{
					"components": [
						{
							"internalType": "string",
							"name": "brand",
							"type": "string"
						},
						{
							"internalType": "string",
							"name": "color",
							"type": "string"
						},
						{
							"internalType": "uint256",
							"name": "V",
							"type": "uint256"
						},
						{
							"internalType": "uint256",
							"name": "maxSpeed",
							"type": "uint256"
						},
						{
							"internalType": "uint256",
							"name": "fuelConsump",
							"type": "uint256"
						},
						{
							"internalType": "uint256",
							"name": "timeToD",
							"type": "uint256"
						}
					],
					"internalType": "struct superTachki.tachkiD[]",
					"name": "",
					"type": "tuple[]"
				}
			],
			"stateMutability": "view",
			"type": "function"
		},
		{
			"inputs": [
				{
					"internalType": "uint256",
					"name": "index",
					"type": "uint256"
				}
			],
			"name": "delTachka",
			"outputs": [],
			"stateMutability": "nonpayable",
			"type": "function"
		},
		{
			"inputs": [],
			"name": "getBestTackaInfo",
			"outputs": [
				{
					"components": [
						{
							"internalType": "string",
							"name": "brand",
							"type": "string"
						},
						{
							"internalType": "string",
							"name": "color",
							"type": "string"
						},
						{
							"internalType": "uint256",
							"name": "V",
							"type": "uint256"
						},
						{
							"internalType": "uint256",
							"name": "maxSpeed",
							"type": "uint256"
						},
						{
							"internalType": "uint256",
							"name": "fuelConsump",
							"type": "uint256"
						},
						{
							"internalType": "uint256",
							"name": "timeToD",
							"type": "uint256"
						}
					],
					"internalType": "struct superTachki.tachkiD",
					"name": "bestTachka",
					"type": "tuple"
				},
				{
					"internalType": "uint256",
					"name": "bestTachkaIndex",
					"type": "uint256"
				}
			],
			"stateMutability": "view",
			"type": "function"
		},
		{
			"inputs": [
				{
					"internalType": "uint256",
					"name": "",
					"type": "uint256"
				}
			],
			"name": "tachki",
			"outputs": [
				{
					"internalType": "string",
					"name": "brand",
					"type": "string"
				},
				{
					"internalType": "string",
					"name": "color",
					"type": "string"
				},
				{
					"internalType": "uint256",
					"name": "V",
					"type": "uint256"
				},
				{
					"internalType": "uint256",
					"name": "maxSpeed",
					"type": "uint256"
				},
				{
					"internalType": "uint256",
					"name": "fuelConsump",
					"type": "uint256"
				},
				{
					"internalType": "uint256",
					"name": "timeToD",
					"type": "uint256"
				}
			],
			"stateMutability": "view",
			"type": "function"
		}
	]
}